:020000041000EA
:1000000000B5324B212058609868022188439860DF
:10001000D860186158612E4B002199600221596106
:100020000121F02299502B49196001219960352056
:1000300000F044F80222904214D00621196600F024
:1000400034F8196E01211966002018661A6600F04E
:100050002CF8196E196E196E052000F02FF8012189
:100060000842F9D1002199601B49196000215960AB
:100070001A491B48016001219960EB211966A021F2
:10008000196600F012F800219960164914480160C1
:100090000121996001BC002800D000471248134993
:1000A000086003C880F30888084703B5996A0420EC
:1000B0000142FBD001200142F8D103BD02B5186610
:1000C0001866FFF7F2FF186E186E02BD00000240BE
:1000D000000000180000070000035F00212200005C
:1000E000F4000018222000A00001001008ED00E03C
:1000F00000000000000000000000000074B24E7A12
:1001000000200420F7010010C3010010C5010010F9
:10011000C1010010C1010010C1010010C101001097
:10012000C1010010C1010010C1010010C701001081
:10013000C1010010C1010010C9010010CB01001065
:10014000CD010010CD010010CD010010CD01001037
:10015000CD010010CD010010CD010010CD01001027
:10016000CD010010CD010010CD010010CD01001017
:10017000CD010010CD010010CD010010CD01001007
:10018000CD010010CD010010CD010010CD010010F7
:10019000CD010010CD010010CD010010CD010010E7
:1001A000CD010010CD010010CD010010CD010010D7
:1001B000CD010010CD010010CD010010CD010010C7
:1001C00000BE00BE00BE00BE00BE00BEEFF3058054
:1001D000103800BEF2EB8871BCC60110DCC60110FD
:1001E0003402001090A31AE700201F49086006C8D7
:1001F00081F3088810471D48006800282FD10DA4FE
:100200000ECC002902D000F012F8F9E71849194A7B
:10021000002000E001C19142FCD1174988471749ED
:1002200088471749884700BEFDE701C901C29A42C5
:10023000FBD37047DCC60110C0000020743D0020D5
:10024000900302100000042000000420900302101C
:10025000001004200010042000000000704709482E
:1002600004F0D0F80047000008ED00E0000000D0E6
:10027000783D00201C9F0020A92C001019100010B0
:10028000D12D00105756000006005250ABB36053FA
:10029000D0AB011006005250861C0302E0AB0110E7
:1002A000060052505422A29DF0AB0110050052509E
:1002B000DE65F46890030210F8B5C0460448054BAB
:1002C00010B5834203D0044B002B00D0984710BDDB
:1002D000743D0020743D00200000000006480749DE
:1002E000091A8B10C90FC91810B5491003D0044B57
:1002F000002B00D0984710BD743D0020743D0020B5
:100300000000000010B5074C2378002B09D1FFF73F
:10031000D5FF054B002B02D0044800E000BF0123AD
:10032000237010BD508A002000000000B0A801100A
:10033000054B10B5002B03D00449054800E000BF71
:10034000FFF7CCFF10BDC04600000000548A00201B
:10035000B0A80110F8B504684568866AC76A290024
:1003600020001C4A1C4B04F07FFB00282FD12000EA
:100370002900184A194B04F061FB002801D0154CE4
:10038000164D174B30001C605D603900154A164B46
:1003900004F06AFB002817D130003900114A134BD2
:1003A00004F04CFB002801D00E4E104F0122104BE0
:1003B0001E605F600F4B1A700F4B986A04F06CFB65
:1003C0000E4B18605960F8BD064E074FEEE7014C22
:1003D000014DD6E7A4703D0AD7A3D03FD7A3D0BF25
:1003E000083E00203333333333330340333303C009
:1003F000A03D0020FA9E002000400540D03D002096
:1004000010B5054C00222100044809F095FE236830
:100410000133236010BDC04630990020649900204C
:10042000F8B5002357464E464546DE469846664B8D
:10043000D0249A46654BE0B59B46654B00260027C5
:10044000002599462406802263689203134201D155
:10045000002D3DD0012263685B0D1340013B1D4020
:100460006368DB0202D44346002B67D00122636835
:100470001B0D13404246013B1A4090464B46986A7A
:1004800004F00AFB32003B0004F05DFA0022514BFD
:1004900004F0EAFA0028D6D05B461A681368002BED
:1004A000FCD0BFF35F8F0022514600230A604B60EF
:1004B00049490A604B605B461B68BFF35F8F0022AF
:1004C0001A608022636892031342C3D1002DC1D108
:1004D0004B46986A04F0E0FA404B1A685B6804F0F7
:1004E00032FA3D4B186059604B46986A04F0D4FAD2
:1004F0003A4B186059604B46986A04F0CDFA0600F2
:100500000F00374B1A681368002BFCD0BFF35F8FC6
:10051000344B00221B78002B47D03349334B0868FB
:10052000496804F019FA304B186059602C4B1B686D
:10053000BFF35F8F002201251A6091E74B46986A4E
:1005400004F0AAFA2A4B1A685B6804F0FCF95346D7
:10055000186059604B46986A04F09EFA244B186064
:1005600059604B46986A04F097FA06000F001C4B3E
:100570001A681368002BFCD0BFF35F8F1D4B00225D
:100580001B78002B18D01C49184B0868496804F0E8
:10059000E3F9194B18605960114B1B68BFF35F8F6B
:1005A00000221A600123984668E70F490F4B08683C
:1005B000496804F0C8F9B6E70F490C4B0868496868
:1005C00004F0C1F9E5E7C046D83D0020D89D0020E1
:1005D0000040054000D5EB40E0400020E84000200E
:1005E000DC9D0020F59E0020488A00200000F03F9E
:1005F000E03D0020F49E0020408A0020F0B5CE4669
:10060000474680B552491F00524B83B016001A6806
:100610005B6881460868496804F0A7F932003B002E
:1006200004000D0004F0BFF90A9A0B9B00900191A1
:100630002000290004F0B7F902000B0006000F00AB
:100640000098019904F07FF9434B1A685B6804F045
:100650008CF9424B98461A695B6904F07DF9404A6F
:10066000404B04000D0004F0FFF9002857D0200093
:1006700029003C4B3A4A04F066F9434604000D0059
:100680001C615D610098019932003B0004F064F93F
:100690000022354B04F087F906000F00334B00228F
:1006A0001E605F600023324920000A604B603149C0
:1006B0000A604B60290004F04DFA02000B00300084
:1006C000390004F070F90B004146020008684968DF
:1006D00004F042F94346186059602000290004F0F4
:1006E0004FFA02000B003000390004F05CF90B00F7
:1006F000414602008868C96804F02EF943469860B4
:10070000D9601D4B1822414648461E605F6005F0C7
:100710006DFA484603B0C0BCB946B046F0BD0022F1
:1007200000232000290004F089F9002803D1434662
:100730001C615D61A6E7200029000A4B084A04F00D
:100740000BF9434604000D001C615D619AE7C04649
:1007500040410020E80F0020D00F00202888002012
:10076000182D4454FB2119400000E03FA83D002013
:10077000488A0020408A0020D8400020F0B5DE469C
:10078000454657464E46E0B516001F005A495B4B9A
:1007900087B01A685B6880460868496804960597C0
:1007A00004F0E3F8002204000D0030003900544B3F
:1007B00004F0DBF802000B002000290004F0D5F85B
:1007C0000B0002004F4F83463A607B60D0231B062C
:1007D0005B680E001B0406D480231B06CE180200A3
:1007E00033003A607B60109811990022444B04F06A
:1007F000BCF802000B002000290004F0B6F8424AC1
:100800000B009146040002000190484602604360DC
:10081000D0231B065B688A46DB0407D480231B06B3
:100820009A468A4422005346026043601098119908
:100830000024002522002B0004F0F8F8002849D1FC
:1008400000225146314B019804F0ADF8029003911B
:10085000049805990024002522002B0004F0E6F8F6
:10086000002840D10022294B5846310004F09BF863
:1008700002000B00264989460298039904F06CF89F
:100880004B4618605960234B58461C685D68310020
:1008900022002B0004F069F8220006000F002B0054
:1008A0000198514604F061F802000B003000390055
:1008B00004F049F84B4610229860D96049464046FA
:1008C00005F094F9404607B0F0BCBB46B246A946D5
:1008D000A046F0BD4B461C605D600023029403956A
:1008E0009A460193B4E7002122002B008B46002694
:1008F0003C607D60BEE7C04640410020E80F00201C
:1009000080842E41F03D0020F84000200000E03FB0
:1009100030410020D00F0020F0B5D6464F46464665
:10092000C0B586B014001D00109A119B04F00BF89E
:1009300006000F007B4B200029001E605F600E9AAE
:100940000F9B04F000F80A00009001910100764B23
:10095000300019605A60754B390098461A685B6818
:1009600003F0FAFF434604000D00009801991C6053
:100970005D606F4B98461A685B6803F0EDFF434675
:10098000186059606B4B029003911A685B683000E5
:10099000390004F008F82200049005912B00300083
:1009A000390003F0D9FF644B1A685B6803F0FBFF62
:1009B00080464C0089464046604A614B610804F01D
:1009C00053F800280BD042464B464046494603F0B8
:1009D000CCFF5A4A5A4B03F0E6FF80468946594BF2
:1009E00030009A461A685B68390003F0ACFF564B3A
:1009F0001A685B6803F0D7FF534604000D001E60C1
:100A00005F60049A059B4046494603F0A5FF22001B
:100A10002B0003F0A1FF4D4A4D4B04000D0004F0E4
:100A200023F8002800D079E020002900474A494BEC
:100A300004F004F8002801D0444C464D464B009E7B
:100A4000019F1C605D60454B30001A685B6839008F
:100A500003F0A9FF029A039B04000D003000390047
:100A600003F07AFF3E4B1A685B6803F09CFF8046F8
:100A70004E0089464046314A314B710803F0F4FF7D
:100A800000280BD042464B464046494603F06DFFD6
:100A90002A4A2B4B03F087FF80468946009801992C
:100AA000304B9A461A685B6803F04DFF2E4B1A686C
:100AB0005B6803F078FF009A019B0F005146060027
:100AC0000A604B60404622002B00494603F044FF79
:100AD00032003B0003F040FF0022244B03F063FF91
:100AE0001A4A1B4B04000D0003F0BEFF002812D170
:100AF00020002900154A174B03F0A0FF002801D061
:100B0000124C144D1A4B1C605D6006B0E0BCBA4636
:100B1000B146A846F0BD0D4C0D4DF3E70B4C0C4D06
:100B20008CE7C046003E0020983D0020B83D0020E4
:100B3000883D0020E00F0020B03D00207B14AE4730
:100B4000E17A843FC83D0020D80F00209A999999F6
:100B50009999C93F9999C9BFF83D0020C80F002055
:100B6000803D0020C03D0020783D00200000E03F97
:100B7000903D0020F0B5DE4657464E464546C64BF2
:100B8000E0B51C685D68C54B89B018685968C44BEE
:100B90001E685F68029603979A68DB68009201936B
:100BA00022002B00FFF7B8FEBE4B00221C685D68D8
:100BB000BD4B2000290003F0D8FEBC4F49007B68E4
:100BC0003A685E004F083900730803F04DFF0028B3
:100BD00025D0002200232000290003F02FFF002849
:100BE00000D09AE0002200232000290003F03CFFFF
:100BF000002800D1E7E0AE4BAE4D5E681F6876007E
:100C000076083A0028686968330003F09CFEAA4C15
:100C100080462268636889463800310010E0A74B9F
:100C2000A44D1E685F682A686B683000390003F0C5
:100C300093FE80468946300039009F4C22686368E5
:100C400003F08AFE02000B0082468B46226063603E
:100C50000022404649469A4B03F006FF0022002836
:100C600000D19CE0974B049205930022944B06928E
:100C7000079300239846924B994642464B460026DE
:100C80008F4F2A606B60504632003B00594603F09C
:100C9000EBFE00285DD0069807998B4B002226605A
:100CA00067601C68874B03F07EFE03F00DFF0004B5
:100CB0006040864B000C00041860D02380221B0685
:100CC00012025A618022D2019A6101220498059988
:100CD0007F4B1A707F4B1C6803F0F6FE60407E4B22
:100CE0000004000C1860002200234046494603F02F
:100CF000BBFED02380221B065201002823D05A615C
:100D0000802212019A610122744B1A7009B0F0BC62
:100D1000BB46B246A946A046F0BD654B654D5E6830
:100D20001F68760076082A686B683800310003F087
:100D300013FE614C80468946206861683A003300A2
:100D400003F001FE7EE79A61802212015A610022BF
:100D5000DAE70026624F32003B005046594603F066
:100D60006DFE002855D006980799574B0022266043
:100D700067601C68534B03F016FE03F0A5FE0304E6
:100D80006340524A1B0C1B041360D02380221B06B5
:100D900012029A618022D2015A61002296E74046EF
:100DA00049464F4B03F04AFE002817D00022454B1E
:100DB000049205930022424B069207930023984623
:100DC000474B994659E73B4D3B4C2B6898466B681F
:100DD000994623689A4663689B4639E74B465E000E
:100DE0007608404A3100404B404603F027FE03009E
:100DF00001205A1E9341584003F04EFE00220690F7
:100E00000791304B4046310003F0CDFD0490059131
:100E100033E75B465D006D08334B2900314A50468D
:100E200003F00CFE431E9841012304005C40264B56
:100E300000221E685046234B290003F0B4FD069A99
:100E4000079B03F0B0FD03F03FFE030473401F4A0D
:100E50001B0C1B041360504600220023594603F06C
:100E600003FE00280BD0200003F016FE02000B004A
:100E70000498059903F097FD049005911DE7200063
:100E800003F00AFE02000B000498059903F08BFDA5
:100E90000490059179E7C046A03D0020083E00205F
:100EA00030410020983D002000002440003E0020FA
:100EB000903D0020F0400020E83D0020F83D00205B
:100EC0000000F03FE0FFEF40840005408410054043
:100ED000F49E00207000054070100540F59E002033
:100EE0000000F0BF333333333333C33F10B51A4CF4
:100EF000200008F0C9FE0022002321002262636264
:100F0000A262E36222636363A263E36322646364B5
:100F1000A264E364226563650022104B7931FF31DE
:100F20000A604B6021008131FF310A604B60210073
:100F30008931FF310A604B6021009131FF310A6035
:100F40004B602100A1349931FF31FF340A604B60BE
:100F50002260636010BDC046103E002000000840C3
:100F600070B501250D2000F083FA04210D2000F05A
:100F70004FFA214B214A1B680F201B0C1B041360E6
:100F80002A001F4BD0241B6824069A431D4B1A606D
:100F900000F06EFA80231B0263620E2000F068FAF4
:100FA0008023DB01636200220121142000F048FA53
:100FB0000A2000F05DFA04210A2000F029FA124B01
:100FC000124A1B680C201B041B0C1360104B1B687F
:100FD0009D43104B1D6000F04BFA80235B01636260
:100FE0000B2000F045FA80231B010022012115206F
:100FF000636200F025FA70BD84000540841005404E
:1010000078000540781005407000054070100540DC
:101010006400054064100540F0B5DE46454657467D
:101020004E46E0B58D4CD027A54404F0A7FFFFF74E
:101030005DFFFFF795FF8A4B00210193894B8A4A98
:1010400000930120894B0AF0E5F8012000F0CCFA6A
:10105000874C3F06206000F0AFFA864E12AD30603C
:10106000012000F0C1FA844B1860206800F0A4FA57
:10107000824B08AC1860192000F0FAF980239B0419
:1010800020007B6298460AF017F82B0007CC07C3B4
:10109000FA2006CC06C3800078210AF0D5F8041E99
:1010A00008D0FB239B009D44F0BCBB46B246A9463A
:1010B000A046F0BD00222B00110017A809F0C6FEC3
:1010C0006F4A704917AB10A809F00AFF0AF0C0FF79
:1010D0006D4B020010A96D4809F03CFF08F03EFE80
:1010E0006B4B020010A96B4809F034FF07F068F958
:1010F000694B0200994610A94846684B09F05EFF0B
:10110000674B684A009317A900230FA809F08AFFCC
:101110002B00032217A924A809F092FB0FA924A8E9
:1011200009F02AFC4946604B604A009424A809F063
:10113000E9FB43467B615E4B5E481C6007F01AF991
:101140005D4B5E4D9B465E4B5E4F9A465E4B5F4CE1
:1011500099465F4B98465F4A002324A809F03EFE5B
:1011600032681368002BFCD0BFF35F8F53461A68B8
:101170005B68009201935B4648A81A685B68FFF7BA
:10118000FDFA43461A685B68009201934B4602A839
:101190001A685B68FFF732FA02A91822280004F0E7
:1011A00025FD39687A6823007933FF3319605A6066
:1011B000B968FA682300A133FF3319605A602A68BE
:1011C0006B6822626362AA68EB68A262E3622A69C2
:1011D0006B69A264E364B2222100920048A804F083
:1011E00005FDB2222000920048A904F0FFFC3368FC
:1011F000BFF35F8F002221001A60264808F09CFF91
:10120000354B1B78002BA6D0FFF7B4FC334B986A04
:1012100003F042FC324B1A685B6803F094FB002237
:10122000304B03F021FC002895D02F4B2F4A1B6830
:101230002F491B041B0C13602E4B2F4A1B681B0CE1
:101240001B041360002200230A604B602B490A60D4
:101250004B600022204B1A707DE7C04614FCFFFF54
:10126000AD130010751300106513001071130010FA
:10127000AC8A0020D89D0020B08A0020DC9D002090
:10128000D8B30110B0A80110BCA8011064990020C7
:10129000CCA80110A88A0020F89D0020D4A8011035
:1012A0000104001000CA9A3B5503001000410020C1
:1012B0003099002021040010D83D0020288800200B
:1012C000E040002030410020488A0020103E0020ED
:1012D000408A002000E1F505FA9E0020004005400C
:1012E000D03D002080843E417000054070100540D4
:1012F000F04000208400054084100540E83D0020B7
:10130000054910B508684968044B054A03F04BFBD2
:10131000044B1860596010BDF00F0020FB211940EC
:10132000182D44544041002070B50C0000F0C0FF5F
:1013300000230B4A06000D0003F0FCF80023206098
:101340006160074A3000290003F0F4F810005301EF
:101350009B1A9A001218D2000020A26070BDC046ED
:1013600040420F0010B504F009FE012010BDC04638
:1013700001207047F0B5C6460F001600984600B52C
:10138000002A0ED0002402E00134A64209D03D5DBF
:10139000280004F0BFFC8542F6D001234246260017
:1013A0001370300080BCB846F0BDC046F0B5C646EC
:1013B00000B517001C00884600F07AFF02000B0001
:1013C000002F23D06101091B89000919C9000C00F5
:1013D000CD17A4185D41002608E004F0D3FD431C9E
:1013E0000DD0434698550136B7420BD000F060FF50
:1013F00022002B00121A8B411000002BEDDA012382
:10140000069A1370300080BCB846F0BD0026F9E79C
:10141000094A830094464022634410B51C68C0000A
:101420006240C02414408022520113431C60034BCD
:101430009C466044416010BD04C001400040014032
:101440000A4B80009C4604236044002901D00C23F1
:101450000821002A00D10B00026853400C221A40D8
:1014600080235B01184302607047C04604C00140FE
:101470000123D0228340120693629361094A8300BC
:101480009446402263441968C0004A40C02111407C
:101490008022520113431960034B9C46052360448C
:1014A0004360704704C0014000400140024B18688F
:1014B0008007C00F7047C04600C0064070B5EFF30C
:1014C000108C72B60D4D2B68002BFCD0BFF35F8FD4
:1014D0000724CB08C618C05C01230C40A3401C00A5
:1014E0000440034207D103433370BFF35F8F2C6086
:1014F0008CF3108870BD100001F06EFC2C0100D040
:10150000F8B54746CE46884680B5EFF3108C72B6E4
:10151000214D2C68002CFCD0BFF35F8F9A422CD851
:10152000D4080727055D061901241740BC402C424A
:101530001FD007210127894609E0D408055D061957
:101540004C4639001440A1400C00294211D0013210
:101550009342F2D201204042BFF35F8F00220E4B34
:101560001A608CF3108800280FDBC0BCB946B04667
:10157000F8BD2C4310003470EEE7BFF35F8F0023FB
:101580002B608CF31088012040424346002BECD0A6
:10159000089801F021FCC0462C0100D00021044B2A
:1015A000044ABFF35F8F02C39342FAD17047C0462B
:1015B000000100D0800100D0044B9C4660448000B4
:1015C000BFF35F8F002303607047C04640000034C4
:1015D000044A1078431CDBB2172B00D91023137078
:1015E0007047C046F80F002000B5054B83B00100DE
:1015F000009318221F230348FFF782FF03B000BDAA
:10160000E0A801102C90002001238340002904D081
:10161000034A1360034A13607047034A1360FBE7F1
:1016200080E200E000E100E080E100E00122824091
:10163000034B1B6813405A1E9341D8B27047C046F3
:1016400000E100E001238340014A13607047C04677
:1016500000E200E0084B10309B688000C358002B6C
:1016600007D0064A00209B1A2F229A424041C0B25E
:1016700070470020FCE7C04600ED00E0FC0F0020B2
:10168000024B10309B688000C058704700ED00E0AE
:1016900070B50D00EFF3108672B60F4A1368002B79
:1016A000FCD0BFF35F8F0D4B10309B6884001B593B
:1016B0000B4A934203D09D4201D001F0A5FB074B9A
:1016C0009B681D51BFF35F8FBFF35F8F0022024BFA
:1016D0001A6086F3108870BD240100D000ED00E090
:1016E000CD010010F0B557464E46DE464546E0B502
:1016F00085B0060002911700EFF3108B72B6674AAF
:101700001368002BFCD0BFF35F8F0025644B5D573F
:101710009A46002D00DAA4E06B00624C03935B193B
:101720009B009846A146C1444B4652469B791036D1
:1017300013705D4BB2009B68019299580B1B2F2BC5
:1017400034D95A4B994200D0A4E0039B584A9C4696
:10175000584B6544AD006353434602336519E418A2
:10176000554B0121043B1B1B1B055B0D13436B8079
:10177000524BEF71AB80FF23AB71029BAB604B46CA
:101780000B431900484B019A9B689950BFF35F8F38
:10179000BFF35F8F0022414B1A608BF3108805B0B6
:1017A000F0BCBB46B246A946A046F0BD01200A00E7
:1017B0008243D379BB422FD845464E461300404959
:1017C0001B1B5B415943090D3A4B63533A4B02359E
:1017D0006519043B5B1B1B05354D5B0D2B4373806B
:1017E0000426B446E0444444131F1B1B4C46A1711D
:1017F00002991B05A16049465B0D2B43A380314B29
:10180000E77101431360BDE75800C018800020183D
:10181000C679BE422BD902000623D356002BF3DA39
:10182000101D82462848804604267642B446E1448C
:1018300050464E46361A3005400D824656461C48E4
:10184000957106439680039A944665441D4AAD00FF
:10185000641922604246A371029BA280E771A360D3
:1018600090E701F0D1FA002553465D5754E7101D6B
:10187000824690884005001584464046D44466461A
:1018800004302018301AE0260005400D360230439F
:101890008046C9E701F0B8FA57E7C046240100D0F6
:1018A000149F0020FC0F002000ED00E0CD0100108F
:1018B00000E0FFFF00A1FFFF2C10002001BDFFFF93
:1018C000AAAA00000148804701BD0000F0B5DE462D
:1018D00057464E464546E0B50C0083B0EFF31089FD
:1018E00072B6584A1368002BFCD0BFF35F8F564B7B
:1018F0009A68030010339F00D559544A9046954288
:1019000032D0A54243D0524EAA1B2F2A2CD80122F6
:101910008240924651464F4A126811400191514609
:101920004D4A1160BFF35F8FEFF305829346002AA3
:1019300033D101232A009A4393689C4208D177E06F
:101940004B005B189B00F3189968A1422AD01A003B
:10195000062151560029F3DA019B002B19D052467B
:101960003E4B1A603B4B1A60374B9B68DD51BFF30F
:101970005F8FBFF35F8F0022324B1A6089F31088AC
:1019800003B0F0BCBB46B246A946A046F0BD150068
:10199000EAE75246304B1A60E6E79342C9D001F0BD
:1019A00033FAC6E706215956002921DB4A005018B0
:1019B000800034188046A0689860E079D8710620CD
:1019C00020569871002824DBA488F01A6405241599
:1019D00044440019E0240005400D2402204398806F
:1019E00052181F4B9200B6181A781970B271B3E7EB
:1019F000594600290FD1FF3191711A499180184938
:101A00000A789A71184A9B1B5B415A43120D0A705F
:101A1000A2E71648E3E7164A1649D21A083A5002D6
:101A2000400D01439980144952080A43DA8093E734
:101A30000621515613000029B8DA5A46002AEAD185
:101A40004546DCE7240100D000ED00E0CD010010A8
:101A5000FC0F002000E100E080E100E080E200E017
:101A6000149F002001BDFFFFAAAA000001BD0000D5
:101A70003610002000F0FFFF00F8FFFF70B5EFF315
:101A8000058101240443EFF3108C72B6214A1368D8
:101A9000002BFCD0BFF35F8F1F4B05001F4AED1AD0
:101AA0006D416A43120D1E4D8900AE6852B27658E0
:101AB000A6421CD00621595691421CD012215956DB
:101AC000914222D01E215956914220D02A215956A6
:101AD0000324914210D0134B19781A708171BFF30F
:101AE0005F8F00220B4B1A608CF3108870BDAB68BF
:101AF0000D4C5C50EFE700246100091989005B1868
:101B0000FF21997109499980E5E70124F4E702244E
:101B1000F2E7C046240100D0FC0F0020AAAA000072
:101B200000ED00E0149F0020CD01001001BDFFFF7B
:101B3000054B064A1360064A136053609360D360F6
:101B400013615361936170478080808000E400E0FE
:101B500004E400E000B5074B83B0010000930022CD
:101B600005230548FFF7CCFC002801DB1F23181ACA
:101B700003B000BDFCA80110199F0020024B9C4639
:101B800061448900016070474000003410B50400D2
:101B9000FFF71EFD01002000FFF7F0FFFF23237178
:101BA000BFF35F8F10BDC04610B50400FFF710FDF6
:101BB00001002000FFF7E2FFFF23A380BFF35F8F48
:101BC00010BDC04610B504000120FFF70DFD044B09
:101BD0009C46604480002060BFF35F8F10BDC0460C
:101BE00040000034034B9C46614489000160BFF310
:101BF0005F8F70474000003483680B4810B58446FF
:101C000061446244090112019A18591854684B68DA
:101C100001209C4201D802D00020C0B210BD126841
:101C20000B689A42F9D8F7E7FFFFFF0F0A4B1968D4
:101C3000EFF3108072B60A68002AFCD0BFF35F8F02
:101C40001B68BFF35F8F00221A6080F3108840BFCB
:101C5000002000217047C046C0990020F8B55746C3
:101C60004E464546DE46E0B599460CAB1C780DABBA
:101C70001B78060090469A460768002C11D1BC7B61
:101C8000002C42D065003B682D19033D59194B7853
:101C9000BB73002B00D1FB7300238B704B700B7058
:101CA00004E065003B682D19033D5919B2682A4BC1
:101CB00094464246E3181B0163441A604A465A6040
:101CC0000A9A9A600B9ADA6000238B704B700B7043
:101CD0007B7B9B46002B2BD022005946B8687B6843
:101CE00098473A68002816D05B4658465B005B442C
:101CF0005519033BA870D118D35C002B00D06B7032
:101D00005B460C707B73A34513D0F0BCBB46B24658
:101D1000A946A046F8BD5B465B005B44033BD31875
:101D20009C705119525D002A00D05A705B460B70AE
:101D30007C7342464B46307D00F034FB051E06D0D6
:101D40005346002B03D12100306800F04FFD0E9B5D
:101D5000002BDAD01D70D8E7FFFFFF0FF0B5DE468D
:101D600057464E4645460023E0B58BB00893674B77
:101D70008200D45800239B46099000F099FA6268CB
:101D800006000F00EFF3108572B61368002BFCD02D
:101D9000BFF35F8F23689C465B7B9946002B00D185
:101DA00069E0A2685A4B90464B441B019844434655
:101DB0001A685B6810001900801BB941002900DC1B
:101DC00063E0099800F0EEFA002300229846002311
:101DD0000692079300239A466368BFF35F8F5A46C3
:101DE0001A6085F310885346002B08D10028C4D10F
:101DF0000BB0F0BCBB46B246A946A046F0BD089B5E
:101E0000414618024B461843D047626806000F004F
:101E1000EFF3108572B61368002BFCD0BFF35F8F11
:101E2000002F50DB33003B4302D02369002B61D1EC
:101E30002368D97B002907D04A00521819688C46BC
:101E400049466244033A51709A7B002A01D14A46BE
:101E50009A734A46DA734B46E168013BCA5C013229
:101E6000CA545B4623616368BFF35F8F5A461A60AA
:101E700085F3108881E7002300229846002306920C
:101E80000793002300209A46A6E7002902D10028E4
:101E900000D096E70021604600F026FC43461A6811
:101EA0005B680692079343469B689A464346DB6805
:101EB0009846E3684B44013B1B7808931B0203439D
:101EC0002361002088E72369002BB1D0069A079B85
:101ED000921BBB41002B15DB594604910121039154
:101EE0004946029141460191514620000091FFF779
:101EF000B5FEB6E700F0DCF932003B0012184B41AA
:101F0000002BE9DA0122034B5242E5E75499002005
:101F1000FFFFFF0FFFFFFF7F10B5144C6368002B1E
:101F200004D00A211248FFF729FE10BD2300114AF0
:101F30001021206800F0F2FA032000F0ADF9032030
:101F400000F09AFA03200C4900F0E6F9FFF740FB95
:101F50000A4B9C4603232375D0231B061B68604451
:101F60006375074B80006060DC60DAE74410002096
:101F7000C0990020F91B00105D1D001040000034C6
:101F8000549900200048704744100020F0B54E4698
:101F90004546DE465746E0B585B0019310AB1B7849
:101FA0000600039300239946984600927268EFF367
:101FB000108B72B61368002BFCD0BFF35F8F3568AF
:101FC000AC7B002C3DD067002B683F19033FDB1929
:101FD0005A78AA73002A00D1EA73B168474A8C463E
:101FE00000980199A21812016244106051600E9984
:101FF00091600F99D16042469A705A701A706B7B4B
:102000009A46002B67D022001900A8686B68984791
:102010002A68002852D0534650465B005344D719D3
:10202000033BB870D118D35C002B00D07B705346B3
:102030000C706B7354454FD0F3681B19013B187833
:1020400000E000207368BFF35F8F42461A608BF395
:102050001088002C4FD04B46002B08D100022043A3
:1020600005B0F0BCBB46B246A946A046F0BD039BF6
:10207000002B3ED00E9B00200F99984703000400D0
:102080000D000B4335D000290ADA009A019B121B80
:10209000AB4100920193002B0ADB039B994685E735
:1020A00000F006F924184D4100940195002DF4DA52
:1020B0000123134C5B4200930194EEE753465B000F
:1020C0005344033BD3189C70D119D25D002A00D031
:1020D0005A7053460B706C73307D009A019B00F070
:1020E00061F981460028A7D02100306800F07EFB0E
:1020F000A2E70020B4E701204042B1E7FFFFFF0F55
:10210000FFFFFF7F407D7047F0B5EFF30583CE46BC
:10211000474680B505000C0085B0002B12D02C4A34
:102120000020536A9C4203D8926A0130AA4204D329
:1021300005B0C0BCB946B046F0BDE01A421E9041A1
:10214000C0B2F5E7234E02930193234B02000093A4
:1021500030000B00FFF71AFF031EE0DD20BF71689F
:10216000EFF3108772B60A68002AFCD0BFF35F8FC6
:10217000DAB294463068427B62451DD0FF221A4095
:1021800051008946016891448846494641440339D3
:102190008978002913D0F1681B0A88464244013A25
:1021A0001278DBB29A420FD07368BFF35F8F0022C0
:1021B0001A6087F31088B2E7FF221A40EBE7326912
:1021C0009342F1D13161EFE7614600F00FFBEBE79D
:1021D00000400540441000202D1C0010F0B5EFF326
:1021E0000582D6464F4646461000C0B51038EFF37C
:1021F000108872B6214C2368002BFCD0BFF35F8F90
:102200000123190081401E4D1F006963AA461D4D20
:1022100029601D4D2E78AC463500C5402F402B421D
:1022200009D1BFF35F8F276088F31088E0BCBA46FE
:10223000B146A846F0BD5346144D5F6A83005D5910
:10224000AF420ED3124A8E439B5862461670BFF3BC
:102250005F8F0022226088F31088002BE6D0984719
:10226000E4E70C4B92009C46624413681360BFF392
:102270005F8F0023236088F31088D7E7280100D000
:10228000004005403C700540189F00200C9E002037
:10229000F88E0020D03F054010B50100024A0348E7
:1022A000FFF70CF910BDC04620A90110F99E0020CF
:1022B000034B596A0A00986A596A8A42FAD17047F0
:1022C0000040054070B504000D00124A536A190021
:1022D000966A536A8B42FAD13000190024184D4196
:1022E000AB4211D80ED02B000A494A6A9A42FCD35D
:1022F00007D1084A02E0516A994202D1916AA1428B
:10230000F9D370BDA642EED9012301246442E5173A
:102310005B42E9E70040054070B504000D00EFF3B3
:10232000108672B61A4A1368002BFCD0BFF35F8F79
:10233000002D1BD02000FFF7A3F9164981420AD0D7
:102340002000FFF7A5F901212000FFF75DF9012327
:10235000A340114A1360114BA400E550BFF35F8FF7
:1023600000220B4B1A6086F3108870BD0B4BA20045
:10237000D5500122A2400A4920000B7893430B70EC
:102380000449FFF7A3FA00212000FFF73DF9E5E734
:10239000280100D0DD21001038600540F88E0020B3
:1023A000189F0020F0B54F46D6464646C0B50700F8
:1023B0002C4C616A0D00A66A616AA942FAD18B426F
:1023C00008D805D00120E0BCBA46B146A846F0BD09
:1023D000B242F7D9EFF3108A72B623480168002998
:1023E000FCD0BFF35F8F0125BD4020491D4C8846BE
:1023F000097889462943C9B28C464146604608702F
:10240000391D1B48890065630A51B9000B50216AC8
:102410000020294219D0616A0800A66A616A8142D7
:10242000FAD18B4219D801D1B24216D8CC4516D078
:102430000C4B1F201D625D6301230740BB400D4A0A
:102440001E38136043464A461A70BFF35F8F00225E
:10245000054B1A608AF31088B5E70020F5E70120E4
:10246000F3E7C04600400540280100D0189F002037
:102470000C9E002080E200E0EFF3108C72B60A4957
:102480000B68002BFCD0BFF35F8F01238340074A0A
:102490000748136202789A430270BFF35F8F0023EC
:1024A0000B608CF310887047280100D00040054075
:1024B000189F002070B5050014001600002915D0E3
:1024C0000C00002A12D080686B68984729680028A1
:1024D0000ED073009B196200033B1219CB18033A0C
:1024E0009C7088188A5C002A15D10670200070BD87
:1024F00063001B197200033B9219CB18033A9E70BC
:1025000088188A5C002A02D104703400EEE75A7001
:1025100004703400EAE75A700670E7E730B583606C
:102520000023CCB243730133047342608373C473DA
:102530000D000068012C06D9421C0133DBB2137078
:1025400003329C42F9D1FF2129404B005918002346
:1025500040180338437030BDF8B5CE4647460600F4
:102560000C0080B5002907D04D0003686D18033DAD
:102570005A195778002F04D12000C0BCB946B04684
:10258000F8BD7900C919033988464344597889460A
:1025900000215970517073683A0021008068984793
:1025A0003368002814D042469A18947059195B5D1C
:1025B000002B00D053700F70270049463000FFF702
:1025C000CBFF390002003000FFF774FF0400D3E7AF
:1025D000424641465D19AF709A185B5C002B00D0F3
:1025E0006B701470E9E7C046F0B557464546DE46C5
:1025F0004E46E0B50D006B0001685B19DF1E04005C
:10260000C85D83B00192CA19002850D043001B183E
:10261000033BCB185E78B446002E1AD1019E002EE3
:1026200042D0E67B002E04D073009B19CB18033BED
:102630005D70A37B002B00D1A573E57300282FD11B
:102640000023537003B0F0BCBB46B246A946A04677
:10265000F0BD72006244033A89184A78904600221D
:102660004A7091465A70010032002000FFF722FFA5
:1026700043468246002B07D05B0021684344033B5E
:10268000CB185A78002A16D1424651462000FFF74F
:1026900011FF2168019BCA19002BC2D10028CFD09D
:1026A00043001B18033BCB1800219970C8E7019B1E
:1026B000002BB6D1C4E750008018033809184878B9
:1026C000834648464870587041462000FFF7F2FEA6
:1026D000594680462000FFF73FFF41460200200098
:1026E000FFF7E8FE8046CFE7F0B557464546DE46A1
:1026F0004E46E0B583B00191457B04006B00006855
:102700005B19DF1EC15DC219002952D04B005B1856
:10271000033BC3185E78B446002E1CD1019E002EE8
:1027200044D0E67B002E04D073009B19C318033BF2
:102730005D70A37B002B00D1A573E573002931D117
:10274000002328005370617303B0F0BCBB46B2464F
:10275000A946A046F0BD72006244033A8018427850
:1027600090460022427091465A7020003200FFF7D6
:10277000A1FE43468246002B07D05B0021684344FC
:10278000033BCB185A78002A17D142465146200005
:10279000FFF790FE019B01002068C219002BC0D1F9
:1027A0000029CDD04B005B18033BC3180020987064
:1027B000C6E7019B002BB4D1C2E750008018033854
:1027C00009184878834648464870587041462000AA
:1027D000FFF770FE594680462000FFF7BDFE4146D8
:1027E00002002000FFF766FE8046CEE770B50400C9
:1027F00000292CD0437B8B422ED00568480040181E
:10280000033828188278002A21D053009B18033BF4
:10281000EA5CEE188A4202D11BE0002A08D053007D
:102820009B18033BEB185A788A42F6D142785A70CB
:1028300000230122837043702000FFF7D5FE617BE7
:1028400002002000FFF736FE6073012000E0002048
:1028500070BD43783370EBE701221900FFF7C4FE27
:1028600060730120F4E7C04630B50C2083B000F05F
:10287000B3F9FEF71BFE00280ED0994B994A1A6057
:102880005A609A60DA601A615A619A61DA611A6272
:10289000954A5A6203B030BD944CA06700F0F0F93D
:1028A0000122934B1A60636C012BFCD10322914BE4
:1028B0001A608E4A936B012BFCD1013301218E4AA1
:1028C0008E480093043300F037F905238C4A0093B7
:1028D00001218C4800F030F98B4B5A68FF2A02D84E
:1028E000802252005A6080227D4C824B2169120165
:1028F000854D1A60002907D0606901F0DDFD431C99
:102900005800C0180338FDD2E0217F4B02201A681E
:102910001140802252012A43116019684840032166
:102920000140116004219A681142FCD0802280216C
:1029300092012A4309011160802252005A60734BB0
:102940002361734B5968FF2900D85A600321684AF4
:102950006F4B116002399A681142FCD0E0201A686E
:102960001040802252011A43106018684840032129
:1029700001400220116066498A681042FCD0802222
:1029800092011343802212011A608022614B52008F
:102990004A606361604B5968FF2900D85A60802201
:1029A0005E4BE16912015C4D1A60002907D0606935
:1029B00001F082FD431C5800C0180338FDD2E0220C
:1029C00055490B681A4080235B012B431A60802312
:1029D00080229B012B4312011A608022414B52003E
:1029E0004A60E3614E4B5968FF2900D85A60802243
:1029F0004C4B216A12014A4D1A60002907D06069C8
:102A000001F05AFD431C5800C0180338FDD2E022E3
:102A100043490B681A4080235B012B431A608023D3
:102A200080229B012B4312011A60802380225B00CD
:102A30004B602C4BD20223623B4B5968914200D22F
:102A40005A608022394B616A1201374D1A600029A1
:102A500007D0606901F030FD431C5800C0180338EE
:102A6000FDD2E02230490B681A4080235B012B43E2
:102A70001A60802380229B012B4312011A6080235D
:102A8000DB024B60184B6362294B5A68FF2A02D85D
:102A9000802252005A608022264BA1691201244DE7
:102AA0001A60002907D0606901F006FD431C580038
:102AB000C0180338FDD2E0221D490B681A4080235C
:102AC0005B012B431A60802380229B012B43120160
:102AD0001A6080235B004B600E4BA361DAE6C046B0
:102AE00040900020006CDC021BB70000008000401A
:102AF0003CB0004030B00040002F685900800240D8
:102B0000008C864700C0024030800040001BB700A8
:102B10003C800040405973075480004054B000404E
:102B20006080004060B000406C8000406CB00040AD
:102B30004880004048B00040F8B5040021481D001E
:102B400017000E0001F0B8FC0100380001F0B4FCE1
:102B5000069B29041B0319432368002B20DB1A4B17
:102B60001A4DE21853425A4180235B019C461203DE
:102B7000174B62441A60174B1A601700AB689F43EB
:102B8000FBD1C022231D92011A4321232660A0609D
:102B900013602368002BFCDA0823E1601360F8BDA2
:102BA0003F2322681340B342D9D1A3681B051B0DF4
:102BB0008342D4D1EE22E368D20213408B42CED1BD
:102BC000EDE7C046001BB7000040FDBF00C000405D
:102BD00000E0004000F000408023024A9B000343D5
:102BE000D36270470080054010B5140080221B4B53
:102BF000D2051A6000281AD00123194A1843194B2C
:102C0000DA61194A42401A62596298628022134B73
:102C1000D2051A601549164A1160E022D2041A60E2
:102C2000002C07D18022134B12061A6010BD0D4BE9
:102C3000D861EBE763011B1B9A0080231219120174
:102C40005B049A4200D30C4A0C4B1A60054B5A6045
:102C50008022084BD2051A60E8E7C04600B0054064
:102C6000D3C007B0008005402D3FF84FFCFF0100A6
:102C70000820014000A00540FFFFFF00149900203C
:102C8000AA23064A1B0113602F230549D360054B75
:102C900019605368002BFCDA7047C04600400240C0
:102CA00000B0FA00006002402C4B2D4A70B51A604B
:102CB0002C4A2D4B2D491A6014008B689C43FBD184
:102CC0002B4D2C4EB54208D2013E761BB60808CDDE
:102CD000984723000134B342F9D1FFF7C5FD264AD6
:102CE000214B1A60214A9368DB43DB01DD09002B8D
:102CF000F9D14022214B224C224E9A675A671A671B
:102D0000DA66B44208D223682000002B20D00834B1
:102D1000FEF74AFFB442F6D31B4E1C4CC022A168FA
:102D2000300002F063FFA660FEF738FCFEF700FFFC
:102D3000FFF7F2F8164C174EB44208D2013E361B8C
:102D4000B60808CC98472B0001359E42F9D170BDDA
:102D50000834FEF71BFFB442D5D3DDE700E00040A6
:102D6000BFCDFBFEFE7F3C0000F0004000C00040F5
:102D70004C3D00205C3D0020FFFFFF0100F00140C2
:102D80003C3D00204C3D00200000002000ED00E014
:102D90005C3D0020743D002000BEFDE7094A0300B1
:102DA0001068002805D00849C3188B4207D8136063
:102DB000704706480449C31810608B42F7D90120B8
:102DC0004042F5E7FC940020000004201C9F0020F6
:102DD00010B5FFF7E1FFC0460FB400B5084883B057
:102DE00002F0E4FF049B002B07D005A91800019115
:102DF00001F0E8FA034802F0D9FF0120FFF7CCFF09
:102E000044A901107CB4011010B50148FFF7E4FF9C
:102E100054A901109A4200D2885470477047C046A6
:102E2000F8B557464E464546DE46E0B599460A9BFC
:102E300007009A460D9B8846934615000B9E9B07FC
:102E400010D10C9B9E420DD29D1B14000E005D44C0
:102E500022004B46013431002020B847A542F7D16B
:102E6000B0460B9E002E27D0444675195346AA1B28
:102E7000013E985D21004B46B847002EF6D1230055
:102E80002C0098460D9B9B070FD55B46E51A0C9BC3
:102E9000AB420AD94646984622004B4631002020D4
:102EA0000135B8470134A845F6D82000F0BCBB4630
:102EB000B246A946A046F8BD2C00E3E7F0B54F4660
:102EC0004646D646C0B584B098460EAB1B78129FD6
:102ED000994694460D9C109B119EBA0725D4002E4E
:102EE0004BD19C4200D3BFE001223A4092461F2CB6
:102EF00000D9B8E00C9A551E302201E0202C03D0F6
:102F000001342A55A342F9D85246002A0DD0A642D0
:102F10000BD9202C44D00C9A551E302201E0202CD5
:102F20003ED001342A55B442F9D1FA064DD57A057E
:102F30003FD4002C39D10F9B102B00D179E00F9B8F
:102F4000022B00D18AE030230C9A012413704B46E7
:102F5000002B3FD02D230C9A135501340C9B624655
:102F600000930397434602960194FFF759FF04B07C
:102F7000E0BCBA46B146A846F0BD012215003D406E
:102F8000AA463A422FD04A46002A02D10C323A428F
:102F900000D0013E9C42BAD21F2CABD9202E27D99B
:102FA0002024FA06DAD57A0503D4A3422DD0A6420E
:102FB0002BD00F9B102B32D0022B20D0202CCDD029
:102FC00030220C9B1B191A700134202CC6D04B46A2
:102FD000002BBFD17B070DD43B07BFD520230C9A14
:102FE00013550134BAE79C429FD21F2C00D881E7C9
:102FF00020249AE72B230C9A13550134AEE7202C9A
:10300000ACD00C9B1B1901343AE0631E012C92D00A
:103010000F9A102A2AD0022A2FD01C00D0E7BB0614
:103020000ED4202C9AD00C9B1A19013478231370DB
:10303000C4E7BB060DD478230C9A01241370BFE7B4
:10304000202C00D18AE758220C9B1B191A700134DE
:10305000B4E758230C9A01241370B1E70C9A60333B
:1030600001241370ACE7202400265EE7023CBA0678
:10307000E9D40C9A12191C00D8E70C9A92465344D2
:1030800062221A709AE7C04610B5002800D110BD20
:1030900002F040FEFBE7C046F0B5DE4657464E461E
:1030A0004546E0B59BB09B46249B89469846259BA8
:1030B0000B900C924046424619009A4601F0D9FC0A
:1030C000002800D0D8E0012240465146774B5242BA
:1030D00001F0CAFC002800D0CEE001224046514653
:1030E000734B524201F0AAFC002800D0C4E0002239
:1030F00000234046514601F0A1FC002800D0B9E170
:10310000424653460A9209938023289ADB001A40CC
:103110000E92289A1A4201D1062326930A9A099BF5
:103120001600134300D0C7E0289B002500261B058E
:1031300000D49BE100230D93269A0D9B9A4200DC5C
:103140009FE1D01A431E26938023289ADB001A435E
:103150000023002728920D93279B0024BB4200D90F
:10316000DC1B0223289A1A400E92289A134203D09D
:103170007B427B415B421C400D9B002B07D00A9891
:1031800009992A00330001F0F0FB0A90099100220E
:1031900000234046514601F051FC002805D0802014
:1031A00000068446099961440991289A414B0B9D78
:1031B00013400493269B0A9A0293099B039400925E
:1031C000019349465B4628000C9A00F08BF90400F5
:1031D000002F62D0289B220098061F23C017984317
:1031E000631C984649465B466530A8470D9B002501
:1031F000DA179C18DB0F9A465440013F01E0202D5E
:1032000013D00AAA94461F23200063440A210135E3
:103210005E1901F051F93031317020000A2101F0BE
:103220004BF926000400092EE9D805230693002354
:1032300004930A330393534605970B9F029312ABF3
:10324000009342465B46494638000195FFF736FE3B
:103250000E9B0400002B20D00C9BC51A279BAB4271
:103260001BD91E0022005B46494620200135B84785
:103270000134AE42F6D810E0289B42460493279BC7
:1032800049460393269B0B98029353460092019361
:103290005B460C9A00F026F9040020001BB0F0BC3D
:1032A000BB46B246A946A046F0BDC046FFFFEF7F31
:1032B000FFFFEFFFFFF7FFFF734B099F9C4678006E
:1032C000400D604401F0E8FB704A714B01F06BFB6C
:1032D000704A714B01F040FB3B03704A1B0B1A43D1
:1032E00004000D00300011006D4B002201F02BFB9B
:1032F0006C4A6D4B01F057FB02000B0020002900C7
:1033000001F02AFB01F0E0FB0D9001F0C5FB674ADC
:10331000674B04000D0001F046FB0022654B01F0F5
:103320001BFB01F0D1FB644A0600644B200029001E
:1033300001F039FB040030000D000F9601F0ACFBEA
:103340005F4A604B01F02FFB02000B0020002900B8
:1033500001F0F9FA02000B0006000F0001F023FB58
:10336000320004000D003B003000390001F0F4FA97
:10337000002210901191544B2000290001F0F5FA21
:103380000022524B01F0E8FA02000B002000290055
:1033900001F0EBFA00224E4B01F0DEFA02000B00C6
:1033A0002000290001F0E1FA0D0080210400320024
:1033B0003B000020C90501F0C6FA02000B00200006
:1033C000290001F0C9FA02000B001098119901F0D0
:1033D000CCFA0022314B01F0BFFA3E4B0F9C9C46C9
:1033E00064440022230501F0DEFA05000E0002000D
:1033F0000B000A98099901F021FB00280AD00D9BC7
:103400002800013B31000D930022304B01F0ADFA52
:1034100005000E00C6270D992B0063318F42BF4176
:1034200028997F420437090500D495E6334300D13B
:1034300082E6099C284A2100284B0A9801F00CFBDF
:10344000002808D000222100254B0A9801F0F6FA46
:10345000002800D070E6269B002B00D17CE60E9B56
:103460005A1E9341269AD31A269375E60023042701
:103470000D9371E643460A9380231B065344099338
:1034800042E6002326935FE601FCFFFFFB799F5095
:103490001344D33FB3C8608B288AC63F0000F03F77
:1034A0000000F83F61436F63A787D23F71A379099A
:1034B0004F930A400000E03F1655B5BBB16B024088
:1034C000EF39FAFE422EE63F00002C400000244077
:1034D00000001840FF0300002D431CEBE2361A3FAA
:1034E00080842E41F0B54E46DE4657464546E0B54F
:1034F00097B09946209E219F229B8346984607912C
:103500000C923B0032003000390001F0B2FA002882
:1035100000D0A9E1012230003900CA4B524201F02B
:103520008DFA002800D0E1E0012230003900C64BBE
:10353000524201F099FA002800D0B7E00022300092
:103540003900C24B01F090FA002800D099E0002227
:1035500030003900BE4B01F071FA002800D090E035
:10356000002200233000390001F068FA002800D062
:10357000B1E000230D93249B5B0501D406239846FC
:1035800008AB9C461722002430234146624404E0E5
:10359000013413550139202C01D00929F8D8884667
:1035A0003000390001F090FA4346DA00A94B0500DB
:1035B0009B181A685B680892099301F06DFA020083
:1035C0000B003000390001F0BEF9089A099B01F0A8
:1035D000EAF90A900B9101F09BFA824601F058FA41
:1035E00002000B000A980B9901F0ADF900229A4BEA
:1035F0000A900B9101F038FA002800D1C0E00123B5
:103600009C46E244504601F043FA02000B00089841
:10361000099901F019FA002802D000239A460135D1
:103620004346002B6AD008AB17269C460895664493
:10363000554614E001235B4243440A2128009A4680
:1036400000F03AFF013430313719397028000A216F
:1036500000F032FF092D00D8D0E0D0460500202C24
:10366000E8D10EAB98460323249A1340012B00D1D6
:1036700096E02023249A01930392239A43460292D0
:103680001EE0249B58460493239B009601970393C6
:1036900043460C9A029307994B46FFF7FDFC17B07F
:1036A000F0BCBB46B246A946A046F0BD249B5B07D2
:1036B0000ED40322694B249901920391239902911C
:1036C000009358464B460C9A0799FFF7A9FBE6E78B
:1036D0000422634BEFE73B0032000020002101F0A1
:1036E00032F9012306000F000D9344E7249B039356
:1036F000239B0293042301935A4BE1E7280001F036
:10370000CBF902000B003000390001F01CF9524BDC
:10371000002206000F0001F091F90EAB9846002838
:103720000AD10022300039004B4B01F09DF90028EE
:1037300002D1EB0700D50135202C94D008AA94467D
:103740001723280063440A2101341E1900F08CFE5F
:103750003031280031700A2100F086FE051EEBD1C1
:103760000323249A1340012B1BD0202C00D180E787
:103770000D9B002B35D02D224146631C0A5579E75D
:1037800000220A980B99344B01F058F9002800D018
:1037900046E75346002B51D101239C46E2443FE7C4
:1037A0002024239B002BE0D00D9B002B03D1249AD7
:1037B0000C33134202D0239B013B2393239BA34250
:1037C000D3D908AB9C46172230236244202C00D169
:1037D0004FE72399013413558C42C6D0202CF8D1E1
:1037E00047E7249B5B0724D4249A2300120700D4C4
:1037F00040E72022414601330A553BE75746089DE2
:10380000202C00D12DE7220030214046002F09D086
:103810000132B154202A00D123E7D3431B191B18CE
:10382000002BF5D10EAB98462E234146541C8B54E9
:1038300082E72B224146631C0A551BE7DB0700D4B5
:10384000EEE6A9E7FFFFEFFFFFFFEF7F65CDCD417C
:1038500065CDCDC158AB01100000E03F60A901105B
:1038600064A9011070A90110249B0393239B029368
:1038700003230193004B23E76CA90110F0B5DE464A
:103880004E4657464546E0B59FB01C00289B9146E2
:103890000993C94AC94B8B4608901A60002900D188
:1038A00018E2002320789A46002800D11AE2260068
:1038B0001D005C460AE02A006F1C4B46089D210053
:1038C000A8473D0001363078002870D02528F2D175
:1038D00010239B46083B9A46043B9846023B002136
:1038E0009C46721C107816000300203BDBB2102BA4
:1038F00003D8B34F9B00FB589F460300303B092B76
:1039000032D900230A932A2868D0002398462E280B
:103910003ED00300683BDBB2122B1CD8A94A9B00A7
:10392000D3589F46012301321943DBE76346013236
:103930001943D7E7434601321943D3E75B460132C7
:103940001943CFE7534601321943CBE780235B008D
:103950007078194301360300253BDBB2532BAAD8FC
:10396000994A9B00D3589F4600270300B800C0190E
:1039700001364000C018337830381A00303A07005A
:10398000092AF3D90A901800002398462E28C0D19E
:1039900080237078DB0019430300303B721C092B35
:1039A00000D8A1E12A2800D1B2E11600B1E7A34670
:1039B000AA462C00D14503D801235B424B449A46CA
:1039C0004B46524659460020089DA84720001FB08C
:1039D000F0BCBB46B246A946A046F0BD099B40CB11
:1039E0000A96002E03DB50780993561C8DE7283881
:1039F000014370420A9009935078561C85E7782855
:103A000000D1DFE1582800D14CE26F2800D14FE30C
:103A1000622801D100F030FC10230A009A430B9277
:103A2000692801D000F0A9FC0A230C934B0500D5AE
:103A3000D0E10B9A802311009B0019408B461A425B
:103A400000D0A1E2802311005B0019408A461A428F
:103A500000D0B6E313005B0600D5EDE21300099930
:103A60001B0601D400F076FC08C91BB2D8171A183F
:103A7000424092B209919346DA0F1292002B09D17B
:103A8000802310220B99DB000B4091430B91002BFC
:103A900000D0E4E20B9A6123920600D541230EA9DF
:103AA0001F228C46DBB262440A3B5F461395A34655
:103AB00055460C9CB2460D9316000AE03033DBB23B
:103AC00001357355A74200D2EDE2202D00D1EAE284
:103AD00007002100380000F0EFFCCBB20929EDD936
:103AE0000D9A94466344DBB2EAE780239B0070782A
:103AF000194301362FE77078682800D1CDE1802383
:103B00000136194327E770786C2800D1BFE1802384
:103B10005B00194301361EE7462800D19BE10722CE
:103B2000099B0491073393430A9A19000392424672
:103B300002920CC908980092019309912A004B4601
:103B40002100FFF7CFFC01360500BCE62A006F1C00
:103B50004B46089D21002520A84701363D00B2E6CE
:103B60008B0700D4ADE1099B2A009A466B1C98464E
:103B7000534601CB21009A46089F4B46C0B2B84736
:103B80000A9B9C466544012B00D886E2089B474669
:103B9000B04626004C4699463A00230001373100D2
:103BA0002020C847AF42F7D1A146534634004646CD
:103BB0000993013687E6C0467D3800101099002031
:103BC00078A90110BCA9011008AA0110099B04CB17
:103BD0009B4643460992002B00D1C6E013789C46D1
:103BE000002B00D1BDE34346013B099A0133D018B5
:103BF0000A9F130001E0834203D05A780133002A60
:103C0000F9D1099A0A979B1A0B9380230A00DB00CB
:103C10001A400C92194204D00B9B434501D94346EC
:103C20000B9302231A000A400D920B4200D187E148
:103C30006046002800D168E10C9B002B00D10DE10B
:103C4000A844C246099B57465B1B9846089BB24650
:103C50002A0026004C46994609E023003100551CF5
:103C6000C8474346585D002800D126E12A00974204
:103C7000F3D1A1463D00340056460D9B002B00D0E9
:103C800043E15B46013609931DE6099B1A0008CA09
:103C90009246002B48D0212211438B460EA8844621
:103CA0001F216144099500220F27A4460D0002E060
:103CB000202A0CD00B003C001C4020003730092C7F
:103CC00000D807380132A85419090F2BF0D86446E0
:103CD000099D32E0DC4B2078089300239A460028A7
:103CE00000D0E4E5002465E6434606000A9F9800FC
:103CF000C0180132400080191678030030003038B7
:103D0000303B0928F3D93000984616000A9700E6A0
:103D1000099B023604CB9046D2434046D21710404E
:103D2000804609933078F4E5102208009043113260
:103D30001043834600224905B0D55B46069308230D
:103D4000059343460493102303930023029316AB79
:103D5000019200932A004B4621000898FFF7AEF825
:103D60005346050001360993ADE513789C46002BB8
:103D700000D1F7E202235B4237E7202302009A4397
:103D8000472A04D180231B01194302239843452865
:103D900001D1202319430722099B04910733934340
:103DA0000A9A19000392424602920CC9089800929E
:103DB000019309912A004B462100FFF76DF9013666
:103DC000050080E510230C930C230A009A430B9204
:103DD0004B0503D501230B9A9A430B92692800D116
:103DE00027E6642800D124E60B9A802311009B006B
:103DF00019408B461A4200D066E1802311005B0017
:103E000019408A461A4200D039E213005B0600D5F9
:103E10003CE113001B0600D4A6E2099B04CB12046C
:103E2000120C934609935B46002B00D09AE10B9A43
:103E30001033110099430B91520500D492E10023F5
:103E40009A460B9B06930A9B0593434604930C9B4F
:103E5000039300230CE12023194360E6099B0A9A8F
:103E60005B1B98464B4691461F00B2462600089CB5
:103E70002A003B003100A04743460135585D002829
:103E8000F6D14A463400B94656460A92F5E6C023B2
:103E90009B00B078194302365DE5C023B078194322
:103EA000023658E50C230A009A4314331A43103B98
:103EB0000B920C934B058DD496E7A14634005646E1
:103EC000DBE60A9A012A00D853E26B1E9F18089B72
:103ED000B04626004C4699462A00230001353100A1
:103EE0002020C847BD42F7D1A14634004646099B71
:103EF0003A0001CB210098467D1C4B46089FC0B27A
:103F0000B847434601360993DDE40B9B0A9AA8465D
:103F10009A4200D8B5E694466544ED1A089B474698
:103F2000B04626004C4699463A002300013731003E
:103F30002020C847AF42F7D1A14634004646A0E64C
:103F40000B9A0A99531C914200D814E24B199B1A00
:103F50001F00089BB24626004C4699462A002300C3
:103F6000013531002020C847BD42F7D10A9BA14648
:103F700001330B93099B34001B7856469C466046E0
:103F8000002800D058E67CE60722099B07339343BC
:103F9000013294469C4462465F6809921A68FB1796
:103FA0001093119310981199030053400E930B0036
:103FB0007B400F9394460E9A0F9B121A8B410E92E0
:103FC0000F93FB0F6246129300233A439B463DD06A
:103FD0000B9A6123920600D541230022DBB20EA981
:103FE0000A3B8C4692460D9343461F32624413951A
:103FF000159655460E9E0F9FA24690460C9C149314
:104000000CE03032D2B2434601355A55BB4500D19F
:104010008AE1202D00D18AE106000F002200002352
:104020003000390000F086FAD2B2092AE9D90D9B96
:104030009C466244D2B2E6E7FF23099904C91340C3
:104040001A00099117E5C0461D2E00100B9A103377
:10405000110099430B915205BAD500239A460B9B48
:1040600006930A9B0593434604930C9B0393129B70
:1040700002935346019316AB2A00009321004B464E
:104080000898FEF71BFF013605001CE4FF22099B80
:1040900002CB11408B460993C5E65346454609932A
:1040A0000136FFF710FC56465C46AA46139DD6E73C
:1040B00008230C930B910B99642800D084E60B9B8A
:1040C0005B0500D586E6B4E40722099B07339343DA
:1040D000013294469C44624609921A685B6810005B
:1040E0009B4613005A46134307D10B9A1033110015
:1040F00099430B91520500D5A1E60B9A61239206D4
:1041000000D541230022DBB20EA90A3B8C46924621
:104110000D9343461F3262445F461295A3465546AF
:104120000400B24690460C9E13930DE03032D2B29A
:10413000434601355A550023BB4200D100E1202DF2
:1041400000D100E104000F003200002320003900FC
:1041500000F0F0F9D2B2092AE8D90D9B9C466244DE
:10416000D2B2E5E70B9A6123920600D54123DBB278
:104170000EA90A3B1F228C460D93230062445C4625
:104180001295170055469B46B2460C9E08E0303308
:10419000DBB201357B55B4420ED3202D0CD0040088
:1041A0003100200000F088F9CBB20929EFD90D9A2F
:1041B00094466344DBB2ECE756465C46AA46129D41
:1041C0003FE6099B1A0008CAD91713925A184A40A9
:1041D0009246DA0F1292002B08D1802310220B99FD
:1041E000DB000B4091430B91002B2BD10B9A6123E9
:1041F000920600D541230EAA1F279446DBB20A3B44
:104200000D9567445D460993A3465446B2460C9EFD
:1042100008E03033DBB201357B55B4420ED3202D9C
:104220000CD004003100200000F046F9CBB209297F
:10423000EFD9099A94466344DBB2ECE756465C46F4
:10424000AB460D9D0B9B2A0006930A9B210005930C
:10425000434604930C9B08980393129B01360293E8
:104260005B46019316AB00934B46FEF727FE139B6C
:1042700005000993FFF727FB02230C931AE7099B1C
:1042800004CB92461293002A08D1802310220B9966
:10429000DB000B4091430B91002B2BD10B9A612338
:1042A000920600D541230EAA1F279446DBB20A3B93
:1042B0000D9567445D460993A3465446B2460C9E4D
:1042C00008E03033DBB201357B55B4420ED3202DEC
:1042D0000CD004003100200000F0EEF8CBB2092928
:1042E000EFD9099A94466344DBB2ECE756465C4644
:1042F000AB460D9D0B9B2A0006930A9B210005935C
:10430000434604930C9B08980393002302935B4657
:10431000019316AB00934B46FEF7D0FD129B0500B0
:1043200009930136FFF7CFFAB44200D871E6149B27
:1043300054460E960F97AA469846159E139D8EE6F4
:10434000A64200D8FBE6139B56469846AA465C4612
:10435000129D76E508C9D8171A1842400991FFF74F
:104360008AFB00230B9350E4099B04CB93460993EB
:1043700059E52F00BBE50B9301E6063B0C939AE64B
:104380000CB410B584B006AC08CC0A00009401004F
:1043900004480394FFF772FA04B010BC08BC02B0E2
:1043A0001847C046152E001000B583B000931300C7
:1043B0000A0001000248FFF761FA03B000BDC046E1
:1043C000152E001010B5094A0300146884B0002CA3
:1043D00008D0012200910648524203A9A0470120BB
:1043E00004B010BD01F0E2FC0020F9E710990020B4
:1043F0008930001001480421014B1847701000203B
:1044000025440010142310B50100188804331B88BC
:10441000984710BD162310B50100188802331B8879
:10442000984710BDF8B54746CE4680B50F1E19D047
:1044300014239946043304000025012698464B4670
:104440001888434621681B88984701C4431E984139
:10445000013540420640AF42F1D13000C0BCB94600
:10446000B046F8BD0126F8E7124A936F9B0815D2B3
:104470009066D166002905D0FFE7FFE7FFE7516F9F
:10448000106F704704B580210906C21751400028FB
:1044900000D0C84316F0BCF9002104BDF0B5146E7D
:1044A000556E576F166FFFF7E3FF14665566576733
:1044B0001667F0BD000000D0114A936F9B0813D21D
:1044C00010665166002905D0FFE7FFE7FFE7516F4F
:1044D000106F704704B5002801D00020C04316F0CB
:1044E00097F9002104BDC046F0B5146E556E576FA4
:1044F000166FFFF7E5FF1466556657671667F0BD40
:10450000000000D094464A4A926F9208624601D257
:1045100028E0C046F0B5464E346E756E776F366F44
:1045200000F020F89446424A1466556657671667AD
:104530006246F0BD94463E4A926F9208624601D2AE
:1045400054E0C046F0B53A4E346E756E776F366FF4
:1045500000F04CF89446364A14665566576716675D
:104560006246F0BD002B24DB11D000293EDA00B5F5
:10457000C943404200D1013100F038F8C9434042FC
:1045800000D10131DB43524200D1013300BD002A8A
:10459000EBD1002801D1002905D00020C90FC9079F
:1045A00001D1C043410800B516F012F900220023E2
:1045B00000BD00B500290ADBDB43524200D10133C4
:1045C00000F014F8C943404200D1013100BDC94395
:1045D000404200D10131DB43524200D1013300F0AF
:1045E00005F8DB43524200D1013300BD002923D13D
:1045F000002B18D1002A0CD0BC460D4F38667A66C5
:1046000000210023FFE7FFE7FFE77A6F386F674677
:104610007047002801D00748010000B516F0D8F80F
:104620000022002300BD02000B0000200021704783
:10463000000000D0FFFFFFFF002B00D0BFE0130CF5
:1046400028D1002AE7D080B4114F39667A66FFE797
:10465000FFE730B4040C7B6F396F1B0423433B66C8
:104660007A66FFE7FFE7FFE7C04684B27B6F3D6FE6
:104670001B0423433B667A66FFE7FFE7C04600233F
:104680002C042D0C7A6F386F00196941B0BC70474B
:10469000000000D0F0B594460025140E01D112029E
:1046A0000835140F01D112010435940F01D1920085
:1046B0000235D40F01D152000135D40B0134254FFE
:1046C0007C66254C3C660E0C93B2FFE7FFE7FFE7E4
:1046D0003C6F6643360C7703BE467343DF0B5B04C7
:1046E000C01AB941130C7343DB18C91ACE086643CC
:1046F000360CB64493B273431F0F1B01C01AB94165
:10470000130C73431F0B1B05C01AB941860D8F0292
:104710003E436643360C092D24DB520A7243801A4D
:104720007703460A6643360C16235B1BDE40DF40E8
:10473000BF1964466643821B704604350633010088
:10474000D940A840C01900D30131A24206D20023AB
:10475000F0BD0000000000D0FFFFFFFF121B013082
:10476000F3D3F1E709277F1BFE406446A2B27243F0
:10477000801A00D20139220C7243130C1204821ADF
:1047800099410B007046043513370100F940A840E9
:10479000801900D30131002B02D1A2420AD2F0BD10
:1047A000013000D30131121BFAD2013BF8D1A242F1
:1047B00000D2F0BD013000D30131121BF7E7F0B594
:1047C0001C0C00D080E00CB400251C0A04D11B0294
:1047D000160E3343120208351C0B04D11B01160FB1
:1047E0003343120104359C0B04D19B00960F3343D5
:1047F00092000235DC0B02D192185B4101351C009E
:10480000971864410134464F7C66464C3C660E0C5A
:10481000FFE7FFE7FFE7C0463C6F6643360C7703D0
:10482000BE4697B27743C01B00D20139C01B00D2ED
:1048300001399FB27743C91BC91B170C77437E040C
:10484000FF0B801BB941CE086643360C0C2D33DBC1
:10485000B644120B1F053A431B0B97B27743C01B9C
:1048600000D201399FB27743C91B170C77433E042E
:104870003F0C801BB941860D8F023E4366432927BA
:104880007F1BFE400C3D7746AF40BF1930BCA2B243
:10489000ABB272437343801A9941220C7243130CDA
:1048A0001204801A994102000B000137001BA94134
:1048B000F9D2781E0021F0BD0C277F1BFE40774601
:1048C0007F0BAF40FF19E0E700245D1C07D0144FB9
:1048D0007D663966FFE7FFE7FFE7FFE73C6F95B2CC
:1048E0009EB265436643401BB141150C1E0C6543E7
:1048F000664336042F0C3E432D04401BB1419942C0
:1049000004D202000B0020000021F0BD01D1904232
:10491000F7D3801A994101349942F2D3F6E70000A7
:10492000000000D0FFFFFFFF44464D4656465F465D
:10493000F0B47047F0BCA046A946B246BB467047EB
:1049400048404140484018B41B4B5B68FC4601930B
:1049500008BD04DF234F001018B4174B1B68FC463A
:10496000019308BD00DF2D4F00109446134A926F4B
:10497000920809D2624618B40F4BDB68FC460193DB
:1049800008BD0CDFE55100100C4AF0B5146E556EF1
:10499000576F166F6246FFF7EEFF084A14665566BA
:1049A00057671667F0BD18B4034B9B68FC4601932C
:1049B00008BD08DF8950001040880020000000D0AA
:1049C000FFB550404240504059404B40594000E0F4
:1049D000FFB5154F4C00640D03D0BC4204D10C034D
:1049E00014D80020090D09055C00640D03D0BC42F9
:1049F00004D11C030AD800221B0D1B0501264B40C5
:104A000009D44B4003D58B4200D18242FFBD99426D
:104A1000FCD19042FFBD0B43DB1803431343F5D099
:104A2000C9434918FFBD0000FF07000000B5FFF7AC
:104A3000CFFF01D0002000BD012000BD00B5FFF771
:104A4000C7FF804100BDC04600B5FFF7C1FF01D9D7
:104A5000002000BD012000BD00B5FFF7B1FF01D966
:104A6000002000BD012000BD00B5FFF7A9FF804177
:104A700000BD012040054A00121804D85A0012183F
:104A800001D80020704701207047002070470000C7
:104A90000021002805D17047C1174840401AFAD0BC
:104AA000C90713B5064B1B6898470CBC441CA240B1
:104AB0001005120B0349091B09051943114310BDC9
:104AC000BC9900201F04000010B54C00620D80232B
:104AD000D218DB00D21A5B057E2A10DD9E3A13DA6B
:104AE000CC170903490819435242D14064000134EC
:104AF0001532202A05DAD0400843604310BD00205B
:104B000010BD0846604310BDC80FC018013810BD65
:104B100018B4044B5B6AFC46019308BD24DF1954AA
:104B2000001000004088002018B4044B1B6EFC46A7
:104B3000019308BD60DFCB540010000040880020C6
:104B4000024A034B00B500F0CBF900BD182D4454C8
:104B5000FB2119408A0002D3920D092A08DA18B401
:104B6000064BDB6BFC46019308BD3CDFFF55001094
:104B700000B5FFF7E5FF04BC9646F0E7408800204B
:104B80008A0002D3920D092A08DA18B4064B1B6C6E
:104B9000FC46019308BD40DF0F56001000B5FFF73B
:104BA000CFFF04BC9646F0E740880020132370B581
:104BB0001D78012D15D010DD1C48FFF72BFC1C4C77
:104BC00001008022200001F011F8022D06D01948C2
:104BD000FFF718FC184B186070BD154C174BA364F9
:104BE000F5E7164B124C23606360A360E36023611A
:104BF0006361A361E36123626362A362E36223638F
:104C00006363A363E36323646364A364E36423656E
:104C10006365A365E36523666366A366E36623674E
:104C20006367A367E367A364D1E7C046534400000A
:104C3000408800204C330000BC990020F14E001049
:104C4000F0B557464E464546DE46E0B587B002927F
:104C50005A009A46530D9946109B4D0004006D0D65
:104C6000002B01D000221A609A4A95427DD04B4613
:104C7000002B7AD0002D00D182E027000E00914554
:104C800075D0013B0393AB4271DCCB0F0E0398460A
:104C9000330B9B4680235B039C465B466246134373
:104CA0001F005346060018036346000B0343029A95
:104CB0000193039B0092AB4200D1AAE04346002B34
:104CC00000D1B7E033003C0000275E42A7414B46CD
:104CD000ED1A002D00DCC0E00120019B40421911BB
:104CE000FFF7EAFB002398464B4603935346AB4637
:104CF000029004931BE032009A40150033005246A4
:104D000093401C004B464846D917009A019B00F07F
:104D1000FFFD4346524693404B4498465B4626006F
:104D20002F009B1A361A8F419B46002B2BDD5B46CA
:104D3000DA460C2B01DD0C239A46029ABB11534331
:104D400051461D22521A1341202201335B10524258
:104D500099468B18CFD5202332005B1ADA40130016
:104D60003A008A4015001D43C8E700275A4E380014
:104D7000310007B0F0BCBB46B246A946A046F0BD24
:104D800000270026F3E7039B9946049B9A46009B65
:104D9000019CBC4200DD83E000D17DE0009B019CD2
:104DA000F61AA741BC4200DD8BE000D185E0009BF4
:104DB000019CF61AA74102239C46E0443200009869
:104DC00001993B0092197B418B421ADC17D0009964
:104DD0008A425AD05346002B02DA43465B42984639
:104DE000109B002B01D042461A604B463B4A3000D4
:104DF0003900D21AFFF798FE07000E00B7E782428B
:104E0000E5D9009B019CF61AA74101239C46E0448A
:104E1000E0E7019B9F422FDD00980199434600186F
:104E20004941002B3FD1039B361A8F4199460123FC
:104E30009846CFE74B46ED1A002D00DD4CE7019B6D
:104E4000BB42BBDC009B019CBC4201D1B342B5D844
:104E5000009B019CF61AA74133E000239846009B73
:104E6000019CF6186741002F2FDAF61867410223DC
:104E70005B429C46E044A1E7009A019B9F4201D11E
:104E80009642C9D827000E0071E7019A9342A1D13A
:104E90004346DB079ED5B4E7009BB34200D87DE7CD
:104EA000002FDCDB8AE7039B801BB9419946012375
:104EB0005B4206000F0098468CE7009BB34200D887
:104EC00075E701239C46E04478E701235B429C465A
:104ED000E04473E7FF0700000000F07F33040000A8
:104EE00010B5002482B00094FFF7AAFE02B010BDF6
:104EF00007B5604601880A0A0230DF2AFAD1C9B232
:104F0000820804D3028840880004104300E000684F
:104F1000014A5050039007BD408800200FB403BCE5
:104F20000CBCF0B50124E407634000E0F0B50C0DC3
:104F3000CF0F661E3605891B640503D3C943404263
:104F400000D30131640D03D0661CF60A07D0E41BC0
:104F500000207F00791C89078912803C24031D0DE5
:104F6000DF0F6E1E36059B1B6D0503D3DB435242DC
:104F700000D301336D0D03D06E1CF60A07D0ED1B74
:104F800000227F007B1C9B079B12803D2D032F1B63
:104F9000661B58D4A446202E46DA20371400BC40A5
:104FA0001D00BD40F24033412A4380185941CB0FC8
:104FB00005D0C943C043002264425041514162467A
:104FC0004D0D28D10D0D07D100281FD024194041C7
:104FD0004941013A0D0DF9D0640006D3013000D3E8
:104FE0000131002C01D140084000013A0BD4941C3F
:104FF000E40A04D112051144DB071944F0BDD907B6
:10500000204B194300E0D9070020F0BD0029DDD175
:10501000002CDBD1F0BD0132C6074008CD07284384
:105020004908002EE1D0D9E73C2E29DA203E40374E
:105030001400BC4000D00124F24014431A00BB40CD
:105040001C43D317ACE7AC46202F08DA2036040007
:10505000B4400D00B540F84039412843A5E73C2F46
:105060000CDA203F40360400B44000D00124F84060
:1050700004430800B1400C43C117EAE710001900CF
:10508000002494E70000F07FF0B50C0D661E360595
:10509000891BE60A6405640D02D0651CED0A04D084
:1050A000002001210905803C2403A4461C0D671E35
:1050B0003F05DB1BE70A6405640D02D0651CED0AA1
:1050C00004D0002201231B05803C24037740644464
:1050D00097B484B296B27443070C7E43150C6F43A9
:1050E00080B26843361802D3012000043F18300410
:1050F000350C00197D41844688B29AB250430C0C9D
:1051000062431F0C7C438EB27E43921902D3012668
:105110003604A4191604170C3618674101BC81B275
:105120009AB25143040C62431B0C5C4380B2584357
:10513000121802D30120000424181004130C401884
:1051400063412D185E410020474106BC88B293B2EE
:1051500058430C0C6343120C544389B251435B18FF
:1051600002D301210904641819041A0C09186241B8
:105170006D1856410020474118BCF902720D1143C9
:10518000F0026A0D1043ED020A0D03D16D19404182
:105190004941013B124E9B1B7600B3420ED26D007B
:1051A00007D30130002671416646354301D14008DE
:1051B00040001B05C918E4072144F0BD0BDA013398
:1051C00006D1013004D101314F0D01D04908F2E779
:1051D000E1070020F0BD013631050020EBE70000BB
:1051E000FF030000F0B51C0D671E3F05DB1BE70A3F
:1051F0006405640D02D0661CF60A04D00022012367
:105200001B05803C2403D0252D060026F6432E6680
:105210001E096E66CE0FF619B44649004F0D02D036
:105220007E1CF60A03D000200021403F3F033E1BB6
:10523000B600B444013F7F05C91B49082E6F0136F3
:1052400076089C02950D25437543ED137543AD1308
:1052500001356D10F603761B0CB4CC02450D2C43C2
:10526000A2B2B3B25A43270C7B43350C6F43A4B2AE
:105270006C431B1902D3012424043F191C041D0C88
:10528000A4187D4124196D41009A91B2ACB26143DA
:10529000170C7C432B0C5F4392B25A43A41802D3E1
:1052A00001221204BF182204230C52187B41019CD6
:1052B0006C431B19520ED9010A434401A01A81B252
:1052C000B2B2514303145A43360C734387B2774347
:1052D000D617D21900277E4136049B191704160CE5
:1052E0007F185E417316ED18F30100268033754177
:1052F000A90F06D16400690AE8055B0A184309D2C0
:105300002FE00422944480337541A90AA8059B0A22
:10531000184326D3404149412404009A019B0D00C3
:105320005543641B4343E41A95B286B27543170C88
:105330007E43030C5F4392B25A43B61802D3012254
:105340001204BF183204330C52197B4152429C4163
:10535000002C02D40022013051414008CA071043FA
:10536000490802B06246D7079210084BD218084B82
:105370009A4203D212058918C919F0BD0020002AEB
:1053800001DC3900F0BD01331905F5E7FD0300002C
:10539000FE070000624618CA94465A46002A20DBDF
:1053A00004E0624618CA944600291ADAC01861411E
:1053B0005B463B415C46B4405246FA402243444679
:1053C0004D4662416B41904699462B46B3403D4164
:1053D000FC401C4352465B46A241AB4192469B4671
:1053E0007047C01AA1414B463B414C46B44042462F
:1053F000FA40224354465D4662416B4192469B46C9
:105400002B46B3403D41FC401C4342464B46A24123
:10541000AB41904699467047002200B5203200F01B
:1054200010F8080000BD002200B500F00CF8CA1703
:105430009A4200D100BDD8430121C907414000BDB7
:1054400000220B150AD410B5944600F079F8141414
:10545000013400DA0021CB17144C20470020002132
:1054600070476244343A0CD40C2A07DA04009140A5
:10547000904052422032D440214310BDD843D943FA
:1054800010BD203207D40C469440524220321141C4
:10549000D040204310BD0800C917203203D4524227
:1054A0002032104110BD1800190010BD63540010C7
:1054B00000210A00002104E000210A00C11704E0D5
:1054C0000022002306E0C0460022CB175840594076
:1054D000C01A994130B5184CA21A002903D1010015
:1054E00010D00020203A4C1512D104D2013A0018F5
:1054F00049414C0DFAD3114CA24204D2120589182D
:10550000DB07C91830BDD243520D00200021F5E75A
:1055100003D4013A00184941FBD50B324405C00AB7
:105520004D052843C90A640003D00024604161414D
:10553000E1E7E0D34408F8E732040000FE0700008A
:105540000A0DCC0F531E1B05C91A520503D3C943BC
:10555000404200D30131520D03D0531CDB0A07D067
:10556000121B00206400611C89078912803A120313
:10557000014BD21A70470000FF030000023225D40D
:105580000C2A1CDA1125AD1A0B002B410832073505
:105590000600EE40904091403143F0CC63431A1531
:1055A00000235A41554356435743BF02F412760530
:1055B00076196741ED177F19801BB94170470C229E
:1055C0000020C917490001310905DBE70902030E74
:1055D000194300025342203208D40C001941944070
:1055E000D840204300225041514170470800C9175C
:1055F000203B2032F1D50020002100227047F0B579
:10560000FFF792F900F00EF800F030F806E0F0B580
:10561000FFF78AF900F006F800F046F8FFF78AF97C
:10562000F0BD000000B5FFF78BFF30A4FFF7A6FF29
:1056300000242C4D2C4ED20702D3F6436D42664116
:10564000520004D2A246A346A846B14603E0A046B3
:10565000A146AA46B3466EA4A44601271F26FFF71B
:10566000A0FE0137013E212FF9D100BD594684B279
:105670008DB26C43061475430B145E4382B25A43D9
:10568000AD18EA1700D7D2431204B6182A042B0C1F
:1056900012197341404649469D009B17920F2A43B9
:1056A000904199413E2210E7494684B28DB26C4345
:1056B000061475430B145E4382B25A43AD18EA17C1
:1056C00000D7D2431204B6182A042B0C12197341C6
:1056D000504659469D009B17920F2A43504159410D
:1056E0003E22F2E6BB4DF09DC556F6367D510000D8
:1056F0001A61140085880A00FB211900F0B5FFF734
:1057000013F9404D0C002C4001D0AC4202D1090DE0
:10571000090500201C002C4001D0AC4202D11B0D19
:105720001B0500220026ED02002B04D502266B404B
:10573000694000D476424F1904D599420CDD0136F8
:10574000694003E0BB4207DA013E6B4007001000EE
:105750003A000F0019003B0040B4002A0FD1002B83
:105760000AD05C006415013409D14C006415013481
:1057700002D10139013B02E0002000212EE0FFF7B9
:1057800031FD3E22FFF750FE82468B46002000216D
:1057900080460122920791461DA4A44601271F2698
:1057A000FFF7F8FD0137013E212FF9D14A46534654
:1057B0000C3A01246407002752081B0005D49341CA
:1057C000001979416408F7D104E05341001BB94145
:1057D0006408F1D1CE0749104008304340BC002E88
:1057E0000AD0094C094D01D5E443ED43F60701D138
:1057F00000196941001969413D22FFF766FEFFF774
:1058000099F8F0BD0000F07F8D305A88A8F6433239
:10581000694FBB610567AC1DB16E4096FCBAAD0F18
:1058200072DB0BABA66EF50739BD9FE576ABFE03C9
:105830004B6297BA5BD5FF01D694DBDDAAFAFF0075
:105840005DEAEE5655FF7F006E77B7AAEAFF3F008C
:10585000BCBB5555FDFF1F00DEADAAAAFFFF0F0020
:105860006F5555F5FFFF0700ABAAAAFEFFFF030027
:105870005555D5FFFFFF0100ABAAFAFFFFFF00005F
:105880005555FFFFFF7F0000ABEAFFFFFF3F000021
:1058900055FDFFFFFF1F0000ABFFFFFFFF0F0000E4
:1058A000F5FFFFFFFF070000FFFFFFFFFF03000002
:1058B00000000000000200000000000000010000E5
:1058C0000000000080000000000000004000000018
:1058D0000000000020000000000000001000000098
:1058E00000000000080000000000000004000000AC
:1058F00000000000020000000000000001000000A5
:1059000000000080000000000000004000000000D7
:1059100051434343C9188C46110C83B24B4310B416
:10592000040C614392B280B2504362431C041B0CCE
:10593000001910BC59411304120CC01851416144A4
:10594000704700004840414048400E4B5B68184794
:105950000C4B1B6818470C4A936F9B0802D2094BEB
:10596000DB681847F0B5146E556E576F166FFFF76A
:10597000F6FF054A1466556657671667F0BD014B7A
:105980009B68184740890020000000D0491A002871
:1059900008D1084670470000C10FC90700D5404232
:1059A000002817D0F44603B40B4B1B68984706BC7D
:1059B00081409E384042803107D20B0607D0490013
:1059C000490AC0051043084360470130F8E7490A17
:1059D0008902F5E770470000BC99002041000A0EDB
:1059E00080231B067E2A0BDD9E3A0BDAC11740028C
:1059F000400818435242D0404900013148437047A3
:105A000000207047C00FC01801387047C0420DD346
:105A100000B540004008002100F012F8002801D431
:105A2000404200BD8020000600BD0000034BDB6942
:105A3000FC4618471CDFDD5A00100000408900209A
:105A4000014B5B6A1847000040890020132310B502
:105A500012481C78FEF7DEFC0100012C0AD003DDA1
:105A600080220F4800F0C2F80E48FEF7CBFC0E4B28
:105A7000186010BD0A4C5422200000F0B7F80B4B00
:105A80006365A365E36523666366A366E3662367D0
:105A90006367A367E3672362E361E5E753460000BA
:105AA000408900204C330000BC990020B15A0010FE
:105AB00007B5604601880A0A0230DF2AFAD1C9B266
:105AC000820804D3028840880004104300E0006884
:105AD000014A5050039007BD408900200021C215A3
