:020000041000EA
:1000000000B5324B212058609868022188439860DF
:10001000D860186158612E4B002199600221596106
:100020000121F02299502B49196001219960352056
:1000300000F044F80222904214D00621196600F024
:1000400034F8196E01211966002018661A6600F04E
:100050002CF8196E196E196E052000F02FF8012189
:100060000842F9D1002199601B49196000215960AB
:100070001A491B48016001219960EB211966A021F2
:10008000196600F012F800219960164914480160C1
:100090000121996001BC002800D000471248134993
:1000A000086003C880F30888084703B5996A0420EC
:1000B0000142FBD001200142F8D103BD02B5186610
:1000C0001866FFF7F2FF186E186E02BD00000240BE
:1000D000000000180000070000035F00212200005C
:1000E000F4000018222000A00001001008ED00E03C
:1000F00000000000000000000000000074B24E7A12
:1001000000200420F7010010C3010010C5010010F9
:10011000C1010010C1010010C1010010C101001097
:10012000C1010010C1010010C1010010C701001081
:10013000C1010010C1010010C9010010CB01001065
:10014000CD010010CD010010CD010010CD01001037
:10015000CD010010CD010010CD010010CD01001027
:10016000CD010010CD010010CD010010CD01001017
:10017000CD010010CD010010CD010010CD01001007
:10018000CD010010CD010010CD010010CD010010F7
:10019000CD010010CD010010CD010010CD010010E7
:1001A000CD010010CD010010CD010010CD010010D7
:1001B000CD010010CD010010CD010010CD010010C7
:1001C00000BE00BE00BE00BE00BE00BEEFF3058054
:1001D000103800BEF2EB8871902F0210B82F021079
:1001E0003402001090A31AE700201F49086006C8D7
:1001F00081F3088810471D48006800282FD10DA4FE
:100200000ECC002902D000F012F8F9E71849194A7B
:10021000002000E001C19142FCD1174988471749ED
:1002200088471749884700BEFDE701C901C29A42C5
:10023000FBD37047B82F0210C0000020E048002018
:10024000D87702100000042000000420D8770210A4
:10025000001004200010042000000000704709482E
:1002600004F0C6FB0047000008ED00E0000000D0ED
:10027000E048002064AA022021370010810300100A
:10028000DF3600105756000006005250ABB36053E3
:10029000F8FF011006005250861C030208000210ED
:1002A000060052505422A29D180002100500525020
:1002B000DE65F468D8770210F8B5C0460448054BEF
:1002C00010B5834203D0044B002B00D0984710BDDB
:1002D000E0480020E04800200000000006480749F0
:1002E000091A8B10C90FC91810B5491003D0044B57
:1002F000002B00D0984710BDE0480020E0480020C7
:100300000000000010B5074C2378002B09D1FFF73F
:10031000D5FF054B002B02D0044800E000BF0123AD
:10032000237010BDC08F00200000000028EC0110D9
:10033000054B10B5002B03D00449054800E000BF71
:10034000FFF7CCFF10BDC04600000000C48F0020A6
:1003500028EC011000B585B0FA2203AB019301230C
:100360000093002352000449044809F007FD09F0F6
:1003700099FD05B000BDC04628EC0110BD0300107A
:1003800010B505F009FE094805F00EFEFA20C00080
:1003900002F0A0FA064805F0C3FD0649064805F03C
:1003A000EFFDFFF7D7FF002010BDC046D01B002097
:1003B00034EC011038EC011044EC011010B51C4C69
:1003C000A5441921FEA800F0DDFB01221949FEA871
:1003D00000F0DCFD0823009302330B220C21E4A87B
:1003E00000F07EFC01221449E4A800F0CFFD02A831
:1003F00000F0A8FAE4A902A800F0CAFA01220F4905
:1004000002A800F0C3FD00F04BFE040009A901F0B2
:1004100023F80321200000F0ABFE23689B68032231
:10042000074920009847074809F0FEFEFBE7C04651
:10043000E8FBFFFF5CEC011064EC01106CEC0110B8
:1004400074EC0110102700008020C000704710B528
:10045000006A002804D003689B6A9847023010BDE8
:100460000220FCE708B4024B9C461C3808BC6047DD
:100470004F04001010B5006A002804D00368DB6A3E
:100480009847013010BD0120FCE7000008B4024B82
:100490009C461C3808BC60477504001010B5040069
:1004A000064B1A00083202604833C3611C3000F06A
:1004B000E3FF200000F0A2FD200010BD50EE01106F
:1004C00008B4024B9C461C3808BC60479D040010D1
:1004D00010B50400FFF7E2FFE2218900200005F0DB
:1004E00087FB200010BD000008B4024B9C461C385E
:1004F00008BC6047D104001070B504000D00006A0C
:10050000002802D003681B6A98470CF09FF802008D
:1005100020007430074B29000EF0B6F90AF0C8FB32
:100520000200D0239B00E018034B29000EF0E0F9F5
:1005300070BDC0467CEC01108CEC011008B4024B7D
:100540009C461C3808BC6047F904001070B50400D4
:100550000D00006A002802D003685B6A9847D02328
:100560009B00E01829000CF01BFF70BD08B4024B83
:100570009C461C3808BC60474D05001070B582B021
:1005800004000E00006A002802D003681B6B984725
:10059000D1239B00E51820001C300022290000F028
:1005A0007AFFD4239B00E218103BE118002301934B
:1005B0000095034B30000DF00FFE02B070BDC04639
:1005C0008514001008B4024B9C461C3808BC6047D8
:1005D0007D050010F0B5DE4657464E464546E0B56F
:1005E00095B007000E00036A002B04D0D1239B00B6
:1005F000C318934206D015B0F0BCBB46B246A9461C
:10060000A046F0BD8B6ACC6A009301940A684B68DF
:10061000BB4805F0B5FC02F011FA00294CDB51D0C3
:10062000FA229200002304F075FAE0239B00F850B0
:1006300034687568002200232000290004F0DAFCE9
:10064000002807D000220023B06AF16A04F0D2FC2F
:1006500000283CD1B36A0993F26A92460022002333
:100660000998514604F0C6FC002844D02000290017
:1006700004F03EFD041C002105F002F9002834D1ED
:10068000012501236B40DBB2221C0021386A00F0F7
:1006900061FB386A2B00221C012100F05BFB7768AC
:1006A0003668201C05F058F90090019132003B009B
:1006B000944805F065FC9EE7934B944A3F2194488B
:1006C00003F010F8FA21890004F0E6F9ADE7002400
:1006D0000123221C0021386A00F03CFB386A002309
:1006E000221C012100F036FB85E780231B069C4677
:1006F00064440025C5E701236946282289180B7048
:10070000002200232000290004F092FC002804D1DC
:100710000023694628228A1813706B4628229B18EA
:100720001B789B4653465B000998590804F0E0FC8F
:1007300005F012F9774A784B04F0FBFB04F0D8FC83
:1007400005F00AF90A900B9102000B002000290025
:1007500004F0EFFB04F0CCFC05F0FEF80E900F91D6
:100760006C4A6D4B04F0E5FB04F0C2FC05F0F4F8B4
:100770006A4A6B4B0C900D9104F0D2FB654A664BB4
:1007800004F0F5FB02000B000A980B9904F0EFFB54
:1007900004F0AEFC8146614A614B0C980D9904F05F
:1007A000B6FB5C4A5C4B04F0E2FB02000B000A98CB
:1007B0000B9904F0DCFB04F09BFC8046484605F0F6
:1007C000CBF810901191574A574B04F0B2FB514AA5
:1007D000514B04F0CCFB04F08BFC8146404605F005
:1007E000BBF8129013914F4A4F4B04F0A2FB494AB9
:1007F000494B04F0BCFB04F07BFC80460022002344
:100800002000290004F014FC002851D0002200230D
:100810000998514604F00CFC002839D001235A46AF
:100820005340DBB242460021386A00F093FA386A3E
:100830005B464A46012100F08DFA346875684046EF
:1008400005F08AF804900591484605F085F8029075
:100850000391B26AF36A0092019322002B0033489D
:1008600005F08EFB129B139C06930794109B119C22
:10087000049305940A9B0B9C029303940E9B0F9C7C
:10088000009301940C9A0D9B294805F079FBB2E680
:10089000012359464B40DBB24A460021386A00F03A
:1008A00059FA386A5B464246012100F053FAC4E720
:1008B000002200230998514604F0BAFB00280FD00B
:1008C0005B464A460021386A00F044FA386A012340
:1008D0005A465A40D3B24246012100F03BFAACE7F7
:1008E0005B4642460021386A00F034FA386A012338
:1008F0005A465A40D3B24A46012100F02BFA9CE7EF
:1009000098EC011058ED0110B4EC0110D0EC01107E
:1009100008ED0110182D4454FB211940B81E85EB39
:1009200051B8AE3FA5F279F69B5DCF3F84ED011043
:10093000C8ED011008B4024B9C461C3808BC604747
:10094000D505001010B5040000F050FB20001C304D
:1009500000F08CFD0D4B1A00083222604833E36131
:10096000002323622367E0229200A3500022002389
:10097000A262E36222636363A263E363226463644B
:10098000A264E36422656365200010BD50EE01108F
:100990000162704710B5040078300BF0EDFD2000C7
:1009A0008030244910F06AF900283BD020008C30B8
:1009B000214910F063F9002838D021009831002235
:1009C00000230A604B6008310A604B6008310A60FE
:1009D0004B6008310A604B6008310A604B60083197
:1009E0000A604B6008310A604B602931FF310A60B0
:1009F0004B6008310A604B608021890061180A60F1
:100A00004B608221890061180A604B608421890053
:100A100061180A604B60862189008C46644422601C
:100A2000636010BD054805F07BFABFE7034805F099
:100A300077FAC2E714EE011044EE01101CEE01102B
:100A400070B5040001F0FAFF002918DB1DD0FA226E
:100A50009200002304F05EF8E0239B00E050206A3F
:100A600000280BD0002501232A1C002100F072F978
:100A7000206A00232A1C012100F06CF970BD054B8F
:100A8000054A3F21054802F02DFEFA21890004F0B5
:100A900003F8E1E7B4EC0110D0EC011008ED01100F
:100AA00010B50400FFF776FF0EE0134B134A3F2109
:100AB000134802F017FEFA21890003F0EDFF10E061
:100AC000FA20400009F0B0FB236A002BF8D001F0B7
:100AD000B5FF0029E9DBEED0FA229200002304F0F2
:100AE00019F8E0239B00E358C01A064B9842E7D957
:100AF0002000FFF7A5FFE3E7B4EC0110D0EC0110F4
:100B000008ED0110DC0500009620704710B50400C8
:100B1000044B0833036000F026FA200000F06EFA60
:100B2000200010BDCCEE011010B50400FFF7EEFF61
:100B30002021200005F05CF8200010BDF8B507006A
:100B40000F4805F0EDF9387F00F040FD3A7F0123B2
:100B50009340D022120653623B7F012422009A4028
:100B6000D02636067261FA256D00280009F05CFB7C
:100B70003B7F9C40B461280009F056FBECE7C0467F
:100B8000BCEE011070B504000D0000F02FFA044B0C
:100B900008332360002323772577200070BDC046EB
:100BA000CCEE01108020C0007047704708B4024BA3
:100BB0009C461C3808BC6047AB0B00107047000017
:100BC00008B4024B9C461C3808BC6047BD0B0010A3
:100BD0000020704708B4024B9C461C3808BC604794
:100BE000D10B00100120704708B4024B9C461C3802
:100BF00008BC6047E50B00107047000008B4024BCA
:100C00009C461C3808BC6047F90B00107047000078
:100C100008B4024B9C461C3808BC60470D0C001001
:100C200070B50400124B1A00083202601A004832F4
:100C3000C26174330362002500E00135012D09D83B
:100C40002B0018339B0018590028F6D003685B6806
:100C50009847F2E72000203000F0A6F820001C3072
:100C600000F00AFC200000F0C9F9200070BDC04669
:100C7000F4EE011008B4024B9C461C3808BC6047D7
:100C8000210C001008B4024B9C46203808BC604779
:100C9000210C001010B50400FFF7C2FF68212000EE
:100CA00004F0A6FF200010BD08B4024B9C4620387B
:100CB00008BC6047950C001008B4024B9C461C38D9
:100CC00008BC6047950C001010B5040020002030CF
:100CD0000122616D00F0E4F8C82009F0A5FAF5E7FB
:100CE000F0B5C64600B582B00400884616001F0065
:100CF00008AB1D7800F07AF920001C3000F0B6FB3C
:100D00002000203000953B003200414600F05CF8A6
:100D10000E4B1A00083222601A004832E261743326
:100D200023620B4B636558230122E254002305E044
:100D30001A0018329200002111510133012BF7D90A
:100D4000200002B080BCB846F0BDC046F4EE0110F1
:100D5000CDCCCC3DC16542657047000030B542083E
:100D600007231A4001242500054093009B189B008F
:100D70000A4A9446634404420CD010229140002D4C
:100D80000AD0074A1868414011408022520113439B
:100D9000196030BD2A00F1E7024AF3E70C00054074
:100DA0000000FFFFFFFF0000014B083303607047A6
:100DB00078EF011010B50400FFF7F6FF3421200092
:100DC00004F016FF200010BDF8B50400180006ABB3
:100DD0001E782D4B08332360FF2363720023E360EA
:100DE000002525616561A561A38323625B25A58438
:100DF0000027353D675501356755244D2F68A7629B
:100E00006D68E5622363E0716171A271267200F082
:100E1000DDFBE079042100F0C1FBE1794A080723FA
:100E20001A4093009B189B00194A94466344CA07D2
:100E300027D518491A6811408022520113431960BE
:100E4000E1794908072319408B005B189B00124980
:100E50008C466344196801252800884313431860B1
:100E6000607900F0B3FB63792A009A40D0263606F9
:100E70007262A07900F0AAFBA3799D407562200000
:100E8000F8BD0649D6E7C04678EF011070EF0110B3
:100E90000C0005400000FFFF00000540FFFF0000C0
:100EA00070B504000D1C160001610021281C04F01F
:100EB000DFFC00281AD00023636100232363E1795B
:100EC0004A0807331A4093009B189B001D4A94461A
:100ED0006344CA0708D51C491A6811408022520190
:100EE00013431960002070BD1849F5E7FE218905FC
:100EF000281C04F0CBFC002802D0FE239B052361B4
:100F00001349206904F083FC04F0ECFC0100E07953
:100F100089B2FFF723FF002E09D0A279012319001F
:100F20009140D0221206516161798B409361A27980
:100F3000012319009140D0221206916161798B4002
:100F40005361F4E70C0005400000FFFFFFFF0000C5
:100F500000FF7F474068704710B5002802D0036843
:100F60009B69984710BD10B504004068002803D065
:100F700008F038FF0023636010BD10B540680028FA
:100F800002D009F0BDFB10BD0020FCE770B582B0B7
:100F900004000D00160008001CF0BCFA13281CD930
:100FA000200008301422290004F018FE0023E37604
:100FB000250008352368DB69200098470200231DBF
:100FC0000193009623002900074808F0D7FE013856
:100FD00043425841C0B202B070BD20000830290021
:100FE0001CF090FAE4E7C046590F0010024B08339A
:100FF000036000234360704788EF011010B50400C0
:10100000034B08330360FFF7AEFF200010BDC0465E
:1010100088EF01108020C0007047000010B5040068
:10102000074B0833036088235B00C058002801D0B9
:1010300008F0D0FC2000FFF7E1FF200010BDC04603
:1010400088F0011010B50400FFF7E8FF8C2149007B
:10105000200004F0CDFD200010BD000070B504009C
:10106000FFF7C4FF0C4B0833236000238422520097
:10107000A3540432A35088256D006351002210212F
:101080000A2008F0C3FA6051002801D0200070BD8A
:10109000024804F045FFF9E788F00110B0EF0110B5
:1010A00010B5084B1B68002B02D0064B186810BD0A
:1010B0008C20400004F098FD0400FFF7CFFF014BA7
:1010C0001C60F2E72490002000B589B003A80DF061
:1010D00083FC0F4B03930F4B04930F4B05930F4B64
:1010E000069303A80DF082FC00280BD00C4B019353
:1010F0000C4B00930C4B0D4A002101200EF046F8DA
:1011000009B000BD87210A4804F03AFFF8E7C0465D
:10111000551500105D1500106515001081150010A3
:10112000FD140010E5140010E1140010D914001093
:10113000D8EF011010B50400012164200EF040F832
:1011400000280AD184235B00E25C083BFF3B93400C
:10115000D02212065361012010BD84235B00E25CA3
:10116000083BFF3B9340D022120693610020F3E737
:1011700070B50400080084256D00615500F026FA62
:10118000625D012319009140D02212065162615D17
:101190008B40936170BD0000F0B5C64600B58CB0C1
:1011A000050002AC20000DF03DFC2B00303307CCD5
:1011B00007C306CC06C32C0044342F0030373B0055
:1011C0000022002120000DF0B1FA2E002836230065
:1011D0003A4A3B4930000DF01DFB0FF0D9FD0200EB
:1011E00028001C30374B31000DF04EFB242398466D
:1011F000A844354B0093354A0023210040460DF0AA
:10120000ABFB86235B00E858002848D003689B6846
:1012100022003100984786246400285903685B69DE
:101220009847461C285903681B699847811C284821
:1012300004F0A6FE2C007834290044313B00320033
:1012400020000CF039FF414620000DF005F8862300
:101250005B00E858002803D003689B692100984789
:101260001C480FF0A1F800281CD188235B00EB5824
:10127000002B1BD00124012C18D188235B00E858D7
:10128000002208A908F0A8FA04000128F3D10A985E
:101290000368DE690B9A09990223B047EBE7022144
:1012A0000126C4E70C4804F03BFEDEE70B4804F0DF
:1012B00037FE0CB080BCB846F0BDC046841C02109E
:1012C00000F001100CF001104D14001000CA9A3B00
:1012D00018F001108813000030F0011048F00110E0
:1012E00070B5040044300BF0CFFA00210FF072F813
:1012F0002500283520001C3029000BF0E3FE2000DB
:1013000024300CF06DFA86235B00E058002805D0ED
:101310000368DB68220044322900984720007830B7
:101320000CF02CFF28000BF063FD200044300DF082
:1013300047FA024804F0F4FD70BDC0465CF00110AD
:10134000F0B58BB00500FFF7BFFE6C4620000DF036
:1013500069FB2B00303307CC07C306CC06C3002340
:101360002B62002415E0032C11D12800FFF7B8FFF1
:1013700007F014FC2800FFF7DDFE002852D00124FE
:1013800005E02800FFF7D6FE00280FD1032407F060
:1013900005FC022CF5D0E6D8002CEBD0012CF6D1C0
:1013A0002800FFF7F9FE07F0F9FBEAE7280078309C
:1013B0001E4A00230DF082F988235B00EB58002BB6
:1013C00001D10224E3E701240026012C2CD188233B
:1013D0005B00E858002206A908F0FEF90400012885
:1013E000F3D10022079906980BF0DAFE00280BD102
:1013F00008980368DF69099A07990023B8470136FE
:10140000052EE2D90224C2E70100094804F0B8FD24
:1014100008980368DC69099A07990123A04707F037
:10142000BDFBA2E70024B2E70224B0E78096980053
:1014300070F0011010B504001C3021002031002292
:101440000BF0AEFE236A0133236210BD10B5FFF727
:1014500027FEFFF7EFFF10BD86235B00C1507047EA
:10146000704700207047704770470000014B0833F9
:1014700003607047B0F00110014B08330360704700
:10148000B0F0011010B503000A00086801680C6A8A
:101490001900A04710BD08604A60704770B50C0085
:1014A00001F0CCFA06000D000A4A002303F032FBDB
:1014B00020606160074A00233000290003F02AFB06
:1014C000100053019B1A9A001218D200A26000204B
:1014D00070BDC04640420F0010B505F039F810BD90
:1014E0000120704710B508001400034B1B68110061
:1014F0009847200010BDC046E81B0020F0B5C64646
:1015000000B5884617001D0001F098FA2A00EB1775
:101510008018594104000D0001E007F03FFB01F085
:101520008DFA8D420AD90A4B9B683900404698478C
:10153000061EF2D0012008F077FE04E08D4201D1B2
:101540008442F0D80026300080BCB846F0BDC046CA
:10155000E81B002010B507F08BF910BD10B507F09F
:101560000FFA10BD10B50C00002805D007F008FADE
:10157000200007F07DF910BD080007F079F9FAE7BF
:1015800070B541430D00080007F072F904002A000D
:10159000002104F01DFB200070BD000010B5830089
:1015A000084A944663441C6840226240C0241440A8
:1015B0008022520113431C60C000034B9C466044D0
:1015C000416010BD04C001400040014010B501233E
:1015D0008340D0221206936293610521FFF7DEFF5C
:1015E00010BD0000034B1B6802201840431E9841A9
:1015F000C0B2704700C00640EFF3108072B6034BD4
:101600001B68002BFBD0BFF35F8F70472C0100D00D
:10161000BFF35F8F024B00221A6080F3108870477F
:101620002C0100D0F8B506000C001500FFF7E4FF10
:10163000E308F718F15C07222240012393400B4294
:1016400005D1DBB20B433B70FFF7E2FFF8BD210091
:10165000280002F0E1F8F0B583B006000191140013
:101660001F00FFF7C9FF00E00134BC420CD8E308BB
:10167000F518F35C0721214001228A401A42F3D178
:10168000D2B21A432A7001E001246442FFF7C0FF7E
:10169000002C02DB200003B0F0BD019B002BF9D031
:1016A000089802F0B9F80000002307E0054A9A18EC
:1016B0009200BFF35F8F0021116001331F2BF5D91A
:1016C0007047C04640000034054A1078431CDBB226
:1016D0001370172B02D9130010221A707047C046DE
:1016E000381B002000B583B00100044B00931F237A
:1016F00018220348FFF7AFFF03B000BDDCF0011074
:10170000B8950020074B9B68103080001950BFF33C
:101710005F8FBFF35F8F044B0021196082F3108845
:101720007047C04600ED00E0240100D010B5091A52
:10173000081F0A4B9C466144094A914208D8C307D6
:1017400006D440104005400D064B184380B210BD32
:10175000054B064AA321064801F0C4FFFC07000020
:10176000FE0F000000E0FFFFF8F0011070F3011021
:1017700028F1011010B5091A04394C08090B08D1D9
:101780004905490D064A11430180064B2343438016
:1017900010BD054B054AAB21054801F0A3FFC0462B
:1017A00000F0FFFF00F8FFFF70F1011044F301109B
:1017B00028F1011001238340034A10681840431E9A
:1017C0009841C0B27047C04600E100E0002904D053
:1017D000034B1860034B18607047034B1860FBE71E
:1017E00080E200E000E100E080E100E010B50123CC
:1017F00083401800FFF7EAFF10BD0000012383407B
:10180000014A13607047C04600E200E0024B9B684B
:1018100010308000C058704700ED00E010B5FFF7B1
:10182000F5FF002805D0054BC01A2F2803D801204A
:1018300010BD0020FCE70020FAE7C0463C1B00205A
:1018400070B504000D00EFF3108672B60C4B1B68E8
:10185000002BFBD0BFF35F8F2000FFF7D7FF094BB2
:10186000984201D0A84205D1320029002000FFF79C
:1018700049FF70BD044B054A8621054801F032FF3F
:10188000240100D0CD01001080F10110A4F301105B
:1018900028F10110F0B5DE4657464E464546E0B504
:1018A00089B0814601911500EFF3108A72B6744B2E
:1018B0001B68002BFBD0BFF35F8F724B0027DF57F5
:1018C000002F40DB7C00E419A4006F482418062296
:1018D000A2566C4B1A706D4B9A684B4610339B00A6
:1018E000D35898461E001B1A2F2B38D9684B9845A1
:1018F0002FD105AE674B33807B009B46D819800003
:10190000614B9846404402306349FFF70FFF7080F7
:10191000624BB380FF23B371F571019B07935F4462
:10192000BF0047440ECE0EC701231C43A0465246BB
:1019300041464846FFF7E6FE09B0F0BCBB46B2465A
:10194000A946A046F0BD564B564AD721564801F04D
:10195000C9FE564B534ADE21534801F0C3FEC04333
:1019600040440C2103F098F8002912D101239E4332
:10197000B34633000026DA79AA4211D90621595616
:1019800000290CDB4A00521892001E003E4B9B18A7
:10199000F1E7474B434AEA21434801F0A3FE1E000A
:1019A000002E3AD005AB434A1A80813A5A8006236A
:1019B000F3560293002B17DA3F4805AB9B469880FD
:1019C000029A9A71DD71019A0792301D2100FFF78A
:1019D000ADFEB080B7717B00DB199B002A4FFF186A
:1019E0005B4607CB07C7A2E77800C0198000264BEB
:1019F000C0180430321DB388D90A1C2907D15B05F1
:101A00005915023149005118FFF790FED5E72B4BCD
:101A10002B4AB121244801F065FE05AE1D4B3380F1
:101A20007B000293D8198000174A90460200424476
:101A30000392901C1849FFF779FE7080039A101DDD
:101A40005946FFF773FEB0801E4B5A464146521A64
:101A5000524153431B0DB371F571019A0792029BDA
:101A60009C466744BF0047440ECE0EC7114B5A46F2
:101A70001380813B538001231C43A04657E7C04697
:101A8000240100D05DAA02203C1B002000ED00E0F4
:101A9000CD01001000A1FFFF6C1B002001BDFFFF66
:101AA000B8F101108CF3011028F10110E0F10110E0
:101AB00008F201100148000001BD00007CF2011095
:101AC0007CF30110AAAA0000F0B5CE46474680B5C7
:101AD00083B006000D00EFF3108872B6564B1B68FA
:101AE000002BFBD0BFF35F8F544B9A683400103447
:101AF000A300D758524B9F4207D0AF4200D198E085
:101B00000197504BFB1A2F2B09D942463900300060
:101B1000FFF7F8FD03B0C0BCB946B046F0BD3000D9
:101B2000FFF748FE814600213000FFF75FFEBFF35C
:101B30005F8FEFF30581002901D08C4211D1012381
:101B4000019C9C430022A368AB4212D00622A256FD
:101B5000002A0DDB53009B189B002200394CE4182F
:101B6000F1E73621384B394AFF31394801F0BAFDE7
:101B70002200AB4256D106256557002D38DB6B009D
:101B80005B199A002F4B9B189A68A260DA79E27170
:101B900006229A56A2719B795BB2002B0FDA2D4870
:101BA000A0806B005B199B00264AD3182A4A117843
:101BB0009971157049463000FFF718FEA5E7201D02
:101BC0006B005B199B001F4A9B181A1D9B88D90A42
:101BD0001C2907D15B055B15023359005118FFF72B
:101BE000A5FDDDE71D4B1E4AB121194801F07AFD24
:101BF000002912D1002A0ED0FF239371194B938034
:101C0000154A1378A371184B0E49641A6441634353
:101C10001B0D1370CEE70A4FF2E7201D1349FFF7A3
:101C2000A9FDC7E76A21124B084AFF31084801F0B5
:101C300059FD034F69E7C046240100D000ED00E0E4
:101C4000CD0100103C1B002094F201105CF3011048
:101C500028F1011001BD00005DAA02207CF20110F4
:101C60007CF3011001BDFFFFAAAA0000761B002033
:101C7000C8F2011010B5032304009C43064A9446A1
:101C8000644422681840C000FC3383409A43130028
:101C900081400B43236010BD00E400E070B50121DA
:101CA00001432E4BCB1A2F2B28D8EFF30583002BA3
:101CB0002BD0EFF3108C72B6294A1268002AFBD0A1
:101CC000BFF35F8F274A0400244D641B64416243C5
:101CD000120D54B2244A92689B00D2588A421BD0FB
:101CE0000022032A32D853009B189B001B49CB18B3
:101CF0009B795BB2A3421FD00132F2E7C7211B4B95
:101D00001B4A49001B4801F0EDFC92211A4B184A6E
:101D1000FF31184801F0E6FC134A92681749D15088
:101D2000174B1A7882711C70BFF35F8F0C4B002227
:101D30001A608CF3108870BD0D005300991889004B
:101D40006918FF268E710F4A8A80E9E7D1210E4B70
:101D5000074A4900074801F0C5FCC0463C1B00206B
:101D6000240100D0AAAA000000ED00E0D0F201108A
:101D700028F3011028F10110F8F20110CD01001034
:101D80005DAA022001BDFFFF04F301100022044BF5
:101D900002E0044902C30132072AFAD97047C0465B
:101DA00000E400E08080808000B583B00100064B35
:101DB0000093052300220548FFF74DFC002801DBB6
:101DC0001F23181A03B000BD0CF3011062AA0220F1
:101DD000024B9C466144890001607047400000341A
:101DE00010B50400FFF770FC01002000FFF7F0FFC2
:101DF00001235B426360BFF35F8F10BD10B5040029
:101E0000FFF762FC01002000FFF7E2FF01235B42C5
:101E1000636000232372BFF35F8F10BD034B9C46AA
:101E2000614489000160BFF35F8F70474000003458
:101E300010B504000120FFF755FC01002000FFF75A
:101E4000EDFF10BD70B505000C00080000F0F6FEB7
:101E50000949200000F036FEFFF736FC074B9C4690
:101E60006044800068602C75D0231B061B786B755E
:101E7000A400034BE55070BD8121001040000034E8
:101E8000D89E002010B5084B1A68EFF3108172B687
:101E90001368002BFCD0BFF35F8F034806F0DCFF14
:101EA0000020002110BDC046E0A3002010B500298D
:101EB00022D003681B7B99421ED8174B9C46614475
:101EC000090183689C4661440C684968002A19D05E
:101ED00003681B7B9A4215D883680F488446624486
:101EE00012019A1810685368020001208B4201D831
:101EF0000ED00020C0B210BD084B094A3C21094851
:101F000001F0F0FB054B064A3C21064801F0EAFBD4
:101F1000A242EFD8EDE7C046FFFFFF0FE4F4011047
:101F200050F70110A4F4011010B500291ED0037B56
:101F300099421BD84B005B18033B0468A4466344DA
:101F4000002919D0002A1DD0914221D0002A25D085
:101F5000047BA24222D8046850008018033820185D
:101F60008170197800291FD11A7010BD104B114AC9
:101F70006821114801F0B6FB104B114A6F310E4831
:101F800001F0B0FB0F4B0E4A70210B4801F0AAFB89
:101F90000D4B0B4A7121084801F0A4FB044B054A84
:101FA0006821054801F09EFB41701A70DDE7C046CC
:101FB00008F50110BCF7011024F5011078F50110A7
:101FC00098F7011084F5011090F5011070B5060026
:101FD0000D001400002914D0002A14D08068736802
:101FE0009847002806D0220029003000FFF79CFF08
:101FF000280007E02A0021003000FFF795FF2000AD
:1020000000E0100070BD0800FCE70000F0B583B0F0
:102010000500009201930AAB1C780BAB1F78002CD3
:1020200026D003685A7B944207D10123002B19D193
:10203000002C3BD1200003B0F0BD002C0CD01A7B4B
:10204000944209D81A6863001B19033BD3189B7884
:10205000002BEBD00123E9E73E4B3F4A68213F4884
:1020600001F040FB3E4B3F4A67213F4801F03AFBFD
:1020700003689C7B002CDBD012D01A7B94420FD8D3
:1020800062001219033A19688C46624451789973B8
:10209000002900D1D9730023937053701370C7E7E0
:1020A0002C4B2D4A68212D4801F01CFB002C3AD006
:1020B0002B681B7B9C4236D82C4BE3181B01AA686B
:1020C00094466344009A1A60019A5A60089A9A608A
:1020D000099ADA602E68002C2BD030D0337B9C42DA
:1020E0002DD863001B19033B3268944663440022D9
:1020F0009A705A701A70717B22003000FFF766FFE9
:102100007073844200D095E7287D009A019B00F00F
:1021100021FD061E01D0002F17D00C9B002B00D1F3
:1021200088E71E7086E7124B124A3C210E4801F0E8
:10213000D9FA114B114AA521084801F0D3FA054BF1
:10214000054A6821054801F0CDFA2868210000F011
:1021500039FFE2E708F50110BCF7011024F5011082
:10216000A8F50110C8F70110A4F40110FFFFFF0F3C
:10217000E4F4011050F70110A0F40110ACF70110C5
:10218000F0B5DE4657464E464546E0B58BB0099061
:10219000002308938200B54BD658370052E0B44B69
:1021A000B44A3F21B44801F09DFAB44BB44A3C21F3
:1021B000B44801F097FA002901D1002869D1002123
:1021C000404600F0F5FEA04219D12A686B680692DD
:1021D0000793AB689846EB689A464346002B14D0A9
:1021E000002C18D03B681B7B9C4214D8631EFA68F5
:1021F000D35C08931B0218433861002015E0A24B02
:10220000A24A8E219F4801F06DFAA14B9F4A92216C
:102210009C4801F067FA994B9E4A4121994801F088
:1022200061FA00239A46984600207B68BFF35F8FCF
:1022300000221A6086F310884346002B32D1002812
:1022400000D10CE100F0FAFB02000B1EA7DB00201E
:102250000021069007917868EFF3108672B6016846
:102260000029FCD0BFF35F8F396888464C7B002C77
:10227000D7D09AD0097B8C4297D8874965182D0111
:10228000B9688C46654428686968801A99410029B4
:1022900091DD2A686B68099800F05CFC00239A467F
:1022A0009846C2E7089B1B022343994651461800F3
:1022B000C04705000E007A68EFF3108B72B6136802
:1022C00059424B41D9B2002BF9D1BFF35F8F002E99
:1022D0001EDB002E46DD3B69002B47D04B456DD100
:1022E00000F0ACFB02000B1E6EDB52197341002B99
:1022F00070DB002B72DB0021049101310391029409
:1023000051460191414600913800FFF77FFE4CE0B5
:102310003B69002BDDD04B4514D1069A079B521B1D
:10232000B341002B14DB002B16DB0021049101319B
:102330000391029451460191414600913800FFF704
:1023400065FE32E0554B514AA1214E4801F0CAF9D1
:1023500001225242524BE6E7454B464A3F2146484E
:1023600001F0C0F9002E01D1002DB4D13B68002C42
:1023700050D05A7B944237D1012100294AD1DA7BCF
:10238000002A4DD19A7B002A03D1DA7B002A5AD148
:102390009C73DC73002C5CD03B681B7B9C4258D840
:1023A000FA68013C135D0133135500233B617A68E1
:1023B000BFF35F8F13608BF3108843E7374B334ACB
:1023C000A421304801F08EF9294B2A4A3F212A489E
:1023D00001F088F901225242314B8AE7244B254A09
:1023E0003F21254801F07EF9002C0DD01A7B944244
:1023F0000AD862001219033A186884466244927837
:10240000002ABAD00121B8E7264B274A682127487D
:1024100001F068F9264B274AF621244801F062F9B9
:10242000002A0AD0197B8A4207D851008A18033A39
:1024300019688C4662445470A4E71A4B1A4A682102
:102440001A4801F04FF91C4B1A4AFB21174801F0BA
:1024500049F90A4B0F4A41210A4801F043F90BB0F0
:10246000F0BCBB46B246A946A046F0BDD89E0020AF
:10247000B4EC01101CF7011008ED0110E4F4011098
:1024800050F70110A4F40110D0F5011034F7011039
:10249000E8F5011074F70110FFFFFF0FF4F50110CC
:1024A000FFFFFF7F08F50110BCF7011024F50110B4
:1024B00030F6011088F7011054F6011010B50C4BDE
:1024C0005B68002B04D00A210A48FFF781FC10BD8D
:1024D000074C2300084A1021206800F079FC0320F3
:1024E00000F0A0FA03212000FFF7ACFCEBE7C046A8
:1024F000841B0020E0A30020AD1E001010B5064B89
:102500005B68002B01D0044810BD044B044A5E21D7
:10251000044801F0E7F8C046841B002068F601106B
:102520005CF70110A4F40110F0B5DE4657464E46A4
:102530004546E0B58BB0804616001F00149B9A46B6
:10254000159B994616AB1B789B461F2302AA9446FF
:10255000634400221A702BE0002809D0424612681A
:10256000127B904204D8421E4146C9688A5C41E011
:10257000404B414A4121414801F0B4F807984CE0F2
:10258000361BAF41002F07DB002F11DA3C4B3D4AD1
:102590003F213D4801F0A6F8012676423B4FF3E784
:1025A000374B384A3F21384801F09CF8002F4FDB69
:1025B00043465A68EFF3108472B6136859424B4190
:1025C000D9B20791002BF8D1BFF35F8F1F3302AA56
:1025D0009446634404930023039302934B46019370
:1025E0005346009332003B004046FFF70FFD031EA9
:1025F000B2D1020041464968BFF35F8F00250D60EC
:1026000084F31088002B29D01F2302A98C46634431
:102610001B78002BB2D112021043002B20D05B4656
:10262000002B1DD04946D04704000D0003000B438A
:102630001DD00029A4DB00F001FA06000F1EAFDB5D
:1026400036196F41002FB1DA012676420F4FADE700
:102650000B4B0C4A3F210C4801F044F8012040424A
:102660000BB0F0BCBB46B246A946A046F0BD0798E9
:10267000F6E7C046E4F4011074F70110A4F4011069
:10268000B4EC01101CF7011008ED0110FFFFFF7FF3
:10269000F8B50400002900D162E04268EFF310852C
:1026A00072B6136858424341D8B2002BF9D1BFF338
:1026B0005F8FCBB22268567BB3421BD1012000282A
:1026C00048D0206988422BD0090AC9B2002B2ED0ED
:1026D0002068007B83422AD8581EE668305C884216
:1026E0002BD000206368BFF35F8F00221A6085F350
:1026F0001088F8BD002B0DD0167BB3420AD85E00BF
:10270000F618033E1768BC466644B678002ED6D04D
:102710000120D4E7134B144A6821144800F0E2FF6B
:102720002C21134B134AFF31134800F0DBFF134BEE
:10273000134A4121104800F0D5FF1900100000F0A5
:1027400041FC0028CED199210E4B0A4A49000A4883
:1027500000F0C8FF23698B42C4D100232361C1E785
:102760000020C6E708F50110BCF7011024F50110A0
:102770008CF6011004F70110A4F40110E4F4011028
:1027800074F70110B0F60110407D7047F0B587B0C6
:1027900006000F00EFF30583002B1FD1962464423F
:1027A000E517A4197D418D4202D803D1844201D995
:1027B00000240025002D14DB0494059500F03EF95B
:1027C00002000B1E13DBA41A9D41002D17DC14D050
:1027D0003000390000F03EF907B0F0BD204801F0AC
:1027E0001BF8204B204A3F21204800F07BFF1D4B67
:1027F0001D4A3F211D4800F075FF002CE8D0FFF76F
:102800007DFE002302930193194B0093049A059BCC
:10281000FFF78AFE002812DADAE7002300E000233F
:10282000002BD5D1134B1A68EFF3108172B61368E1
:10283000002BFCD0BFF35F8F0E4806F0ABFA049973
:10284000059A0D4B5B6A9A42E9D80B48806A884228
:1028500003D29A42E1D00123E2E70123E0E7C04638
:10286000B4F60110B4EC01101CF7011008ED0110D2
:10287000851E0010E0A300200040054070B5040054
:102880000D0000F0DBF802000B1E0ADB200029001F
:102890008018594100290ADB00290CDBFFF776FF7D
:1028A00070BD084B084A3F21084800F01BFF01207B
:1028B00040420749F0E7034B034A3F21034800F039
:1028C00011FFC046B4EC01101CF7011008ED011017
:1028D000FFFFFF7F10B5FA2292000023002102F0D3
:1028E00059FFFFF7CBFF10BD70B584B005000C0099
:1028F000EFF30583002B1ED1FFF700FE00230293A8
:102900000193224B00932A002300FFF70DFE061EC1
:1029100023DD20BFFFF7F2FD3100FFF7B9FE1C4BAE
:102920005B6A9C422DD81A4A926AAA422CD29C42D7
:1029300025D0012026E0164B5B6A994209D8144A3B
:10294000926A824207D2994201D001201AE0002007
:1029500018E0002016E0012014E00D4B5B6A9C4259
:1029600009D80B4A926AAA4207D29C4201D00120A0
:1029700008E0002006E0002004E0012002E0002042
:1029800000E0002004B070BD0120FBE7851E0010B0
:102990000040054070B5EFF305801038EFF3108C60
:1029A00072B61A4B1B68002BFBD0BFF35F8F01225E
:1029B0001300834016494B6316490B60164909788A
:1029C0000C00C440224214D0114A546A8200134DB4
:1029D0005259944206D38200114C125999430E4B1E
:1029E000197007E00A4A031D9B009958995000226C
:1029F00000E00022BFF35F8F044B002119608CF3CD
:102A00001088002A00D0904770BDC046280100D031
:102A1000004005403C70054061AA022020A800202B
:102A20007C94002010B50100024A0348FEF7FAFD2D
:102A300010BDC046E8F7011043AA0220044B5B6AB0
:102A4000034A906A1900536A9942F9D17047C04607
:102A500000400540084B5B6A01E0074B5B6A8B4214
:102A6000FBD301E0044B5B6A8B4203D1024B9B6AB0
:102A70008342F7D37047C0460040054070B504005C
:102A80000D00FFF7DBFF02000B002000290080187B
:102A900059418B4202D804D1824202D901204042DE
:102AA000C117002902DBFFF7D5FF70BD024B034AB7
:102AB0003F21034800F016FEB4EC011098F8011015
:102AC00008ED011070B504000D00EFF3108672B62A
:102AD0001B4B1B68002BFBD0BFF35F8F002D1CD05E
:102AE0002000FEF793FE174B83420BD01900200005
:102AF000FEF7A6FE01212000FEF778FE0123A34089
:102B0000114A1360A400114BE550BFF35F8F0C4BCB
:102B100000221A6086F3108870BDA2000B4B0021C2
:102B2000D1500122A2400A490B7893430B7005490A
:102B30002000FEF7C9FF00212000FEF757FEE4E762
:102B4000280100D095290010386005407C940020B1
:102B500061AA0220F0B5DE4600B584B0040015007D
:102B600001921E000293FFF769FF03958E4202D87F
:102B70004ED185424CD9EFF3108B72B6274B1B68B0
:102B8000002BFBD0BFF35F8F254A17780125A540A6
:102B9000EBB23B431370234B5D63221D92000199FE
:102BA000D150A2002049029850501B6A2B4212D1EA
:102BB0001C4B1B6C2B4208D00020BFF35F8F174BC0
:102BC00000221A608BF3108823E0184B184AC521A5
:102BD000184800F087FDFFF731FF8E4214D802D16C
:102BE000039B834210D80E4B1B78BB420ED00D4B7B
:102BF0001D625D631F2004400123A3400E4A136041
:102C0000074B1F701E38D8E70020D6E70120D4E715
:102C1000012004B080BCBB46F0BDC046280100D0F6
:102C200061AA02200040054020A800200CF80110F5
:102C30007CF8011030F8011080E200E0EFF3108C16
:102C400072B60B4B1B68002BFBD0BFF35F8F0123C9
:102C50008340084A136208490A789A430A70BFF30E
:102C60005F8F034B00221A608CF310887047C046B8
:102C7000280100D00040054061AA022010B50029BB
:102C80001ED0037B99421BD84B005B18033B0468A2
:102C9000A4466344002919D0002A1DD0914221D0B6
:102CA000002A25D0047BA24222D804685000801854
:102CB000033820188170197800291FD11A7010BDAF
:102CC000104B114A6821114800F00CFD104B114ABD
:102CD0006F310E4800F006FD0F4B0E4A70210B4875
:102CE00000F000FD0D4B0B4A7121084800F0FAFC82
:102CF000044B054A6821054800F0F4FC41701A7045
:102D0000DDE7C04608F50110A4F9011024F5011013
:102D100078F5011090F9011084F5011090F501107B
:102D200070B506000D001400002914D0002A14D03C
:102D3000806873689847002806D022002900300078
:102D4000FFF79CFF280007E02A0021003000FFF772
:102D500095FF200000E0100070BD0800FCE70000B7
:102D600010B50023437301338373037BC3730123C3
:102D7000027B9A4214D9002B0CD0027B934209D8D3
:102D80005A00D218033A01688C4662440133DBB220
:102D90005370EDE70B4B0C4A68210C4800F0A2FC85
:102DA000002A09D0924207D8016853009A18033AC2
:102DB0008A180023537010BD024B034A6821034850
:102DC00000F090FC08F50110A4F9011024F50110A1
:102DD00010B5017342608360FFF7C2FF10BD0000B1
:102DE00070B50400081E00D170BD002934D0237BCB
:102DF000994231D84B005B18033B226894466344E8
:102E00005A78002AF0D02DD0237B9A422AD853003A
:102E10009B18033B21688C4663445D780021597000
:102E2000002825D0237B984222D843001B18033B5F
:102E300021688C4663440021597001002000FFF78F
:102E40006FFF060029002000FFF7CAFF02003100D3
:102E50002000FFF765FFC7E7084B094A68210948CA
:102E600000F040FC054B064A6821064800F03AFC99
:102E7000024B034A6821034800F034FC08F50110B6
:102E8000A4F9011024F5011070B505000C0016001E
:102E900000292FD034D0037B994231D84B005B18E6
:102EA000033B0268944663445A78002A2ED19A78EC
:102EB000002A31D11978FFF793FF0300002E0AD0C2
:102EC000EA7B002A2ED1AA7B002A03D1EA7B002AC2
:102ED0003BD1AC73EC73002B3DD1002C4FD02B7B3E
:102EE0009C424CD82B6861000C19033C1C19002330
:102EF000637070BD254B264A3821264800F0F2FB4E
:102F0000254B264A6821264800F0ECFB254B204A39
:102F10003A21204800F0E6FB234B1D4A3B211D4887
:102F200000F0E0FB002A0AD0297B8A4207D8510032
:102F30008A18033A29688C4662445470C3E7164BDA
:102F4000164A6821164800F0CDFB184B104A422162
:102F5000104800F0C7FB002B0BD02A7B934208D807
:102F600043001B18033B2A689446634400229A706E
:102F7000B3E7094B094A6821094800F0B3FB064B47
:102F8000064A6821064800F0ADFBC046B0F80110C3
:102F90007CF90110B8F8011008F50110A4F901102E
:102FA00024F50110F8F8011020F9011054F6011071
:102FB00070B504000A00457B2900FFF765FF6073C8
:102FC000280070BD70B50400002967D0437B8B4298
:102FD0000ED0002911D0037B99420ED84B005B180C
:102FE000033B0268D0188378002B0CD1002056E0F8
:102FF0000121FFF7DDFF012051E0294B294A68211B
:10300000294800F06FFB002B20D0227B93421DD873
:103010005A00D318033B2268D2182568EB5C8B4218
:103020001AD0002B1BD0227B934218D85A00D318F9
:10303000033B2268D21853788B4216D0002BF0D174
:103040001A4B1B4A6B211B4800F04CFB144B154AD2
:103050006821154800F046FB4378137007E0104BD9
:10306000104A6821104800F03DFB4378537000235C
:103070008370437001222000FFF706FF0200617B8E
:10308000814205D02000FFF74BFE6073012006E06F
:10309000094B074A7121074800F024FB002070BD4E
:1030A00008F50110A4F9011024F5011004F3011032
:1030B00064F90110B8F8011044F9011070B5046BFF
:1030C000E30701D4200070BD02003032C0239B0111
:1030D00013430A4A1A60456A826AAD01AD18AD020F
:1030E000062000F0BDF9064901F0D6FC01002800D9
:1030F00001F0D2FC0021FFF7C1FCE3E7010300006F
:103100004E0E000070B504000E001500FFF7D6FF4C
:1031100022002C32E16A4E40354080235B0113438C
:103120001D60206370BD000070B505000C00062016
:1031300000F096F9C000210001F0AEFCC60908D0ED
:103140000E4B9E4216D87F231840013034004608AB
:1031500000E001246C62AE62002200212800FFF72B
:10316000D1FF062000F07CF98000A101891901F04F
:1031700093FC70BD0026024CECE7C046FEFF000049
:10318000FFFF000010B505394901013AD200114393
:10319000002B09D002220A43012B07D00021114342
:1031A0006E22FFF7AFFF10BD0022F4E70421F6E71F
:1031B000002909D00A22064B9C46604443425841EC
:1031C0004000044BC252704780225200F3E7C046D1
:1031D0000080FCBFA4A8002070B505000C000620EC
:1031E00000F03EF9061E27D0164B9D4226D08022C5
:1031F000D203154B1A60154B1A60154B9B681100D2
:103200009943FAD100212800FFF7D2FF21002800BE
:10321000FFF78AFF06000023012208212800FFF79C
:10322000B1FF2A002C3280239B01134310221A6025
:10323000084B2B630323AB64300070BD8022120463
:10324000D7E7C0460080034000E0004000F00040A7
:1032500000C0004001030000F8B5DE4657464E4668
:103260004546E0B505000F0092460A9A934250D3B6
:103270001A0E91461E020A9A00233000494601F0B8
:1032800049FC80466C006419A400304B9C466444A1
:103290006368834200D260602B1FDBB29B46012B28
:1032A0003DD9C0239B012343802212011A60AB0049
:1032B000274A9958002907D0506901F0EDFB431CBB
:1032C0005800C0180338FDD253465A0123685A40AB
:1032D000E0231A4080235B0123431A605A46012AE7
:1032E00028D980239B012343802212011A60434680
:1032F0006360424600233000494601F00BFCAD00FC
:10330000134B58510120F0BCBB46B246A946A0461B
:10331000F8BD104B104A3321104800F0E3F9012F9B
:10332000BFD1C0239B01234303221A60A368DB079C
:10333000FCD5C9E72168794003220A401A60A268D7
:103340000123BB401342FAD0CBE7C04600800040C7
:10335000CC950020B0F9011010FA0110C4F9011049
:1033600030B583B00C2000F011F9FEF73BF90028CE
:103370000DD0002304E099002D4A2E4888500133D7
:10338000092BF8D92A4B2C4A5A6203B030BD2B4B7B
:1033900000229A6700F06CF9294B01221A60274B32
:1033A0005B6C012BFBD1274B03221A60234B9B6BD9
:1033B000012BFBD1013300930433234A012123481D
:1033C00000F054F805230093214A0121214800F020
:1033D0004DF8214B0093002202210420FFF73CFF0F
:1033E0001E4D00952B00002201210520FFF734FF20
:1033F000104C00942300002200210720FFF72CFF2F
:1034000000942300002200210820FFF725FF0A4B2B
:1034100000932300002200210920FFF71DFF0095E3
:103420002B00002200210620FFF716FFADE7C04663
:10343000CC950020006CDC021BB70000008000402F
:103440003CB0004030B00040002F6859008002407E
:10345000008C864700C00240001BB700405973072C
:103460008000014BC0587047CC950020F0B5C6468F
:1034700000B504000E0017001D00374801F00CFBDA
:103480008046364BFA18364B9A4239D8010038003C
:1034900001F002FB0200103A98235B009A4235D8F3
:1034A0006B1E062B38D8069B013B062B34D83F09F0
:1034B000474537D32D04069B1A0315432368002B79
:1034C00036DB284B9C4244D080225201264B1A60A6
:1034D000264B1A60264B9B6811009943FAD126604F
:1034E000A060231DC02292011A4321231360236888
:1034F000002BFCDAE5600823136080BCB846F0BD01
:103500001C4B1D4A11211D4800F0ECF81C4B1A4AB7
:1035100019211A4800F0E6F81A4B174A1C211748DF
:1035200000F0E0F8184B144A2321144800F0DAF8B0
:1035300022683F231340B342C3D1A3681B051B0D70
:103540008342BED1E368EE22D2021340AB42B8D12F
:10355000D3E780229201B9E7001BB70080E84BD384
:1035600080F8A93200C0024000E0004000F00040B6
:1035700000C0004020FA01104CFB011080FA01103D
:10358000C8FA0110E4FA011030FB011080239B00FF
:103590000343014AD362704700800540024B1A681A
:1035A000024B5A607047C0469C9E00200080054038
:1035B00010B50200164B8020C0051860154B164848
:1035C000186000290AD0154BE021C9041960002AAF
:1035D00009D1124B802212061A6010BD0C4BE0215B
:1035E000C9041960F3E753019B1A98008018000181
:1035F0000B4B186080235B04984202D3084B094AA6
:103600001A60FFF7CBFF054B8022D2051A60E4E772
:1036100000B0054008200140FCFF010000A005406B
:103620009C9E0020FFFFFF0010B5030010000C4A15
:103630008024E4051460002B0DD001221343094AB5
:10364000094CD461094C5C401462516293620021C0
:10365000FFF7AEFF10BD034B0022DA61F7E7C0466B
:1036600000B0054000800540D3C007B02D3FF84FA3
:10367000064BAA2212011A602F22DA60044B054A77
:103680001A60024B5B68002BFBDA70470040024077
:103690000060024000B0FA0000BEFDE703000A4AE5
:1036A0001268002A08D0084A1068C318074A9A42CC
:1036B00006D3054A13607047034A05491160F2E7D3
:1036C00001204042F7E7C046889A0020000004200D
:1036D00064AA02200020704701204042704710B5C4
:1036E000FFF7DAFF10B582B00C001900002A0CD0E9
:1036F000084B002A0BD001920093230002000648D9
:1037000002F03EFC0120FFF7C7FF044BF1E7034A3C
:10371000F1E7C04658FB011068FB0110841C021041
:1037200070B52B4B2B4A1A602B4B2C4A1A602C4B32
:103730009A682A4B9343FAD12A4C01E008CC984767
:10374000294B9C42FAD3FFF70BFE234B274A1A6002
:10375000234B9B68DB43DB01FAD1254B40229A6760
:103760005A671A67DA66234C09E0234B234A8721FC
:103770002348FFF7B7FF2000FEF732FB0834214B48
:103780009C4209D22368002BF5D0012BEDD12000FB
:10379000FEF734FB0C34F2E71B4CA1681B4DC02232
:1037A000280002F01BFAA560EFF30583002B00D080
:1037B00000BEFDF779FFFEF7E9FAFEF77FFE144C35
:1037C00001E008CC9847134B9C42FAD370BDC04629
:1037D00000E00040BFCDFBFE00F00040FE7F3C005B
:1037E00000C00040B4480020C4480020FFFFFF0193
:1037F00000F00140A448002098FB011024FC0110B7
:10380000B8FB0110B448002000ED00E000000020EB
:10381000C4480020E04800200FB400B583B0084839
:1038200002F07EFB049B002B07D005A90191180034
:1038300002F086FB034802F073FB0120FFF72CFF28
:1038400004FC011084F0011010B50148FFF7E4FFFB
:1038500014FC01109A4200D288547047704710B58A
:10386000002802D00B684968984710BD010000206D
:1038700007E083001B185B00501C08601078C0181C
:1038800030380A681378303BDBB2092BF1D9704726
:10389000F0B5DE4657464E464546E0B583B0934602
:1038A0001F000C9B9A460D9C0E9B99460F9B9B07F5
:1038B00003D0B8460F00060022E00192A3468846D6
:1038C0004E46B9460700B44207D2551C4B46414606
:1038D0002020B84701342A00F5E73D004F465C46FA
:1038E000019B9B46B1464646B84637002E0007E08E
:1038F000013C551C5346185D43463900B0472A0029
:10390000002CF5D135003E0047460F9B9B0707D49E
:10391000100003B0F0BCBB46B246A946A046F0BDBD
:10392000B0464E46B9462F005D46531BB342EFD218
:10393000541C4B4641462020B8472200F5E7F0B51D
:10394000CE46474680B585B0944698460C9D0D9C62
:103950000EAB1B789946109A119B129EB7071CD488
:10396000002B0CD0F7070AD54F46002F02D10C3799
:10397000374204D0013B02E030272F5501349442F6
:1039800001D21F2CF8D9F70707D59C4205D21F2C6E
:1039900003D830272F550134F5E7F70615D57705FD
:1039A00005D4002C03D0944224D09C4222D00F9AFC
:1039B000102A2BD00F9A102A30D00F9A022A35D015
:1039C0001F2C02D830222A5501341F2C05D84A4614
:1039D000002A31D02D222A550134039602930194F6
:1039E000009543466246FFF753FF05B0C0BCB94699
:1039F000B046F0BD621E012C06D00F9F102F01D0E3
:103A00001400D4E7023CD2E71400D0E7B206D1D4C8
:103A10001F2CCFD878222A550134D1E7B206CCD555
:103A20001F2CCAD858222A550134C9E71F2CC7D8E1
:103A300060322A550134C3E7720703D52B222A5579
:103A40000134CAE73207C8D520222A550134C4E719
:103A5000F0B5DE4657464E464546E0B593B0814642
:103A60008A46089209931CAB10CB1B789B461E9D7F
:103A7000219B9846002C03D1102342469A4390463E
:103A80008023DB0046461E4042461A4212D0002CDC
:103A900022D000260EE03033D9B2771C0AAB9955FC
:103AA0002900200000F0F8FFAC4216D31F2F14D8D5
:103AB0003E0004002900200000F0EEFFCBB2092BED
:103AC000E9D94246920605D54121C918C9B20A3939
:103AD000C9B2E2E76121F8E7270043460693209B3D
:103AE00005931F9B049303955B46029301970AABD2
:103AF0000093099B089A51464846FFF720FF13B0F0
:103B0000F0BCBB46B246A946A046F0BDF0B5DE46C5
:103B100057464E464546E0B595B0089009910A9241
:103B20000B931E9E1F9C20AB1B789B46229B9946A5
:103B3000239D269B9A463300234303D110335246DC
:103B40009A4392468023DB0057461F4052461A4252
:103B500019D0330023432DD0002714E03033DAB2DC
:103B60007B1C98460CABDA554A462B0030002100EE
:103B700000F0D0FFA5421FD819D043461F2B1BD8F9
:103B8000474606000C004A462B003000210000F09A
:103B9000C1FFD3B2092BE1D95246920605D5412285
:103BA000D218D2B20A3AD2B2DAE76122F8E7B145C6
:103BB000E3D901E00023984653460693259B0593DD
:103BC000249B04934B4603935B4602934346019325
:103BD0000CAB00930B9B0A9A09990898FFF7AFFE6C
:103BE00015B0F0BCBB46B246A946A046F0BD0000E9
:103BF000F0B5DE4657464E464546E0B591B08346A1
:103C00008A460C9298461A9C08941B9D099522009E
:103C10002B002000290001F010FA002800D0E5E078
:103C200001225242D74B2000290001F001FA00285E
:103C300000D0DBE001225242D34B2000290001F0EA
:103C4000E1F9002800D0D1E000220023089E3000D6
:103C5000099D290001F0D6F9002800D0DDE0089880
:103C60000999069007918023DB001E9A1A400D9255
:103C70001E9A1A4201D106231C9306980799040044
:103C80000D000A000600024300D1D1E0080D4005F6
:103C9000400DBE4CA44660440A03120BBC4B1343B8
:103CA0001F0001F0DDF9BB4ABB4B01F060F9BB4AD4
:103CB000BB4B01F035F904000D000022B94B300078
:103CC000390001F024F9B84AB84B01F050F902006C
:103CD0000B002000290001F023F901F0D9F98146F9
:103CE00001F0BEF904000D00B14AB24B01F03FF9FA
:103CF0000022B14B01F014F901F0CAF90600AF4AF5
:103D0000AF4B2000290001F032F904000D00300013
:103D100001F0A6F9AB4AAC4B01F029F902000B0007
:103D20002000290001F0F3F804000D0002000B0050
:103D300001F01DF90A900B91A44BF31800261F0502
:103D400022002B002000290001F0EAF80E900F91CC
:103D500022002B0000208021C90501F0D8F80400C2
:103D60000D0000229A4B0A980B9901F0E2F800220C
:103D7000984B01F0D5F802000B000A980B9901F05E
:103D8000D8F80022944B01F0CBF802000B000A98FF
:103D90000B9901F0CEF802000B002000290001F081
:103DA000BFF802000B000E980F9901F0C2F8002234
:103DB000774B01F0B5F832003B0001F0D8F806006F
:103DC0000F0004000D00069A079B01F031F900284E
:103DD00030D001235B429C46E14400227D4B300001
:103DE000390001F0A6F804000D0023E01E9B0493A7
:103DF0001D9B03931C9B0293089A099B00920193BD
:103E000043460C9A5146584600F0FCF811B0F0BCFD
:103E1000BB46B246A946A046F0BD00230024069347
:103E20000794069680231B069C46654407951AE76F
:103E3000002399464B466333C62B1ED804261E9B8F
:103E40001B0526D52B0023430FD0644A644B0698EC
:103E5000079901F0E5F8002879D00022614B069817
:103E6000079901F0CFF8002871D01C9B4B4506DD67
:103E70004A46981A431E1C9303E00526DFE70023F9
:103E80001C938023DB001E9A1A431E9200260023F7
:103E900099461D9B9E4264D29F1B02231E9A1A4084
:103EA0000A921E9A134202D0002E00D000274B46E1
:103EB000002B07D022002B000698079901F039F853
:103EC00006900791002200230898099901F09AF8BA
:103ED000002848D1444B1E9A1340049303971C9B1F
:103EE0000293069B079C0093019443460C9A51460B
:103EF000584600F087F8002E00D187E71E9B9B06EE
:103F00003DD54525441C4346020051462800D8476C
:103F10004B46DA179B18534005220592013E049642
:103F2000002203920A3202924A46D00F0190009377
:103F30004346220051465846FFF78AFD0A9B002B54
:103F400000D163E702005F460C9E1D9D54E01C9B60
:103F5000002B9ED00D9B002B9BD01C9B013B1C93E8
:103F600097E7002799E7069C079D220029008020FB
:103F70000006844661440B0006920793AAE7652574
:103F8000C0E7C046FFFFEF7FFFFFEFFF01FCFFFF31
:103F90000000F03FFB799F501344D33FB3C8608BC0
:103FA000288AC63F0000F83F61436F63A787D23F6E
:103FB00071A379094F930A400000E03F1655B5BB45
:103FC000B16B0240EF39FAFE422EE63FFF030000DC
:103FD00000002C4000002440000018402D431CEB42
:103FE000E2361A3F80842E41FFF7FFFF541C434600
:103FF00051462020B8472200931BAB42F6D3100055
:1040000004E7C046F0B5DE4657464E464546E0B5A5
:1040100095B00690079193469946209F1E9A1F9B44
:104020001000190001F009F8002831D10122524294
:10403000BF4B1E981F9900F0E5FF002837D10122E1
:104040005242BC4B1E981F9900F0F2FF00283DD150
:104050000022B94B1E981F9900F0EAFF002850D1AA
:104060000022B64B1E981F9900F0CCFF002848D1C3
:10407000002200231E981F9900F0C4FF002850D191
:1040800000239846229B5B0500D4B6E0002458E04C
:10409000229B0393219B029303230193A84B00933C
:1040A0004B465A4607990698FFF7F2FB0EE1229B12
:1040B0000393219B029304230193A24B00934B464D
:1040C0005A4607990698FFF7E3FBFFE00423229A7C
:1040D0001A4022990B4210D09B4B002A0FD0042289
:1040E0002299039121990291019200934B465A46DD
:1040F00007990698FFF7CCFBE8E0944BEDE7032225
:10410000EEE7229B0493219B039302971E9B1F9C27
:10411000009301944B465A4607990698FFF768FDAD
:10412000D4E01E9A1F9B0020002100F0F0FE1E909C
:104130001F9101239846A5E70CAB30221A55013F89
:1041400001341F2C01D8092FF6D81E981F9900F0B2
:104150009FFF050000F084FF02000B001E981F99CE
:1041600000F0D5FEFA007A4B9B181A685B680A9239
:104170000B9300F0FCFE0890099100F0ADFF0600E3
:1041800000F06AFF02000B000898099900F0BFFEDA
:104190000890099100226F4B00F04AFF00282ED0B2
:1041A0000136300000F058FF02000B000A980B990E
:1041B00000F02EFF002801D001350026002F2CD161
:1041C000280000F04DFF02000B001E981F9900F020
:1041D0009EFE06000F0000225E4B00F013FF002839
:1041E00046D100225B4B3000390000F021FF00284F
:1041F0003ED1EB073CD501353AE0062746E70022E1
:10420000544B0898099900F0FDFE0028D6D1002EE5
:1042100001D0F307D2D50136D0E7AA461F2C11D81A
:10422000013F0A21300000F037FC651C30310CAB37
:1042300019550A21300000F02FFC092E0ED9060076
:104240002C00EBE755461F2C0CD87B1E002F09D005
:104250000CAA302111551F000134F4E72B005546FC
:104260001C00F0E71F2C03D80CAB2E221A5501348A
:104270001F2C10D80A21280000F0E6FB661C303104
:104280000CAB19550A21280000F0DEFB051E01D0F9
:104290003400EDE734000323229A1340012B1CD095
:1042A0001F2C06D84346002B32D00CAB2D221A55BA
:1042B0000134229B0393219B029301940CAB009346
:1042C0004B465A4607990698FFF7E2FA15B0F0BC3C
:1042D000BB46B246A946A046F0BD219B002B13D099
:1042E0004346002B02D10C3313420FD0219B013BDC
:1042F0002193190003E00CAB30221A5501348C4293
:10430000CED21F2CF7D9CBE72199F8E72199F6E710
:10431000229B5B0704D50CAB2B221A550134C8E74E
:10432000229B1B07C5D50CAB20221A550134C0E7D0
:10433000FFFFEFFFFFFFEF7F65CDCD4165CDCDC125
:1043400040FC011044FC011038FC011034FC011049
:1043500030FE01100000E03FF0B5DE4657464E4605
:104360004546E0B593B082468B46904611930029AE
:1043700000D1EBE200275546119B1878002800D1A8
:10438000E7E2252809D07C1C43463A005946A84755
:10439000119B013311932700EEE7013311930024A1
:1043A000119A11780B00203BD8B2102803D8830053
:1043B000D048C3589F460B00303BDBB2092B2CD9A9
:1043C0002A292FD000230A93119B1A782E2A39D03C
:1043D00000239A46119A1378683BD9B2122976D8ED
:1043E0008B00C549CB589F4601231C4301321192D3
:1043F000D6E702231C4301321192D1E704231C4368
:1044000001321192CCE708231C4301321192C7E715
:1044100010231C4301321192C2E711A8FFF726FABC
:104420000A90D1E71C9B1A1D1C921868002804DB17
:104430000A90119B01331193C6E702231C434342A8
:104440000A93F6E78022D20014435A1C11925A783C
:104450001300303BDBB2092B04D92A2A07D00023F2
:104460009A46B7E711A8FFF701FA8246B2E71C9B0C
:104470001A1D1C921868002804DB8246119B013328
:104480001193A7E70020F8E780235B002343511C2A
:10449000119152786C2A01D01C0018E0C0239B00B7
:1044A0001C430131119112E080232343511C1191CF
:1044B0005278682A01D01C0009E0C0231C43013156
:1044C000119104E080235B001C4301321192119B87
:1044D00018780300253BDAB2532A00D92CE2930066
:1044E000864AD3589F4680239B001C430132119279
:1044F000EDE780235B001C4301321192E7E7782847
:1045000009D0582838D06F2838D0622838D01023E6
:104510009C430A2600E01026582833D0692803D08F
:10452000642801D00C229443630501D501229443F1
:1045300069282AD0642828D0A30500D59FE0E30588
:1045400000D5B8E0630600D4CAE01C9A111D1C9186
:104550001168FF220A4005940A9B04935346039373
:10456000029600230193009243463A0059462800E0
:10457000FFF76EFA070027E01026CDE70826CBE705
:104580000226C9E720221443C8E7A30520D4E30587
:1045900050D4630666D51C9A111D1C911168FF2228
:1045A0000A40D317D118594005940A9B04935346E7
:1045B00003930296D20F0192009143463A00594666
:1045C0002800FFF745FA0700119B01331193D3E64A
:1045D0001C9BDA1D07218A43110008311C911168C8
:1045E00053689C46DB170C930D930C9A0D9B10009F
:1045F00048400E90624653400F930E980F990C9AC4
:104600000D9B801A99410E900F9108940A9B079375
:10461000534606930496002305936346DA0F0292ED
:104620000090019143463A0059462800FFF76EFA80
:104630000700C9E71C9A111D1C911268D317D118E5
:10464000594005940A9B0493534603930296D20F54
:104650000192009143463A0059462800FFF7F8F9C5
:104660000700B1E7230605D51C9A111D1C910023F4
:10467000D25E96E71C9A111D1C91126891E71C9B53
:10468000DA1D07218A43110008311C9108940A9B06
:1046900007935346069304960023059302931368E9
:1046A00054680093019443463A0059462800FFF7A6
:1046B0002DFA070088E71C9A111D1C9105940A9B8E
:1046C00004935346039302960023019313680093C7
:1046D00043463A0059462800FFF7BAF9070073E746
:1046E00023060DD51C9A111D1C9112681204120C80
:1046F00031E7C0464CFC011090FC0110DCFC0110BD
:104700001C9A111D1C91126825E746281AD01C9B83
:104710000733072293431A0008321C9204940A9A22
:104720000392524602925C681B68009301944346D0
:104730003A0059462800FFF765FC0700119B01333A
:10474000119319E620231C43E1E7672801D047288D
:1047500002D180231B011C43452801D0472801D1E9
:1047600020231C431C9B0733072293431A00083263
:104770001C9204940A9A0392524602925C681B6847
:104780000093019443463A0059462800FFF730FA57
:104790000700119B01331193EEE502231A0022401A
:1047A000924623421FD001241C9B1A1D1C927A1C86
:1047B0009146187843463A005946A8475346002B7D
:1047C00016D1119B013311934F46D5E5561C434634
:1047D00059462020B847230032005C1C9D42F5D882
:1047E0003D001700E0E701233A002F000A9DF4E79F
:1047F0004A46A9460A9D06E0571C434659462020D2
:10480000C84734003A00661CA542F5D84D4691468B
:10481000D7E71C9B1A1D1C921B6899465346002B18
:1048200000D1013B4E4601E0013613003278002AE8
:1048300002D05A1E002BF7D14B46F21A1092802359
:10484000DB0026001E401C4203D0524501D95346CE
:10485000109302231A0022400B92234205D03A0003
:1048600037004C46A946554620E03A00109B5F466B
:10487000B3462E0006E0551C434639002020B047C1
:1048800023002A005C1C0A999942F4D835005E4640
:10489000BB46109437004C46A946554606E01D001D
:1048A0000134561C43465946C84732002078002838
:1048B00004D0002FF4D06B1E002DF0D117004D4610
:1048C0000B9B002B03D1119B0133119354E50A9FDD
:1048D000109B06E0561C434659462020A84723005B
:1048E00032005C1C9F42F5D81700ECE721231C43E3
:1048F0001C9B1A1D1C921B680093059408230493AB
:1049000053460393102302930023019343463A0036
:1049100059462800FFF79CF80700119B01331193BB
:104920002AE57C1C43463A0059462520A847119B9E
:104930000133119327001FE57C1C43463A0059467A
:10494000A847119B01331193270015E50A4B9A469E
:1049500010E5AA46474502D343465A1E00E03A00F6
:10496000434659460020D047380013B0F0BCBB4640
:10497000B246A946A046F0BD5D3800100CB410B593
:1049800084B00A0006AC08CC0394009401000448EB
:10499000FFF7E2FC04B010BC08BC02B01847C046E8
:1049A0005538001000B583B0009313000A000100D1
:1049B0000248FFF7D1FC03B000BDC04655380010D7
:1049C00000B585B0029003910121009313004A4283
:1049D00002A90248FFF7C0FC05B000BD5F38001017
:1049E00001480421014B1847B01B0020114A001058
:1049F00010B5010018231B8814221088984710BD99
:104A000010B5010018231B8816221088984710BD86
:104A1000F0B5C64600B507000E00002501239846F4
:104A200000E00135B5420AD2AC003C192068FFF71E
:104A3000DFFF20600028F4D100239846F1E74046CC
:104A400080BCB846F0BD0000124A936F9B0815D297
:104A50009066D166002905D0FFE7FFE7FFE7516FB9
:104A6000106F704704B580210906C2175140002815
:104A700000D0C8431AF048F8002104BDF0B5146E08
:104A8000556E576F166FFFF7E3FF1466556657674D
:104A90001667F0BD000000D0114A936F9B0813D237
:104AA00010665166002905D0FFE7FFE7FFE7516F69
:104AB000106F704704B5002801D00020C0431AF0E1
:104AC00023F8002104BDC046F0B5146E556E576F33
:104AD000166FFFF7E5FF1466556657671667F0BD5A
:104AE000000000D094464A4A926F9208624601D272
:104AF00028E0C046F0B5464E346E756E776F366F5F
:104B000000F020F89446424A1466556657671667C7
:104B10006246F0BD94463E4A926F9208624601D2C8
:104B200054E0C046F0B53A4E346E756E776F366F0E
:104B300000F04CF89446364A146655665767166777
:104B40006246F0BD002B24DB11D000293EDA00B50F
:104B5000C943404200D1013100F038F8C943404216
:104B600000D10131DB43524200D1013300BD002AA4
:104B7000EBD1002801D1002905D00020C90FC907B9
:104B800001D1C043410800B519F096FF002200236F
:104B900000BD00B500290ADBDB43524200D10133DE
:104BA00000F014F8C943404200D1013100BDC943AF
:104BB000404200D10131DB43524200D1013300F0C9
:104BC00005F8DB43524200D1013300BD002923D157
:104BD000002B18D1002A0CD0BC460D4F38667A66DF
:104BE00000210023FFE7FFE7FFE77A6F386F674692
:104BF0007047002801D00748010000B519F05CFF9C
:104C00000022002300BD02000B000020002170479D
:104C1000000000D0FFFFFFFF002B00D0BFE0130C0F
:104C200028D1002AE7D080B4114F39667A66FFE7B1
:104C3000FFE730B4040C7B6F396F1B0423433B66E2
:104C40007A66FFE7FFE7FFE7C04684B27B6F3D6F00
:104C50001B0423433B667A66FFE7FFE7C046002359
:104C60002C042D0C7A6F386F00196941B0BC704765
:104C7000000000D0F0B594460025140E01D11202B8
:104C80000835140F01D112010435940F01D192009F
:104C90000235D40F01D152000135D40B0134254F18
:104CA0007C66254C3C660E0C93B2FFE7FFE7FFE7FE
:104CB0003C6F6643360C7703BE467343DF0B5B04E1
:104CC000C01AB941130C7343DB18C91ACE086643E6
:104CD000360CB64493B273431F0F1B01C01AB9417F
:104CE000130C73431F0B1B05C01AB941860D8F02AD
:104CF0003E436643360C092D24DB520A7243801A68
:104D00007703460A6643360C16235B1BDE40DF4002
:104D1000BF1964466643821B7046043506330100A2
:104D2000D940A840C01900D30131A24206D20023C5
:104D3000F0BD0000000000D0FFFFFFFF121B01309C
:104D4000F3D3F1E709277F1BFE406446A2B272430A
:104D5000801A00D20139220C7243130C1204821AF9
:104D600099410B007046043513370100F940A84003
:104D7000801900D30131002B02D1A2420AD2F0BD2A
:104D8000013000D30131121BFAD2013BF8D1A2420B
:104D900000D2F0BD013000D30131121BF7E7F0B5AE
:104DA0001C0C00D080E00CB400251C0A04D11B02AE
:104DB000160E3343120208351C0B04D11B01160FCB
:104DC0003343120104359C0B04D19B00960F3343EF
:104DD00092000235DC0B02D192185B4101351C00B8
:104DE000971864410134464F7C66464C3C660E0C75
:104DF000FFE7FFE7FFE7C0463C6F6643360C7703EB
:104E0000BE4697B27743C01B00D20139C01B00D207
:104E100001399FB27743C91BC91B170C77437E0426
:104E2000FF0B801BB941CE086643360C0C2D33DBDB
:104E3000B644120B1F053A431B0B97B27743C01BB6
:104E400000D201399FB27743C91B170C77433E0448
:104E50003F0C801BB941860D8F023E4366432927D4
:104E60007F1BFE400C3D7746AF40BF1930BCA2B25D
:104E7000ABB272437343801A9941220C7243130CF4
:104E80001204801A994102000B000137001BA9414E
:104E9000F9D2781E0021F0BD0C277F1BFE4077461B
:104EA0007F0BAF40FF19E0E700245D1C07D0144FD3
:104EB0007D663966FFE7FFE7FFE7FFE73C6F95B2E6
:104EC0009EB265436643401BB141150C1E0C654301
:104ED000664336042F0C3E432D04401BB1419942DA
:104EE00004D202000B0020000021F0BD01D190424D
:104EF000F7D3801A994101349942F2D3F6E70000C2
:104F0000000000D0FFFFFFFF48404140484018B478
:104F10001B4B5B68FC46019308BD04DF0B5200107D
:104F200018B4174B1B68FC46019308BD00DF1552EF
:104F300000109446134A926F920809D2624618B440
:104F40000F4BDB68FC46019308BD0CDFCD5400100D
:104F50000C4AF0B5146E556E576F166F6246FFF728
:104F6000EEFF084A1466556657671667F0BD18B419
:104F7000034B9B68FC46019308BD08DF715300108A
:104F8000BCA10020000000D0FFB55040424050407E
:104F900059404B40594000E0FFB5154F4C00640D9F
:104FA00003D0BC4204D10C0314D80020090D09051C
:104FB0005C00640D03D0BC4204D11C030AD800225B
:104FC0001B0D1B0501264B4009D44B4003D58B42DA
:104FD00000D18242FFBD9942FCD19042FFBD0B43FC
:104FE000DB1803431343F5D0C9434918FFBD000044
:104FF000FF07000000B5FFF7CFFF01D0002000BD84
:10500000012000BD00B5FFF7C7FF804100BDC046CD
:1050100000B5FFF7C1FF01D9002000BD012000BD90
:1050200000B5FFF7B1FF01D9002000BD012000BD90
:1050300000B5FFF7A9FF804100BD012040054A00EF
:10504000121804D85A00121801D800207047012005
:1050500070470020704700000021002805D17047EC
:10506000C1174840401AFAD0C90713B5064B1B6850
:1050700098470CBC441CA2401005120B0349091BA5
:1050800009051943114310BDDCA200201F040000D4
:1050900010B54C00620D8023D218DB00D21A5B05DC
:1050A0007E2A10DD9E3A13DACC170903490819430A
:1050B0005242D140640001341532202A05DAD04032
:1050C0000843604310BD002010BD0846604310BD7A
:1050D000C80FC018013810BD18B4044B5B6AFC46F9
:1050E000019308BD24DF7D5600100000BCA1002004
:1050F00018B4044BDB6FFC46019308BD7CDFFD5602
:1051000000100000BCA1002070B513231C78012CF6
:1051100014D0012C14DC022C02DC1F4A1F4B9A64B1
:105120001F48FFF765FC1F4B186070BD99001A48B7
:105130001A4A885001331F2BF8D9EAE70023FAE70F
:105140001948FFF75DFC05001848FFF759FC0238C5
:1051500003789B007F2B19DD802229000F4800F087
:105160003DFD022CD7D1124B1A88B5231B029A425F
:1051700009D1104B1A88104B9A4204D10F4B1A8850
:105180000F4B9A42C7D00020FEF746FB0D4B0E4A4C
:1051900032210E48FEF7A6FAD1510010BCA1002022
:1051A0004C330000DCA200205344000053460000B2
:1051B00054380000D8380000494600009C380000F0
:1051C0005946000080FE011024FF0110D4FE01109A
:1051D00007B56046002800D100BE01880A0A0230E7
:1051E000DF2AFAD1C9B2820804D3028840880004B9
:1051F000104300E00068024A5050039007BD0000D1
:10520000BCA100200FB403BC0CBCF0B50124E40722
:10521000634000E0F0B50C0DCF0F661E3605891B0C
:10522000640503D3C943404200D30131640D03D068
:10523000661CF60A07D0E41B00207F00791C890752
:105240008912803C24031D0DDF0F6E1E36059B1B4B
:105250006D0503D3DB43524200D301336D0D03D000
:105260006E1CF60A07D0ED1B00227F007B1C9B07FB
:105270009B12803D2D032F1B661B58D4A446202E65
:1052800046DA20371400BC401D00BD40F2403341D7
:105290002A4380185941CB0F05D0C943C04300228F
:1052A00064425041514162464D0D28D10D0D07D148
:1052B00000281FD0241940414941013A0D0DF9D071
:1052C000640006D3013000D30131002C01D1400825
:1052D0004000013A0BD4941CE40A04D11205114495
:1052E000DB071944F0BDD907204B194300E0D9076B
:1052F0000020F0BD0029DDD1002CDBD1F0BD013252
:10530000C6074008CD0728434908002EE1D0D9E759
:105310003C2E29DA203E40371400BC4000D0012446
:10532000F24014431A00BB401C43D317ACE7AC4611
:10533000202F08DA20360400B4400D00B540F840B4
:1053400039412843A5E73C2F0CDA203F40360400C2
:10535000B44000D00124F84004430800B1400C439D
:10536000C117EAE710001900002494E70000F07F5D
:10537000F0B50C0D661E3605891BE60A6405640D42
:1053800002D0651CED0A04D0002001210905803CF3
:105390002403A4461C0D671E3F05DB1BE70A6405BA
:1053A000640D02D0651CED0A04D0002201231B0508
:1053B000803C24037740644497B484B296B274432B
:1053C000070C7E43150C6F4380B26843361802D336
:1053D000012000043F183004350C00197D4184463B
:1053E00088B29AB250430C0C62431F0C7C438EB2BD
:1053F0007E43921902D301263604A4191604170C11
:105400003618674101BC81B29AB25143040C624321
:105410001B0C5C4380B25843121802D301200004D5
:1054200024181004130C401863412D185E4100200D
:10543000474106BC88B293B258430C0C6343120C2C
:10544000544389B251435B1802D301210904641803
:1054500019041A0C091862416D1856410020474181
:1054600018BCF902720D1143F0026A0D1043ED02EF
:105470000A0D03D16D1940414941013B124E9B1B5E
:105480007600B3420ED26D0007D301300026714181
:105490006646354301D1400840001B05C918E407A2
:1054A0002144F0BD0BDA013306D1013004D10131C2
:1054B0004F0D01D04908F2E7E1070020F0BD0136A9
:1054C00031050020EBE70000FF030000F0B51C0DE4
:1054D000671E3F05DB1BE70A6405640D02D0661CEE
:1054E000F60A04D0002201231B05803C2403D025AA
:1054F0002D060026F6432E661E096E66CE0FF6199F
:10550000B44649004F0D02D07E1CF60A03D000209D
:105510000021403F3F033E1BB600B444013F7F05DE
:10552000C91B49082E6F013676089C02950D25434C
:105530007543ED137543AD1301356D10F603761BFE
:105540000CB4CC02450D2C43A2B2B3B25A43270C83
:105550007B43350C6F43A4B26C431B1902D3012467
:1055600024043F191C041D0CA4187D4124196D410D
:10557000009A91B2ACB26143170C7C432B0C5F4391
:1055800092B25A43A41802D301221204BF18220473
:10559000230C52187B41019C6C431B19520ED901FC
:1055A0000A434401A01A81B2B2B2514303145A43D0
:1055B000360C734387B27743D617D21900277E4142
:1055C00036049B191704160C7F185E417316ED18EC
:1055D000F301002680337541A90F06D16400690AE2
:1055E000E8055B0A184309D22FE004229444803373
:1055F0007541A90AA8059B0A184326D34041494191
:105600002404009A019B0D005543641B4343E41A94
:1056100095B286B27543170C7E43030C5F4392B27A
:105620005A43B61802D301221204BF183204330CB5
:1056300052197B4152429C41002C02D4002201307D
:1056400051414008CA071043490802B06246D707D3
:105650009210084BD218084B9A4203D212058918AF
:10566000C919F0BD0020002A01DC3900F0BD01336A
:105670001905F5E7FD030000FE070000002200B554
:10568000203200F004F8080000BD000000220B15D5
:105690000AD410B5944600F05FF81414013400DA0F
:1056A0000021CB17144C2047002000217047624492
:1056B000343A0CD40C2A07DA04009140904052424C
:1056C0002032D440214310BDD843D94310BD2032ED
:1056D00007D40C469440524220321141D04020431E
:1056E00010BD0800C917203203D4524220321041A5
:1056F00010BD1800190010BDAF5600104A00520D21
:10570000144BD21A13DDFF2A1EDAD205CB0FDB07AA
:105710001A43C300400F0903490A084310435B00C2
:1057200001D301D0013070474308FBD2704702D04B
:10573000C80FC00770470A0312130132F8D1420F95
:10574000072AF5D1012200E0FF22C80F00028018CD
:10575000C0057047800300000A0DCC0F531E1B05C7
:10576000C91A520503D3C943404200D30131520D37
:1057700003D0531CDB0A07D0121B00206400611CFD
:1057800089078912803A1203014BD21A7047000030
:10579000FF03000051434343C9188C46110C83B2E8
:1057A0004B4310B4040C614392B280B25043624345
:1057B0001C041B0C001910BC59411304120CC01816
:1057C0005141614470470000484041404840002337
:1057D0009C46114B5B68184700239C460E4B1B6888
:1057E00018470E4A936F9B0804D200239C460A4B2D
:1057F000DB681847F0B5146E556E576F166FFFF7DC
:10580000F4FF064A1466556657671667F0BD002315
:105810009C46014B9B681847E0A20020000000D086
:1058200007B548404140484001E0C04607B5420046
:10583000120E03D0FF2A03D1420218D8C00DC005B2
:105840004A00120E03D0FF2A03D14A020FD8C90D15
:10585000C9050122414005D4414001D5814207BD1F
:10586000884207BD0143491801D0C043001807BD55
:1058700000B5FFF7DBFF01D0002000BD012000BD17
:1058800000B5FFF7D3FF804100BDC04600B5FFF76C
:10589000C7FF804100BD491A002807D1084670475C
:1058A000C10FC90700D54042002817D0F44603B401
:1058B0000B4B1B68984706BC81409E3840428031A4
:1058C00007D20B0607D04900490AC0051043084318
:1058D00060470130F8E7490A8902F5E770470000A0
:1058E000DCA2002041000A0E80231B067E2A0BDD6D
:1058F0009E3A0BDAC1174002400818435242D0408A
:10590000490001314843704700207047C00FC0185C
:1059100001387047C0420DD300B540004008002157
:1059200000F012F8002801D4404200BD802000069B
:1059300000BD0000034BDB69FC4618471CDF9D5A85
:1059400000100000E0A2002000239C46014B5B6A8F
:1059500018470000E0A20020034BDB6FFC4618470D
:105960007CDFB55A00100000E0A2002070B51323C0
:105970001D782A48FFF744F80400012D11D0012DAD
:1059800009DDA31E1B789B007F2B40DD80222100B8
:10599000234800F023F92348FFF72AF8224B186028
:1059A00070BD542201001E4800F018F91F4B1A88E0
:1059B0001F4B9A421CD1A7239B011A881D4B9A4268
:1059C00016D11D4B1A881D4B9A4211D11C4B1A88B7
:1059D00094239B019A420BD11A4B1A881A4B9A4274
:1059E00006D11A4B1A681A4B9A4201D1152307E0C7
:1059F0001848FDF711FF99001748094A88500133EC
:105A00001F2BF8D9144A064B1A62DA61B7E7134B19
:105A1000134A42211348FDF765FEC0465346000075
:105A2000E0A200204C330000DCA20020EE290000A0
:105A3000C40F0000C20D0000962B0000C0B500008E
:105A4000182B0000CC2A000010B50000FC2C000030
:105A500051ED8764841C0210695A001038FF011050
:105A6000BCFF01106CFF011007B56046002800D193
:105A700000BE01880A0A0230DF2AFAD1C9B28208C0
:105A800004D3028840880004104300E00068024A02
:105A90005050039007BD0000E0A200200021C21575
:105AA0008032803201D0024A104700207047000047
:105AB000CD2A0000C30FDB0741000A0E07D0FF2AE2
:105AC00008D00909054A8918194340077047190089
:105AD000002070470249C918FAE7000000000038AA
