:020000041000EA
:1000000000B5324B212058609868022188439860DF
:10001000D860186158612E4B002199600221596106
:100020000121F02299502B49196001219960352056
:1000300000F044F80222904214D00621196600F024
:1000400034F8196E01211966002018661A6600F04E
:100050002CF8196E196E196E052000F02FF8012189
:100060000842F9D1002199601B49196000215960AB
:100070001A491B48016001219960EB211966A021F2
:10008000196600F012F800219960164914480160C1
:100090000121996001BC002800D000471248134993
:1000A000086003C880F30888084703B5996A0420EC
:1000B0000142FBD001200142F8D103BD02B5186610
:1000C0001866FFF7F2FF186E186E02BD00000240BE
:1000D000000000180000070000035F00212200005C
:1000E000F4000018222000A00001001008ED00E03C
:1000F00000000000000000000000000074B24E7A12
:1001000000200420F7010010C3010010C5010010F9
:10011000C1010010C1010010C1010010C101001097
:10012000C1010010C1010010C1010010C701001081
:10013000C1010010C1010010C9010010CB01001065
:10014000CD010010CD010010CD010010CD01001037
:10015000CD010010CD010010CD010010CD01001027
:10016000CD010010CD010010CD010010CD01001017
:10017000CD010010CD010010CD010010CD01001007
:10018000CD010010CD010010CD010010CD010010F7
:10019000CD010010CD010010CD010010CD010010E7
:1001A000CD010010CD010010CD010010CD010010D7
:1001B000CD010010CD010010CD010010CD010010C7
:1001C00000BE00BE00BE00BE00BE00BEEFF3058054
:1001D000103800BEF2EB887158730110787301106B
:1001E0003402001090A31AE700201F49086006C8D7
:1001F00081F3088810471D48006800282FD10DA4FE
:100200000ECC002902D000F012F8F9E71849194A7B
:10021000002000E001C19142FCD1174988471749ED
:1002200088471749884700BEFDE701C901C29A42C5
:10023000FBD3704778730110C000002044190020E0
:10024000FC8B01100000042000000420FC8B011036
:10025000001004200010042000000000704709482E
:1002600003F02CF90047000008ED00E0000000D08A
:100270004819002024750220611D00109D03001004
:10028000891E00105756000006005250ABB3605351
:100290006863011006005250861C03027863011047
:1002A000060052505422A29D88630110050052504E
:1002B000DE65F468FC8B0110F8B5C0460448054BB8
:1002C00010B5834203D0044B002B00D0984710BDDB
:1002D0004419002044190020000000000648074986
:1002E000091A8B10C90FC91810B5491003D0044B57
:1002F000002B00D0984710BD44190020441900205D
:100300000000000010B5074C2378002B09D1FFF73F
:10031000D5FF054B002B02D0044800E000BF0123AD
:10032000237010BDB061002000000000606001106B
:10033000054B10B5002B03D00449054800E000BF71
:10034000FFF7CCFF10BDC04600000000B4610020E4
:100350006060011010B50E4C002221000D4807F01E
:100360007DFB2368013323600B4B1A78002A07D0EA
:10037000D022802112068904916100221A7010BDDA
:10038000D02280211206890451610122F6E7C0467D
:10039000687000209C700020580F002030B52A4B58
:1003A000C1B00193294B0021294A00930120294B18
:1003B00008F036FB192000F0D3F8D02380221B066A
:1003C000920402AC5A6220000CAD08F087FA2B00B0
:1003D00007CC07C3FA2006CC06C38000782108F0BA
:1003E00039FB041E01D041B030BD00222B001100AA
:1003F00011A808F07BF9184A184911AB0AA808F0AF
:10040000BFF909F069F9164B02000AA9154808F06E
:10041000F1F9154B154A009311A9002309A808F01A
:100420001DFA2B00012211A91EA807F09BFE09A9A5
:100430001EA807F0F7FE0E4B1C6000230D4A1EA8F5
:1004400008F01CF9F9E7C046FD040010C5040010CF
:10045000B5040010C1040010C06F011060600110ED
:100460006C6001109C7000205503001000CA9A3B7C
:100470006870002000E1F50570B50C0000F074FF15
:1004800000230B4A06000D0003F0B0F800232060A3
:100490006160074A3000290003F0A8F810005301FA
:1004A0009B1A9A001218D2000020A26070BDC046AC
:1004B00040420F0010B504F0FDF8012010BDC04609
:1004C00001207047F0B5C6460F001600984600B5EB
:1004D000002A0ED0002402E00134A64209D03D5D7E
:1004E000280004F065F88542F6D001234246260034
:1004F0001370300080BCB846F0BDC046F0B5C646AB
:1005000000B517001C00884600F02EFF02000B000B
:10051000002F23D06101091B89000919C9000C00B3
:10052000CD17A4185D41002608E004F0C7F8431C6D
:100530000DD0434698550136B7420BD000F014FF5A
:1005400022002B00121A8B411000002BEDDA012340
:10055000069A1370300080BCB846F0BD0026F9E75B
:100560000123D0228340120693629361094A8300DB
:100570009446402263441968C0004A40C02111409B
:100580008022520113431960034B9C4605236044AB
:100590004360704704C0014000400140024B1868AE
:1005A0008007C00F7047C04600C0064070B5EFF32B
:1005B000108C72B60D4D2B68002BFCD0BFF35F8FF3
:1005C0000724CB08C618C05C01230C40A3401C00C4
:1005D0000440034207D103433370BFF35F8F2C60A5
:1005E0008CF3108870BD100001F052FC2C0100D07B
:1005F000F8B54746CE46884680B5EFF3108C72B604
:10060000214D2C68002CFCD0BFF35F8F9A422CD870
:10061000D4080727055D061901241740BC402C4269
:100620001FD007210127894609E0D408055D061976
:100630004C4639001440A1400C00294211D001322F
:100640009342F2D201204042BFF35F8F00220E4B53
:100650001A608CF3108800280FDBC0BCB946B04686
:10066000F8BD2C4310003470EEE7BFF35F8F00231A
:100670002B608CF31088012040424346002BECD0C5
:10068000089801F005FCC0462C0100D00021044B65
:10069000044ABFF35F8F02C39342FAD17047C0464A
:1006A000000100D0800100D0044A1078431CDBB266
:1006B000172B00D9102313707047C046590F002024
:1006C00000B5054B83B00100009318221F23034897
:1006D000FFF78EFF03B000BD7C600110646700204F
:1006E00001238340002904D0034A1360034A1360A6
:1006F0007047034A1360FBE780E200E000E100E09E
:1007000080E100E001238340014A13607047C04646
:1007100000E200E0084B10309B688000C358002BBB
:1007200007D0064A00209B1A2F229A424041C0B2AD
:1007300070470020FCE7C04600ED00E05C0F0020A1
:10074000024B10309B688000C058704700ED00E0FD
:1007500070B50D00EFF3108672B60F4A1368002BC8
:10076000FCD0BFF35F8F0D4B10309B6884001B598A
:100770000B4A934203D09D4201D001F0A1FB074BED
:100780009B681D51BFF35F8FBFF35F8F0022024B49
:100790001A6086F3108870BD240100D000ED00E0DF
:1007A000CD010010F0B557464E46DE464546E0B551
:1007B00085B0060002911700EFF3108B72B6674AFE
:1007C0001368002BFCD0BFF35F8F0025644B5D578F
:1007D0009A46002D00DAA4E06B00624C03935B198B
:1007E0009B009846A146C1444B4652469B79103621
:1007F00013705D4BB2009B68019299580B1B2F2B15
:1008000034D95A4B994200D0A4E0039B584A9C46E5
:10081000584B6544AD006353434602336519E418F1
:10082000554B0121043B1B1B1B055B0D13436B80C8
:10083000524BEF71AB80FF23AB71029BAB604B4619
:100840000B431900484B019A9B689950BFF35F8F87
:10085000BFF35F8F0022414B1A608BF3108805B005
:10086000F0BCBB46B246A946A046F0BD01200A0036
:100870008243D379BB422FD845464E4613004049A8
:100880001B1B5B415943090D3A4B63533A4B0235ED
:100890006519043B5B1B1B05354D5B0D2B437380BA
:1008A0000426B446E0444444131F1B1B4C46A1716C
:1008B00002991B05A16049465B0D2B43A380314B78
:1008C000E77101431360BDE75800C018800020188D
:1008D000C679BE422BD902000623D356002BF3DA89
:1008E000101D82462848804604267642B446E144DC
:1008F00050464E46361A3005400D824656461C4834
:10090000957106439680039A944665441D4AAD004E
:10091000641922604246A371029BA280E771A36022
:1009200090E701F0CDFA002553465D5754E7101DBE
:10093000824690884005001584464046D444664669
:1009400004302018301AE0260005400D36023043EE
:100950008046C9E701F0B4FA57E7C046240100D049
:100960001B7502205C0F002000ED00E0CD0100109F
:1009700000E0FFFF00A1FFFF8C0F002001BDFFFF83
:10098000AAAA00000148804701BD0000F0B5DE467C
:1009900057464E464546E0B50C0083B0EFF310894C
:1009A00072B6584A1368002BFCD0BFF35F8F564BCA
:1009B0009A68030010339F00D559544A90469542D7
:1009C00032D0A54243D0524EAA1B2F2A2CD8012246
:1009D0008240924651464F4A126811400191514659
:1009E0004D4A1160BFF35F8FEFF305829346002AF3
:1009F00033D101232A009A4393689C4208D177E0BF
:100A00004B005B189B00F3189968A1422AD01A008A
:100A1000062151560029F3DA019B002B19D05246CA
:100A20003E4B1A603B4B1A60374B9B68DD51BFF35E
:100A30005F8FBFF35F8F0022324B1A6089F31088FB
:100A400003B0F0BCBB46B246A946A046F0BD1500B7
:100A5000EAE75246304B1A60E6E79342C9D001F00C
:100A60002FFAC6E706215956002921DB4A00501803
:100A7000800034188046A0689860E079D87106201C
:100A800020569871002824DBA488F01A64052415E8
:100A900044440019E0240005400D240220439880BE
:100AA00052181F4B9200B6181A781970B271B3E73A
:100AB000594600290FD1FF3191711A499180184987
:100AC0000A789A71184A9B1B5B415A43120D0A70AF
:100AD000A2E71648E3E7164A1649D21A083A500226
:100AE000400D01439980144952080A43DA8093E784
:100AF0000621515613000029B8DA5A46002AEAD1D5
:100B00004546DCE7240100D000ED00E0CD010010F7
:100B10005C0F002000E100E080E100E080E200E006
:100B20001B75022001BDFFFFAAAA000001BD000045
:100B3000960F002000F0FFFF00F8FFFF70B5EFF305
:100B4000058101240443EFF3108C72B6214A136827
:100B5000002BFCD0BFF35F8F1F4B05001F4AED1A1F
:100B60006D416A43120D1E4D8900AE6852B276582F
:100B7000A6421CD00621595691421CD0122159562A
:100B8000914222D01E215956914220D02A215956F5
:100B90000324914210D0134B19781A708171BFF35E
:100BA0005F8F00220B4B1A608CF3108870BDAB680E
:100BB0000D4C5C50EFE700246100091989005B18B7
:100BC000FF21997109499980E5E70124F4E702249E
:100BD000F2E7C046240100D05C0F0020AAAA000062
:100BE00000ED00E01B750220CD01001001BDFFFFEC
:100BF000054B064A1360064A136053609360D36046
:100C000013615361936170478080808000E400E04D
:100C100004E400E000B5074B83B00100009300221C
:100C200005230548FFF7E4FC002801DB1F23181A01
:100C300003B000BD9860011020750220024B9C4655
:100C400061448900016070474000003410B5040021
:100C5000FFF72AFD01002000FFF7F0FF01235B42B0
:100C60006360BFF35F8F10BD10B50400FFF71CFD7C
:100C700001002000FFF7E2FF01235B4263600023D5
:100C80002372BFF35F8F10BD10B504000120FFF782
:100C900017FD044B9C46604480002060BFF35F8FCB
:100CA00010BDC04640000034034B9C46614489009F
:100CB0000160BFF35F8F70474000003483680B48CA
:100CC00010B5844661446244090112019A1859180A
:100CD00054684B6801209C4201D802D00020C0B269
:100CE00010BD12680B689A42F9D8F7E7FFFFFF0FB3
:100CF000074810B50268EFF3108172B61368002B35
:100D0000FCD0BFF35F8F05F0B7FF0020002110BDBE
:100D100090730020F8B557464E464546DE46E0B58E
:100D200099460CAB1C780DAB1B78060090469A4692
:100D30000768002C11D1BC7B002C42D065003B68B9
:100D40002D19033D59194B78BB73002B00D1FB7350
:100D500000238B704B700B7004E065003B682D190D
:100D6000033D5919B2682A4B94464246E3181B01C9
:100D700063441A604A465A600A9A9A600B9ADA608B
:100D800000238B704B700B707B7B9B46002B2BD012
:100D900022005946B8687B6898473A68002816D000
:100DA0005B4658465B005B445519033BA870D1185D
:100DB000D35C002B00D06B705B460C707B73A3453B
:100DC00013D0F0BCBB46B246A946A046F8BD5B4670
:100DD0005B005B44033BD3189C705119525D002AA1
:100DE00000D05A705B460B707C7342464B46307D98
:100DF00000F034FB051E06D05346002B03D1210022
:100E0000306800F04FFD0E9B002BDAD01D70D8E744
:100E1000FFFFFF0FF0B5DE4657464E46454600231E
:100E2000E0B58BB00893674B8200D45800239B46F3
:100E3000099000F099FA626806000F00EFF3108540
:100E400072B61368002BFCD0BFF35F8F23689C46FB
:100E50005B7B9946002B00D169E0A2685A4B904613
:100E60004B441B01984443461A685B681000190004
:100E7000801BB941002900DC63E0099800F0EEFA1C
:100E800000230022984600230692079300239A46E7
:100E90006368BFF35F8F5A461A6085F31088534624
:100EA000002B08D10028C4D10BB0F0BCBB46B24621
:100EB000A946A046F0BD089B414618024B46184380
:100EC000D047626806000F00EFF3108572B6136812
:100ED000002BFCD0BFF35F8F002F50DB33003B4370
:100EE00002D02369002B61D12368D97B002907D068
:100EF0004A00521819688C4649466244033A5170B8
:100F00009A7B002A01D14A469A734A46DA734B46C5
:100F1000E168013BCA5C0132CA545B4623616368E5
:100F2000BFF35F8F5A461A6085F3108881E700236C
:100F300000229846002306920793002300209A4639
:100F4000A6E7002902D1002800D096E700216046DC
:100F500000F026FC43461A685B68069207934346F6
:100F60009B689A464346DB689846E3684B44013BDE
:100F70001B7808931B0203432361002088E7236941
:100F8000002BB1D0069A079B921BBB41002B15DBAF
:100F9000594604910121039149460291414601912C
:100FA000514620000091FFF7B5FEB6E700F0DCF9EE
:100FB00032003B0012184B41002BE9DA0122034BAF
:100FC0005242E5E78C700020FFFFFF0FFFFFFF7F1D
:100FD00010B5144C6368002B04D00A211248FFF7A7
:100FE0002DFE10BD2300114A1021206800F0F2FAF6
:100FF000032000F0ADF9032000F09AFA03200C4919
:1010000000F0E6F9FFF750FB0A4B9C4603232375DB
:10101000D0231B061B6860446375074B800060602B
:10102000DC60DAE7A40F002090730020BD0C0010F4
:10103000150E0010400000348C70002000487047EE
:10104000A40F0020F0B54E464546DE465746E0B5B3
:1010500085B0019310AB1B780600039300239946DB
:10106000984600927268EFF3108B72B61368002BEB
:10107000FCD0BFF35F8F3568AC7B002C3DD06700A0
:101080002B683F19033FDB195A78AA73002A00D155
:10109000EA73B168474A8C4600980199A218120178
:1010A0006244106051600E9991600F99D160424680
:1010B0009A705A701A706B7B9A46002B67D0220088
:1010C0001900A8686B6898472A68002852D05346D0
:1010D00050465B005344D719033BB870D118D35C1A
:1010E000002B00D07B7053460C706B7354454FD06F
:1010F000F3681B19013B187800E000207368BFF308
:101100005F8F42461A608BF31088002C4FD04B46FD
:10111000002B08D10002204305B0F0BCBB46B2460C
:10112000A946A046F0BD039B002B3ED00E9B00209D
:101130000F999847030004000D000B4335D0002998
:101140000ADA009A019B121BAB4100920193002B1B
:101150000ADB039B994685E700F006F924184D4108
:1011600000940195002DF4DA0123134C5B420093A7
:101170000194EEE753465B005344033BD3189C7045
:10118000D119D25D002A00D05A7053460B706C738F
:10119000307D009A019B00F061F981460028A7D0BC
:1011A0002100306800F07EFBA2E70020B4E70120B8
:1011B0004042B1E7FFFFFF0FFFFFFF7F407D704719
:1011C000F0B5EFF30583CE46474680B505000C0029
:1011D00085B0002B12D02C4A0020536A9C4203D8C1
:1011E000926A0130AA4204D305B0C0BCB946B046E9
:1011F000F0BDE01A421E9041C0B2F5E7234E0293C3
:101200000193234B0200009330000B00FFF71AFFFD
:10121000031EE0DD20BF7168EFF3108772B60A6825
:10122000002AFCD0BFF35F8FDAB294463068427B6D
:1012300062451DD0FF221A40510089460168914441
:1012400088464946414403398978002913D0F1681A
:101250001B0A88464244013A1278DBB29A420FD008
:101260007368BFF35F8F00221A6087F31088B2E7BC
:10127000FF221A40EBE732699342F1D13161EFE787
:10128000614600F00FFBEBE700400540A40F002093
:10129000F10C0010F0B5EFF30582D6464F464646F6
:1012A0001000C0B51038EFF3108872B6214C2368D7
:1012B000002BFCD0BFF35F8F0123190081401E4D2E
:1012C0001F006963AA461D4D29601D4D2E78AC464E
:1012D0003500C5402F402B4209D1BFF35F8F2760F7
:1012E00088F31088E0BCBA46B146A846F0BD534624
:1012F000144D5F6A83005D59AF420ED3124A8E438C
:101300009B5862461670BFF35F8F0022226088F3FD
:101310001088002BE6D09847E4E70C4B92009C46DF
:10132000624413681360BFF35F8F0023236088F368
:101330001088D7E7280100D0004005403C700540E8
:101340001F750220BC7300204C660020D03F054072
:1013500010B50100024A0348FFF728F910BDC04646
:10136000B460011017750220034B596A0A00986A8D
:10137000596A8A42FAD170470040054070B50400AE
:101380000D00124A536A1900966A536A8B42FAD1C9
:101390003000190024184D41AB4211D80ED02B005B
:1013A0000A494A6A9A42FCD307D1084A02E0516AC4
:1013B000994202D1916AA142F9D370BDA642EED9F9
:1013C000012301246442E5175B42E9E70040054040
:1013D00070B504000D00EFF3108672B61A4A136858
:1013E000002BFCD0BFF35F8F002D1BD02000FFF738
:1013F000A7F9164981420AD02000FFF7A9F9012177
:101400002000FFF76DF90123A340114A1360114B2F
:10141000A400E550BFF35F8F00220B4B1A6086F3E8
:10142000108870BD0B4BA200D5500122A2400A4982
:1014300020000B7893430B700449FFF7A7FA0021B3
:101440002000FFF74DF9E5E7280100D095120010C4
:10145000386005404C6600201F750220F0B54F46ED
:10146000D6464646C0B507002C4C616A0D00A66AF8
:10147000616AA942FAD18B4208D805D00120E0BCAC
:10148000BA46B146A846F0BDB242F7D9EFF3108A8A
:1014900072B6234801680029FCD0BFF35F8F012595
:1014A000BD4020491D4C8846097889462943C9B268
:1014B0008C46414660460870391D1B4889006563AB
:1014C0000A51B9000B50216A0020294219D0616AE3
:1014D0000800A66A616A8142FAD18B4219D801D10B
:1014E000B24216D8CC4516D00C4B1F201D625D634E
:1014F00001230740BB400D4A1E38136043464A464D
:101500001A70BFF35F8F0022054B1A608AF31088B0
:10151000B5E70020F5E70120F3E7C04600400540AD
:10152000280100D01F750220BC73002080E200E07B
:10153000EFF3108C72B60A490B68002BFCD0BFF396
:101540005F8F01238340074A0748136202789A435A
:101550000270BFF35F8F00230B608CF3108870471D
:10156000280100D0004005401F75022070B505001D
:1015700014001600002915D00C00002A12D0806833
:101580006B689847296800280ED073009B19620089
:10159000033B1219CB18033A9C7088188A5C002A06
:1015A00015D10670200070BD63001B197200033B4B
:1015B0009219CB18033A9E7088188A5C002A02D1CF
:1015C00004703400EEE75A7004703400EAE75A7091
:1015D0000670E7E730B583600023CCB24373013374
:1015E000047342608373C4730D000068012C06D934
:1015F000421C0133DBB2137003329C42F9D1FF214C
:1016000029404B005918002340180338437030BD5F
:10161000F8B5CE46474606000C0080B5002907D035
:101620004D0003686D18033D5A195778002F04D1F7
:101630002000C0BCB946B046F8BD7900C9190339CD
:10164000884643445978894600215970517073681F
:101650003A002100806898473368002814D0424639
:101660009A18947059195B5D002B00D053700F705D
:10167000270049463000FFF7CBFF39000200300059
:10168000FFF774FF0400D3E7424641465D19AF708F
:101690009A185B5C002B00D06B701470E9E7C046B1
:1016A000F0B557464546DE464E46E0B50D006B00A8
:1016B00001685B19DF1E0400C85D83B00192CA197E
:1016C000002850D043001B18033BCB185E78B4466B
:1016D000002E1AD1019E002E42D0E67B002E04D0AF
:1016E00073009B19CB18033B5D70A37B002B00D1CB
:1016F000A573E57300282FD10023537003B0F0BC0D
:10170000BB46B246A946A046F0BD72006244033A09
:1017100089184A78904600224A7091465A70010012
:1017200032002000FFF722FF43468246002B07D0FD
:101730005B0021684344033BCB185A78002A16D13A
:10174000424651462000FFF711FF2168019BCA194C
:10175000002BC2D10028CFD043001B18033BCB186D
:1017600000219970C8E7019B002BB6D1C4E7500057
:1017700080180338091848788346484648705870DE
:1017800041462000FFF7F2FE594680462000FFF751
:101790003FFF414602002000FFF7E8FE8046CFE70A
:1017A000F0B557464546DE464E46E0B583B001915A
:1017B000457B04006B0000685B19DF1EC15DC21928
:1017C000002952D04B005B18033BC3185E78B44627
:1017D000002E1CD1019E002E44D0E67B002E04D0AA
:1017E00073009B19C318033B5D70A37B002B00D1D2
:1017F000A573E573002931D100232800537061736C
:1018000003B0F0BCBB46B246A946A046F0BD72008C
:101810006244033A80184278904600224270914612
:101820005A7020003200FFF7A1FE43468246002B8B
:1018300007D05B0021684344033BCB185A78002A49
:1018400017D1424651462000FFF790FE019B010050
:101850002068C219002BC0D10029CDD04B005B18E5
:10186000033BC31800209870C6E7019B002BB4D13E
:10187000C2E7500080180338091848788346484664
:101880004870587041462000FFF770FE5946804668
:101890002000FFF7BDFE414602002000FFF766FE74
:1018A0008046CEE770B5040000292CD0437B8B42E4
:1018B0002ED0056848004018033828188278002A7E
:1018C00021D053009B18033BEA5CEE188A4202D1F8
:1018D0001BE0002A08D053009B18033BEB185A78F2
:1018E0008A42F6D142785A700023012283704370F5
:1018F0002000FFF7D5FE617B02002000FFF736FED7
:101900006073012000E0002070BD43783370EBE786
:1019100001221900FFF7C4FE60730120F4E7C046FE
:1019200030B50C2083B000F0B3F9FEF737FE002885
:101930000ED0994B994A1A605A609A60DA601A611F
:101940005A619A61DA611A62954A5A6203B030BDEF
:10195000944CA06700F0F0F90122934B1A60636C7D
:10196000012BFCD10322914B1A608E4A936B012B01
:10197000FCD1013301218E4A8E480093043300F0DC
:1019800037F905238C4A009301218C4800F030F987
:101990008B4B5A68FF2A02D8802252005A6080225C
:1019A0007D4C824B21691201854D1A60002907D0B8
:1019B000606901F0DDFD431C5800C0180338FDD2FA
:1019C000E0217F4B02201A681140802252012A43F5
:1019D00011601968484003210140116004219A6890
:1019E0001142FCD08022802192012A43090111601A
:1019F000802252005A60734B2361734B5968FF2950
:101A000000D85A600321684A6F4B116002399A6806
:101A10001142FCD0E0201A681040802252011A4383
:101A20001060186848400321014002201160664997
:101A30008A681042FCD08022920113438022120156
:101A40001A608022614B52004A606361604B5968A2
:101A5000FF2900D85A6080225E4BE16912015C4D7B
:101A60001A60002907D0606901F082FD431C58000C
:101A7000C0180338FDD2E02255490B681A40802374
:101A80005B012B431A60802380229B012B431201B0
:101A90001A608022414B52004A60E3614E4B596804
:101AA000FF2900D85A6080224C4B216A12014A4D0E
:101AB0001A60002907D0606901F05AFD431C5800E4
:101AC000C0180338FDD2E02243490B681A40802336
:101AD0005B012B431A60802380229B012B43120160
:101AE0001A60802380225B004B602C4BD202236261
:101AF0003B4B5968914200D25A608022394B616A4F
:101B00001201374D1A60002907D0606901F030FDDD
:101B1000431C5800C0180338FDD2E02230490B683E
:101B20001A4080235B012B431A60802380229B0193
:101B30002B4312011A608023DB024B60184B636257
:101B4000294B5A68FF2A02D8802252005A6080220C
:101B5000264BA1691201244D1A60002907D0606943
:101B600001F006FD431C5800C0180338FDD2E022E6
:101B70001D490B681A4080235B012B431A608023A8
:101B800080229B012B4312011A6080235B004B6073
:101B90000E4BA361DAE6C04678670020006CDC02D9
:101BA0001BB70000008000403CB0004030B0004057
:101BB000002F685900800240008C864700C0024018
:101BC00030800040001BB7003C8000404059730744
:101BD0005480004054B000406080004060B000403D
:101BE0006C8000406CB000404880004048B000402D
:101BF000F8B5040021481D0017000E0001F0B8FCE4
:101C00000100380001F0B4FC069B29041B031943B2
:101C10002368002B20DB1A4B1A4DE21853425A411D
:101C200080235B019C461203174B62441A60174BDA
:101C30001A601700AB689F43FBD1C022231D92019D
:101C40001A4321232660A06013602368002BFCDA6E
:101C50000823E1601360F8BD3F2322681340B342BC
:101C6000D9D1A3681B051B0D8342D4D1EE22E368B2
:101C7000D20213408B42CED1EDE7C046001BB70025
:101C80000040FDBF00C0004000E0004000F0004008
:101C90008023024A9B000343D362704700800540C3
:101CA00010B5140080221B4BD2051A6000281AD0F0
:101CB0000123194A1843194BDA61194A42401A6242
:101CC000596298628022134BD2051A601549164A50
:101CD0001160E022D2041A60002C07D18022134B3D
:101CE00012061A6010BD0D4BD861EBE763011B1B98
:101CF0009A008023121912015B049A4200D30C4A05
:101D00000C4B1A60054B5A608022084BD2051A60B2
:101D1000E8E7C04600B00540D3C007B000800540EA
:101D20002D3FF84FFCFF01000820014000A00540B6
:101D3000FFFFFF004C700020AA23064A1B0113601E
:101D40002F230549D360054B19605368002BFCDA3B
:101D50007047C0460040024000B0FA0000600240F8
:101D60002C4B2D4A70B51A602C4A2D4B2D491A6008
:101D700014008B689C43FBD12B4D2C4EB54208D2EE
:101D8000013E761BB60808CD984723000134B342C4
:101D9000F9D1FFF7C5FD264A214B1A60214A936805
:101DA000DB43DB01DD09002BF9D14022214B224C22
:101DB000224E9A675A671A67DA66B44208D22368D5
:101DC0002000002B20D00C34FEF74EFFB442F6D397
:101DD0001B4E1C4CC022A168300002F055FBA660CF
:101DE000FEF754FCFEF704FFFFF7F2F8164C174E0F
:101DF000B44208D2013E361BB60808CC98472B00E7
:101E000001359E42F9D170BD0834FEF71FFFB44280
:101E1000D5D3DDE700E00040BFCDFBFEFE7F3C00F8
:101E200000F0004000C000402419002034190020B8
:101E3000FFFFFF0100F001401419002024190020C9
:101E40000000002000ED00E03419002044190020BB
:101E500000BEFDE7094A03001068002805D00849C4
:101E6000C3188B4207D81360704706480449C3184B
:101E700010608B42F7D901204042F5E7346C002016
:101E8000000004202475022010B5FFF7E1FFC046D2
:101E90000FB400B5084883B002F0D6FB049B002BBA
:101EA00007D005A91800019101F0E8FA034802F0F3
:101EB000CBFB0120FFF7CCFFD8600110E8600110D8
:101EC00010B50148FFF7E4FFEC6001109A4200D220
:101ED000885470477047C046F8B557464E46454649
:101EE000DE46E0B599460A9B07009A460D9B884658
:101EF000934615000B9E9B0710D10C9B9E420DD262
:101F00009D1B14000E005D4422004B46013431003D
:101F10002020B847A542F7D1B0460B9E002E27D00F
:101F2000444675195346AA1B013E985D21004B4655
:101F3000B847002EF6D123002C0098460D9B9B0736
:101F40000FD55B46E51A0C9BAB420AD9464698462C
:101F500022004B46310020200135B8470134A84506
:101F6000F6D82000F0BCBB46B246A946A046F8BD54
:101F70002C00E3E7F0B54F464646D646C0B584B0E0
:101F800098460EAB1B78129F994694460D9C109B69
:101F9000119EBA0725D4002E4BD19C4200D3BFE03E
:101FA00001223A4092461F2C00D9B8E00C9A551EE7
:101FB000302201E0202C03D001342A55A342F9D865
:101FC0005246002A0DD0A6420BD9202C44D00C9AA0
:101FD000551E302201E0202C3ED001342A55B44257
:101FE000F9D1FA064DD57A053FD4002C39D10F9B93
:101FF000102B00D179E00F9B022B00D18AE0302317
:102000000C9A012413704B46002B3FD02D230C9AC1
:10201000135501340C9B6246009303974346029686
:102020000194FFF759FF04B0E0BCBA46B146A84698
:10203000F0BD012215003D40AA463A422FD04A4643
:10204000002A02D10C323A4200D0013E9C42BAD260
:102050001F2CABD9202E27D92024FA06DAD57A05F1
:1020600003D4A3422DD0A6422BD00F9B102B32D0ED
:10207000022B20D0202CCDD030220C9B1B191A70A3
:102080000134202CC6D04B46002BBFD17B070DD48A
:102090003B07BFD520230C9A13550134BAE79C4265
:1020A0009FD21F2C00D881E720249AE72B230C9A7B
:1020B00013550134AEE7202CACD00C9B1B19013416
:1020C0003AE0631E012C92D00F9A102A2AD0022ADD
:1020D0002FD01C00D0E7BB060ED4202C9AD00C9B2E
:1020E0001A19013478231370C4E7BB060DD4782382
:1020F0000C9A01241370BFE7202C00D18AE75822E4
:102100000C9B1B191A700134B4E758230C9A012454
:102110001370B1E70C9A603301241370ACE72024EC
:1021200000265EE7023CBA06E9D40C9A12191C009C
:10213000D8E70C9A9246534462221A709AE7C04636
:1021400010B5002800D110BD02F032FAFBE7C046FE
:10215000F0B5DE4657464E464546E0B59BB09B4639
:10216000249B89469846259B0B900C9240464246FC
:1021700019009A4601F0C5FC002800D0D8E00122E1
:1021800040465146774B524201F0B6FC002800D041
:10219000CEE0012240465146734B524201F096FC7C
:1021A000002800D0C4E0002200234046514601F040
:1021B0008DFC002800D0B9E1424653460A920993AB
:1021C0008023289ADB001A400E92289A1A4201D1E5
:1021D000062326930A9A099B1600134300D0C7E0F2
:1021E000289B002500261B0500D49BE100230D93AE
:1021F000269A0D9B9A4200DC9FE1D01A431E26933B
:102200008023289ADB001A430023002728920D938D
:10221000279B0024BB4200D9DC1B0223289A1A40CA
:102220000E92289A134203D07B427B415B421C40B2
:102230000D9B002B07D00A9809992A00330001F062
:10224000E4FB0A900991002200234046514601F028
:102250003DFC002805D08020000684460999614491
:102260000991289A414B0B9D13400493269B0A9A8F
:102270000293099B03940092019349465B46280010
:102280000C9A00F08BF90400002F62D0289B2200EA
:1022900098061F23C0179843631C984649465B461F
:1022A0006530A8470D9B0025DA179C18DB0F9A466E
:1022B0005440013F01E0202D13D00AAA94461F2369
:1022C000200063440A2101355E1901F051F93031D3
:1022D000317020000A2101F04BF926000400092E7C
:1022E000E9D805230693002304930A330393534646
:1022F00005970B9F029312AB009342465B464946FB
:1023000038000195FFF736FE0E9B0400002B20D00D
:102310000C9BC51A279BAB421BD91E0022005B46B3
:10232000494620200135B8470134AE42F6D810E0C6
:10233000289B42460493279B49460393269B0B9870
:1023400002935346009201935B460C9A00F026F9E3
:10235000040020001BB0F0BCBB46B246A946A04614
:10236000F0BDC046FFFFEF7FFFFFEFFFFFF7FFFF6E
:10237000734B099F9C467800400D604401F0D4FBEC
:10238000704A714B01F05FFB704A714B01F034FBF6
:102390003B03704A1B0B1A4304000D003000110070
:1023A0006D4B002201F01FFB6C4A6D4B01F04BFBA3
:1023B00002000B002000290001F01EFB01F0CCFB05
:1023C0000D9001F0B1FB674A674B04000D0001F06E
:1023D0003AFB0022654B01F00FFB01F0BDFB644AA4
:1023E0000600644B2000290001F02DFB04003000A2
:1023F0000D000F9601F098FB5F4A604B01F023FB44
:1024000002000B002000290001F0EDFA02000B0091
:1024100006000F0001F017FB320004000D003B0026
:102420003000390001F0E8FA002210901191544B6D
:102430002000290001F0E9FA0022524B01F0DCFAF9
:1024400002000B002000290001F0DFFA00224E4BB1
:1024500001F0D2FA02000B002000290001F0D5FAA9
:102460000D008021040032003B000020C90501F06E
:10247000BAFA02000B002000290001F0BDFA0200A8
:102480000B001098119901F0C0FA0022314B01F0B5
:10249000B3FA3E4B0F9C9C4664440022230501F096
:1024A000D2FA05000E0002000B000A98099901F00B
:1024B0000DFB00280AD00D9B2800013B31000D9335
:1024C0000022304B01F0A1FA05000E00C6270D993D
:1024D0002B0063318F42BF4128997F4204370905A1
:1024E00000D495E6334300D182E6099C284A2100B6
:1024F000284B0A9801F0F8FA002808D000222100A1
:10250000254B0A9801F0E2FA002800D070E6269BDD
:10251000002B00D17CE60E9B5A1E9341269AD31ABB
:10252000269375E6002304270D9371E643460A932C
:1025300080231B065344099342E6002326935FE65B
:1025400001FCFFFFFB799F501344D33FB3C8608B5E
:10255000288AC63F0000F03F0000F83F61436F63E8
:10256000A787D23F71A379094F930A400000E03F4B
:102570001655B5BBB16B0240EF39FAFE422EE63F6D
:1025800000002C400000244000001840FF03000021
:102590002D431CEBE2361A3F80842E41F0B54E46A7
:1025A000DE4657464546E0B597B09946209E219FA6
:1025B000229B8346984607910C923B0032003000E4
:1025C000390001F09EFA002800D0A9E10122300074
:1025D0003900CA4B524201F079FA002800D0E1E0FC
:1025E000012230003900C64B524201F085FA002822
:1025F00000D0B7E0002230003900C24B01F07CFA75
:10260000002800D099E0002230003900BE4B01F0D4
:102610005DFA002800D090E000220023300039004D
:1026200001F054FA002800D0B1E000230D93249B60
:102630005B0501D40623984608AB9C46172200246C
:1026400030234146624404E0013413550139202C03
:1026500001D00929F8D888463000390001F07CFA09
:102660004346DA00A94B05009B181A685B6808927C
:10267000099301F059FA02000B003000390001F013
:10268000B2F9089A099B01F0DEF90A900B9101F06A
:1026900087FA824601F044FA02000B000A980B996F
:1026A00001F0A1F900229A4B0A900B9101F024FA53
:1026B000002800D1C0E001239C46E244504601F0CE
:1026C0002FFA02000B000898099901F005FA00287A
:1026D00002D000239A4601354346002B6AD008AB4E
:1026E00017269C4608956644554614E001235B4234
:1026F00043440A2128009A4600F03AFF0134303161
:102700003719397028000A2100F032FF092D00D84E
:10271000D0E0D0460500202CE8D10EAB984603232C
:10272000249A1340012B00D196E02023249A019390
:102730000392239A434602921EE0249B5846049338
:10274000239B00960197039343460C9A02930799A3
:102750004B46FFF7FDFC17B0F0BCBB46B246A9469E
:10276000A046F0BD249B5B070ED40322694B24993D
:102770000192039123990291009358464B460C9A7B
:102780000799FFF7A9FBE6E70422634BEFE73B005D
:1027900032000020002101F026F9012306000F007D
:1027A0000D9344E7249B0393239B029304230193FB
:1027B0005A4BE1E7280001F0B7F902000B003000A6
:1027C000390001F010F9524B002206000F0001F011
:1027D0007DF90EAB984600280AD10022300039005E
:1027E0004B4B01F089F9002802D1EB0700D50135E8
:1027F000202C94D008AA94461723280063440A2169
:1028000001341E1900F08CFE3031280031700A218D
:1028100000F086FE051EEBD10323249A1340012B02
:102820001BD0202C00D180E70D9B002B35D02D2212
:102830004146631C0A5579E700220A980B99344BEC
:1028400001F044F9002800D046E75346002B51D14F
:1028500001239C46E2443FE72024239B002BE0D049
:102860000D9B002B03D1249A0C33134202D0239BDF
:10287000013B2393239BA342D3D908AB9C46172249
:1028800030236244202C00D14FE7239901341355A3
:102890008C42C6D0202CF8D147E7249B5B0724D478
:1028A000249A2300120700D440E720224146013336
:1028B0000A553BE75746089D202C00D12DE7220002
:1028C00030214046002F09D00132B154202A00D1D6
:1028D00023E7D3431B191B18002BF5D10EAB9846E9
:1028E0002E234146541C8B5482E72B224146631C05
:1028F0000A551BE7DB0700D4EEE6A9E7FFFFEFFF71
:10290000FFFFEF7F65CDCD4165CDCDC1F0620110F8
:102910000000E03FF8600110FC6001100861011048
:10292000249B0393239B029303230193004B23E7F0
:1029300004610110F0B5DE464E4657464546E0B507
:102940009FB01C00289B91460993C94AC94B8B46EE
:1029500008901A60002900D118E2002320789A46D6
:10296000002800D11AE226001D005C460AE02A0079
:102970006F1C4B46089D2100A8473D00013630786A
:10298000002870D02528F2D110239B46083B9A4698
:10299000043B9846023B00219C46721C10781600AE
:1029A0000300203BDBB2102B03D8B34F9B00FB5836
:1029B0009F460300303B092B32D900230A932A2873
:1029C00068D0002398462E283ED00300683BDBB237
:1029D000122B1CD8A94A9B00D3589F4601230132D1
:1029E0001943DBE7634601321943D7E74346013217
:1029F0001943D3E75B4601321943CFE7534601320F
:102A00001943CBE780235B0070781943013603003C
:102A1000253BDBB2532BAAD8994A9B00D3589F463B
:102A200000270300B800C01901364000C0183378F1
:102A300030381A00303A0700092AF3D90A901800F2
:102A4000002398462E28C0D180237078DB001943DC
:102A50000300303B721C092B00D8A1E12A2800D1C9
:102A6000B2E11600B1E7A346AA462C00D14503D82F
:102A700001235B424B449A464B465246594600203E
:102A8000089DA84720001FB0F0BCBB46B246A9462F
:102A9000A046F0BD099B40CB0A96002E03DB507880
:102AA0000993561C8DE72838014370420A90099318
:102AB0005078561C85E7782800D1DFE1582800D1EE
:102AC0004CE26F2800D14FE3622801D100F030FCC6
:102AD00010230A009A430B92692801D000F0A9FC48
:102AE0000A230C934B0500D5D0E10B9A80231100EB
:102AF0009B0019408B461A4200D0A1E280231100AE
:102B00005B0019408A461A4200D0B6E313005B0608
:102B100000D5EDE2130009991B0601D400F076FC04
:102B200008C91BB2D8171A18424092B209919346AD
:102B3000DA0F1292002B09D1802310220B99DB00AF
:102B40000B4091430B91002B00D0E4E20B9A6123E0
:102B5000920600D541230EA91F228C46DBB26244A7
:102B60000A3B5F461395A34655460C9CB2460D930F
:102B700016000AE03033DBB201357355A74200D2AC
:102B8000EDE2202D00D1EAE207002100380000F03C
:102B9000EFFCCBB20929EDD90D9A94466344DBB220
:102BA000EAE780239B007078194301362FE770789D
:102BB000682800D1CDE180230136194327E77078DA
:102BC0006C2800D1BFE180235B00194301361EE76A
:102BD000462800D19BE10722099B049107339343C8
:102BE0000A9A19000392424602920CC90898009270
:102BF000019309912A004B462100FFF7CFFC0136D3
:102C00000500BCE62A006F1C4B46089D21002520CC
:102C1000A84701363D00B2E68B0700D4ADE1099B21
:102C20002A009A466B1C9846534601CB21009A46CF
:102C3000089F4B46C0B2B8470A9B9C466544012B8F
:102C400000D886E2089B4746B04626004C46994687
:102C50003A002300013731002020C847AF42F7D1A6
:102C6000A1465346340046460993013687E6C046DE
:102C700035290010487000201061011054610110C6
:102C8000A0610110099B04CB9B4643460992002B8F
:102C900000D1C6E013789C46002B00D1BDE343462B
:102CA000013B099A0133D0180A9F130001E08342C7
:102CB00003D05A780133002AF9D1099A0A979B1A4E
:102CC0000B9380230A00DB001A400C92194204D0B7
:102CD0000B9B434501D943460B9302231A000A403C
:102CE0000D920B4200D187E16046002800D168E1D7
:102CF0000C9B002B00D10DE1A844C246099B57460E
:102D00005B1B9846089BB2462A0026004C46994613
:102D100009E023003100551CC8474346585D002890
:102D200000D126E12A009742F3D1A1463D003400AC
:102D300056460D9B002B00D043E15B4601360993BC
:102D40001DE6099B1A0008CA9246002B48D0212292
:102D500011438B460EA884461F2161440995002229
:102D60000F27A4460D0002E0202A0CD00B003C00E7
:102D70001C4020003730092C00D807380132A854F5
:102D800019090F2BF0D86446099D32E0DC4B2078FE
:102D9000089300239A46002800D0E4E5002465E665
:102DA000434606000A9F9800C0180132400080196F
:102DB0001678030030003038303B0928F3D9300052
:102DC000984616000A9700E6099B023604CB904607
:102DD000D2434046D2171040804609933078F4E53C
:102DE0001022080090431132104383460022490507
:102DF000B0D55B46069308230593434604931023FE
:102E000003930023029316AB019200932A004B46D2
:102E100021000898FFF7AEF85346050001360993E4
:102E2000ADE513789C46002B00D1F7E202235B420C
:102E300037E7202302009A43472A04D180231B014D
:102E4000194302239843452801D12023194307221F
:102E5000099B0491073393430A9A1900039242464F
:102E600002920CC908980092019309912A004B46DE
:102E70002100FFF76DF90136050080E510230C9362
:102E80000C230A009A430B924B0503D501230B9A9E
:102E90009A430B92692800D127E6642800D124E6E2
:102EA0000B9A802311009B0019408B461A4200D0D8
:102EB00066E1802311005B0019408A461A4200D067
:102EC00039E213005B0600D53CE113001B0600D479
:102ED000A6E2099B04CB1204120C934609935B46AD
:102EE000002B00D09AE10B9A1033110099430B91FB
:102EF000520500D492E100239A460B9B06930A9B4D
:102F00000593434604930C9B039300230CE1202379
:102F1000194360E6099B0A9A5B1B98464B4691460B
:102F20001F00B2462600089C2A003B003100A04743
:102F300043460135585D0028F6D14A463400B9466B
:102F400056460A92F5E6C0239B00B0781943023634
:102F50005DE5C023B0781943023658E50C230A001A
:102F60009A4314331A43103B0B920C934B058DD4A8
:102F700096E7A14634005646DBE60A9A012A00D8B5
:102F800053E26B1E9F18089BB04626004C4699469C
:102F90002A002300013531002020C847BD42F7D167
:102FA000A14634004646099B3A0001CB21009846D1
:102FB0007D1C4B46089FC0B2B84743460136099373
:102FC000DDE40B9B0A9AA8469A4200D8B5E69446DF
:102FD0006544ED1A089B4746B04626004C46994684
:102FE0003A002300013731002020C847AF42F7D113
:102FF000A14634004646A0E60B9A0A99531C91421A
:1030000000D814E24B199B1A1F00089BB2462600F9
:103010004C4699462A002300013531002020C8473C
:10302000BD42F7D10A9BA14601330B93099B3400A3
:103030001B7856469C466046002800D058E67CE641
:103040000722099B07339343013294469C4462460E
:103050005F6809921A68FB171093119310981199E1
:10306000030053400E930B007B400F9394460E9A3F
:103070000F9B121A8B410E920F93FB0F6246129315
:1030800000233A439B463DD00B9A6123920600D51C
:1030900041230022DBB20EA90A3B8C4692460D93D7
:1030A00043461F3262441395159655460E9E0F9F58
:1030B000A24690460C9C14930CE03032D2B24346A8
:1030C00001355A55BB4500D18AE1202D00D18AE156
:1030D00006000F00220000233000390000F086FABD
:1030E000D2B2092AE9D90D9B9C466244D2B2E6E7E6
:1030F000FF23099904C913401A00099117E5C04636
:10310000D51E00100B9A1033110099430B915205F4
:10311000BAD500239A460B9B06930A9B0593434618
:1031200004930C9B0393129B02935346019316AB9B
:103130002A00009321004B460898FEF71BFF01363A
:1031400005001CE4FF22099B02CB11408B4609932A
:10315000C5E65346454609930136FFF710FC56462F
:103160005C46AA46139DD6E708230C930B910B9956
:10317000642800D084E60B9B5B0500D586E6B4E4AA
:103180000722099B07339343013294469C446246CD
:1031900009921A685B6810009B4613005A46134355
:1031A00007D10B9A1033110099430B91520500D5AA
:1031B000A1E60B9A6123920600D541230022DBB2DF
:1031C0000EA90A3B8C4692460D9343461F32624439
:1031D0005F461295A34655460400B24690460C9EA3
:1031E00013930DE03032D2B2434601355A550023D5
:1031F000BB4200D100E1202D00D100E104000F000E
:10320000320000232000390000F0F0F9D2B2092A80
:10321000E8D90D9B9C466244D2B2E5E70B9A612344
:10322000920600D54123DBB20EA90A3B1F228C4631
:103230000D93230062445C461295170055469B4649
:10324000B2460C9E08E03033DBB201357B55B44208
:103250000ED3202D0CD004003100200000F088F99E
:10326000CBB20929EFD90D9A94466344DBB2ECE75F
:1032700056465C46AA46129D3FE6099B1A0008CABC
:10328000D91713925A184A409246DA0F1292002B1D
:1032900008D1802310220B99DB000B4091430B9146
:1032A000002B2BD10B9A6123920600D541230EAA45
:1032B0001F279446DBB20A3B0D9567445D46099390
:1032C000A3465446B2460C9E08E03033DBB20135CB
:1032D0007B55B4420ED3202D0CD0040031002000C9
:1032E00000F046F9CBB20929EFD9099A9446634414
:1032F000DBB2ECE756465C46AB460D9D0B9B2A00C5
:1033000006930A9B21000593434604930C9B08985F
:103310000393129B013602935B46019316AB009315
:103320004B46FEF727FE139B05000993FFF727FB8B
:1033300002230C931AE7099B04CB92461293002AAE
:1033400008D1802310220B99DB000B4091430B9195
:10335000002B2BD10B9A6123920600D541230EAA94
:103360001F279446DBB20A3B0D9567445D460993DF
:10337000A3465446B2460C9E08E03033DBB201351A
:103380007B55B4420ED3202D0CD004003100200018
:1033900000F0EEF8CBB20929EFD9099A94466344BC
:1033A000DBB2ECE756465C46AB460D9D0B9B2A0014
:1033B00006930A9B21000593434604930C9B0898AF
:1033C0000393002302935B46019316AB00934B4695
:1033D000FEF7D0FD129B050009930136FFF7CFFAE7
:1033E000B44200D871E6149B54460E960F97AA4635
:1033F0009846159E139D8EE6A64200D8FBE6139BC9
:1034000056469846AA465C46129D76E508C9D817E6
:103410001A1842400991FFF78AFB00230B9350E4EE
:10342000099B04CB9346099359E52F00BBE50B9309
:1034300001E6063B0C939AE60CB410B584B006ACDA
:1034400008CC0A000094010004480394FFF772FAC4
:1034500004B010BC08BC02B01847C046CD1E001016
:1034600000B583B0009313000A0001000248FFF783
:1034700061FA03B000BDC046CD1E001010B5094A68
:103480000300146884B0002C08D001220091064883
:10349000524203A9A047012004B010BD01F0D4F8A6
:1034A0000020F9E748700020412100100148042164
:1034B000014B1847D00F0020DD340010142310B545
:1034C0000100188804331B88984710BD162310B5D7
:1034D0000100188802331B88984710BDF8B547468D
:1034E000CE4680B50F1E19D014239946043304002C
:1034F0000025012698464B461888434621681B88BC
:10350000984701C4431E9841013540420640AF42EE
:10351000F1D13000C0BCB946B046F8BD0126F8E78D
:10352000124A936F9B0815D29066D166002905D088
:10353000FFE7FFE7FFE7516F106F704704B5802189
:103540000906C2175140002800D0C84312F030FDD0
:10355000002104BDF0B5146E556E576F166FFFF75E
:10356000E3FF1466556657671667F0BD000000D08C
:10357000114A936F9B0813D210665166002905D03B
:10358000FFE7FFE7FFE7516F106F704704B50028B2
:1035900001D00020C04312F00BFD002104BDC04645
:1035A000F0B5146E556E576F166FFFF7E5FF146692
:1035B000556657671667F0BD000000D094464A4A2A
:1035C000926F9208624601D228E0C046F0B5464E9E
:1035D000346E756E776F366F00F020F89446424A6D
:1035E00014665566576716676246F0BD94463E4AB4
:1035F000926F9208624601D254E0C046F0B53A4E4E
:10360000346E756E776F366F00F04CF89446364A1C
:1036100014665566576716676246F0BD002B24DBBB
:1036200011D000293EDA00B5C943404200D1013132
:1036300000F038F8C943404200D10131DB43524227
:1036400000D1013300BD002AEBD1002801D10029AF
:1036500005D00020C90FC90701D1C043410800B5FA
:1036600012F08EFC0022002300BD00B500290ADB09
:10367000DB43524200D1013300F014F8C943404209
:1036800000D1013100BDC943404200D10131DB43CB
:10369000524200D1013300F005F8DB43524200D121
:1036A000013300BD002923D1002B18D1002A0CD0F2
:1036B000BC460D4F38667A6600210023FFE7FFE71E
:1036C000FFE77A6F386F67467047002801D00748D8
:1036D000010000B512F054FC0022002300BD0200DE
:1036E0000B00002000217047000000D0FFFFFFFF0B
:1036F000002B00D0BFE0130C28D1002AE7D080B403
:10370000114F39667A66FFE7FFE730B4040C7B6F30
:10371000396F1B0423433B667A66FFE7FFE7FFE749
:10372000C04684B27B6F3D6F1B0423433B667A66C1
:10373000FFE7FFE7C04600232C042D0C7A6F386F9B
:1037400000196941B0BC7047000000D0F0B5944644
:103750000025140E01D112020835140F01D11201F7
:103760000435940F01D192000235D40F01D15200DB
:103770000135D40B0134254F7C66254C3C660E0C7C
:1037800093B2FFE7FFE7FFE73C6F6643360C770332
:10379000BE467343DF0B5B04C01AB941130C73437D
:1037A000DB18C91ACE086643360CB64493B273438D
:1037B0001F0F1B01C01AB941130C73431F0B1B05CC
:1037C000C01AB941860D8F023E436643360C092D5F
:1037D00024DB520A7243801A7703460A6643360C8A
:1037E00016235B1BDE40DF40BF1964466643821B25
:1037F0007046043506330100D940A840C01900D3F3
:103800000131A24206D20023F0BD0000000000D02A
:10381000FFFFFFFF121B0130F3D3F1E709277F1BE6
:10382000FE406446A2B27243801A00D20139220CD3
:103830007243130C1204821A99410B00704604352E
:1038400013370100F940A840801900D30131002B43
:1038500002D1A2420AD2F0BD013000D30131121BC5
:10386000FAD2013BF8D1A24200D2F0BD013000D320
:103870000131121BF7E7F0B51C0C00D080E00CB44E
:1038800000251C0A04D11B02160E33431202083510
:103890001C0B04D11B01160F3343120104359C0B82
:1038A00004D19B00960F334392000235DC0B02D10A
:1038B00092185B4101351C00971864410134464F52
:1038C0007C66464C3C660E0CFFE7FFE7FFE7C04610
:1038D0003C6F6643360C7703BE4697B27743C01BF6
:1038E00000D20139C01B00D201399FB27743C91BF6
:1038F000C91B170C77437E04FF0B801BB941CE0810
:103900006643360C0C2D33DBB644120B1F053A43CD
:103910001B0B97B27743C01B00D201399FB277438C
:10392000C91B170C77433E043F0C801BB941860D21
:103930008F023E43664329277F1BFE400C3D77469E
:10394000AF40BF1930BCA2B2ABB272437343801A0E
:103950009941220C7243130C1204801A99410200FF
:103960000B000137001BA941F9D2781E0021F0BDE0
:103970000C277F1BFE4077467F0BAF40FF19E0E727
:1039800000245D1C07D0144F7D663966FFE7FFE712
:10399000FFE7FFE73C6F95B29EB265436643401B6D
:1039A000B141150C1E0C6543664336042F0C3E4393
:1039B0002D04401BB141994204D202000B002000AB
:1039C0000021F0BD01D19042F7D3801A9941013412
:1039D0009942F2D3F6E70000000000D0FFFFFFFF9E
:1039E00048404140484018B41B4B5B68FC4601937B
:1039F00008BD04DF7F3C001018B4174B1B68FC4661
:103A0000019308BD00DF893C00109446134A926F71
:103A1000920809D2624618B40F4BDB68FC4601934A
:103A200008BD0CDF413F00100C4AF0B5146E556E16
:103A3000576F166F6246FFF7EEFF084A1466556629
:103A400057671667F0BD18B4034B9B68FC4601939B
:103A500008BD08DFE53D0010B05F0020000000D089
:103A6000FFB550404240504059404B40594000E063
:103A7000FFB5154F4C00640D03D0BC4204D10C03BC
:103A800014D80020090D09055C00640D03D0BC4268
:103A900004D11C030AD800221B0D1B0501264B4034
:103AA00009D44B4003D58B4200D18242FFBD9942DD
:103AB000FCD19042FFBD0B43DB1803431343F5D009
:103AC000C9434918FFBD0000FF07000000B5FFF71C
:103AD000CFFF804100BDC04600B5FFF7C9FF01D947
:103AE000002000BD012000BD00B5FFF7B9FF01D9DE
:103AF000002000BD012000BD00B5FFF7B1FF8041EF
:103B000000BD012040054A00121804D85A001218BE
:103B100001D8002070470120704700207047000046
:103B20000021002805D17047C1174840401AFAD03B
:103B3000C90713B5064B1B6898470CBC441CA24030
:103B40001005120B0349091B09051943114310BD48
:103B50008C7300201F04000010B54C00620D802300
:103B6000D218DB00D21A5B057E2A10DD9E3A13DAEA
:103B7000CC170903490819435242D140640001346B
:103B80001532202A05DAD0400843604310BD0020DA
:103B900010BD0846604310BDC80FC018013810BDE5
:103BA00018B4044B5B6AFC46019308BD24DFF14066
:103BB00000100000B05F0020132370B51D78012DA8
:103BC00015D010DD1C48FFF781FC1C4C0100802241
:103BD000200000F059FC022D06D01948FFF76EFCBA
:103BE000184B186070BD154C174BA364F5E7164BC6
:103BF000124C23606360A360E36023616361A3618F
:103C0000E36123626362A362E36223636363A3638A
:103C1000E36323646364A364E36423656365A3656A
:103C2000E36523666366A366E36623676367A3674A
:103C3000E367A364D1E7C04653440000B05F0020AF
:103C40004C3300008C7300204D3C001007B56046DB
:103C500001880A0A0230DF2AFAD1C9B2820804D3E5
:103C6000028840880004104300E00068014A505078
:103C7000039007BDB05F00200FB403BC0CBCF0B5CF
:103C80000124E407634000E0F0B50C0DCF0F661E81
:103C90003605891B640503D3C943404200D3013173
:103CA000640D03D0661CF60A07D0E41B00207F00D9
:103CB000791C89078912803C24031D0DDF0F6E1EBD
:103CC00036059B1B6D0503D3DB43524200D3013302
:103CD0006D0D03D06E1CF60A07D0ED1B00227F008D
:103CE0007B1C9B079B12803D2D032F1B661B58D40A
:103CF000A446202E46DA20371400BC401D00BD40EB
:103D0000F24033412A4380185941CB0F05D0C943B3
:103D1000C043002264425041514162464D0D28D1BA
:103D20000D0D07D100281FD0241940414941013A07
:103D30000D0DF9D0640006D3013000D30131002C01
:103D400001D140084000013A0BD4941CE40A04D18C
:103D500012051144DB071944F0BDD907204B194364
:103D600000E0D9070020F0BD0029DDD1002CDBD117
:103D7000F0BD0132C6074008CD0728434908002E90
:103D8000E1D0D9E73C2E29DA203E40371400BC4070
:103D900000D00124F24014431A00BB401C43D31747
:103DA000ACE7AC46202F08DA20360400B4400D0002
:103DB000B540F84039412843A5E73C2F0CDA203FB5
:103DC00040360400B44000D00124F8400443080009
:103DD000B1400C43C117EAE710001900002494E732
:103DE0000000F07FF0B50C0D661E3605891BE60A53
:103DF0006405640D02D0651CED0A04D00020012189
:103E00000905803C2403A4461C0D671E3F05DB1BEF
:103E1000E70A6405640D02D0651CED0A04D0002297
:103E200001231B05803C24037740644497B484B28B
:103E300096B27443070C7E43150C6F4380B26843FF
:103E4000361802D3012000043F183004350C001945
:103E50007D41844688B29AB250430C0C62431F0CD9
:103E60007C438EB27E43921902D301263604A419F4
:103E70001604170C3618674101BC81B29AB251433F
:103E8000040C62431B0C5C4380B25843121802D3EB
:103E90000120000424181004130C401863412D184D
:103EA0005E410020474106BC88B293B258430C0CD7
:103EB0006343120C544389B251435B1802D301216E
:103EC0000904641819041A0C091862416D18564146
:103ED0000020474118BCF902720D1143F0026A0D2F
:103EE0001043ED020A0D03D16D1940414941013BD8
:103EF000124E9B1B7600B3420ED26D0007D30130E9
:103F0000002671416646354301D1400840001B053B
:103F1000C918E4072144F0BD0BDA013306D10130A2
:103F200004D101314F0D01D04908F2E7E10700202B
:103F3000F0BD013631050020EBE70000FF03000073
:103F4000F0B51C0D671E3F05DB1BE70A6405640D19
:103F500002D0661CF60A04D0002201231B05803C17
:103F60002403D0252D060026F6432E661E096E6614
:103F7000CE0FF619B44649004F0D02D07E1CF60A4A
:103F800003D000200021403F3F033E1BB600B44455
:103F9000013F7F05C91B49082E6F013676089C0238
:103FA000950D25437543ED137543AD1301356D1024
:103FB000F603761B0CB4CC02450D2C43A2B2B3B26F
:103FC0005A43270C7B43350C6F43A4B26C431B1937
:103FD00002D3012424043F191C041D0CA4187D41A4
:103FE00024196D41009A91B2ACB26143170C7C4325
:103FF0002B0C5F4392B25A43A41802D3012212043D
:10400000BF182204230C52187B41019C6C431B19DE
:10401000520ED9010A434401A01A81B2B2B25143EF
:1040200003145A43360C734387B27743D617D21919
:1040300000277E4136049B191704160C7F185E4139
:104040007316ED18F301002680337541A90F06D1D0
:104050006400690AE8055B0A184309D22FE00422CC
:10406000944480337541A90AA8059B0A184326D3B6
:10407000404149412404009A019B0D005543641BB3
:104080004343E41A95B286B27543170C7E43030C82
:104090005F4392B25A43B61802D301221204BF18EA
:1040A0003204330C52197B4152429C41002C02D401
:1040B0000022013051414008CA071043490802B0AC
:1040C0006246D7079210084BD218084B9A4203D287
:1040D00012058918C919F0BD0020002A01DC390039
:1040E000F0BD01331905F5E7FD030000FE070000F0
:1040F000002200B5203200F004F8080000BD0000E6
:1041000000220B150AD410B5944600F031F81414AF
:10411000013400DA0021CB17144C20470020002185
:1041200070476244343A0CD40C2A07DA04009140F8
:10413000904052422032D440214310BDD843D9434D
:1041400010BD203207D40C46944052422032114117
:10415000D040204310BD0800C917203203D452427A
:104160002032104110BD1800190010BD234100106D
:104170000A0DCC0F531E1B05C91A520503D3C943A0
:10418000404200D30131520D03D0531CDB0A07D04B
:10419000121B00206400611C89078912803A1203F7
:1041A000014BD21A70470000FF0300005143434304
:1041B000C9188C46110C83B24B4310B4040C6143F4
:1041C00092B280B2504362431C041B0C001910BC15
:1041D00059411304120CC01851416144704700004A
:1041E0004840414048400E4B5B6818470C4B1B68E9
:1041F00018470C4A936F9B0802D2094BDB6818479B
:10420000F0B5146E556E576F166FFFF7F6FF054A3F
:104210001466556657671667F0BD014B9B681847D3
:10422000B0600020000000D0491A002808D10846DC
:1042300070470000C10FC90700D54042002817D0C1
:10424000F44603B40B4B1B68984706BC81409E386C
:104250004042803107D20B0607D04900490AC00509
:104260001043084360470130F8E7490A8902F5E73F
:10427000704700008C73002041000A0E80231B064B
:104280007E2A0BDD9E3A0BDAC11740024008184324
:104290005242D040490001314843704700207047E6
:1042A000C00FC01801387047C0420DD300B54000A0
:1042B0004008002100F012F8002801D4404200BD5F
:1042C0008020000600BD0000034BDB69FC46184758
:1042D0001CDF794300100000B0600020014B5B6AD6
:1042E00018470000B0600020132310B512481C7856
:1042F000FFF7ECF80100012C0AD003DD80220F4803
:1043000000F0C2F80E48FFF7D9F80E4B186010BD48
:104310000A4C5422200000F0B7F80B4B6365A365EC
:10432000E36523666366A366E36623676367A36743
:10433000E3672362E361E5E753460000B0600020D5
:104340004C3300008C7300204D43001007B56046CD
:1043500001880A0A0230DF2AFAD1C9B2820804D3DE
:10436000028840880004104300E00068014A505071
:10437000039007BDB06000200021C215803280325A
:1043800001D0024A1047002070470000CD2A0000EB
:1043900070B504000A4E300011F052FE200010F0FB
:1043A00005FC0500300011F0E3FD002D05D0054BA4
:1043B0002C199C4201D8280070BD0348FDF768FD08
:1043C00014190020000004204063011070B505009E
:1043D0000C000B4E300011F033FE2800210010F0CD
:1043E0003DFB0500300011F0C3FD002D05D0054B4D
:1043F0002C199C4201D8280070BD0348FDF748FDE8
:1044000014190020000004204063011070B505005D
:104410000C000B4E300011F013FE2800210010F0AC
:10442000BBFE0500300011F0A3FD002D05D0054BAB
:104430002C199C4201D8280070BD0348FDF728FDC7
:1044400014190020000004204063011070B504001E
:10445000054D280011F0F4FD200010F0B1FB2800FC
:1044600011F086FD70BDC0461419002001480421DA
:10447000014B1847E00F0020DD340010014B1B6892
:1044800018470000E00F0020014B5B681847000050
:10449000E00F0020030010B5080011001B689847CA
:1044A00010BDC046030010B5080011001B689847F6
:1044B00010BDC046F0B5DE4657464E464546E0B50F
:1044C00085B017001C0006000D00FCF74DFF00230F
:1044D000304A12184B41002B58DB2F4908008A46FE
:1044E00011F086FD01906B1C03D1300011F0C8F86B
:1044F0000500002C25D1294B9846294B1C68002C1F
:1045000015D0002F20D1274F02E02469002C0ED0B7
:104510002368002BF9D03B68002B01D0A342F4D1D3
:1045200020002A003100C0472469002CF0D1019BF3
:10453000002B27D105B0F0BCBB46B246A946A04629
:10454000F0BD194B9846D8E7164B994602ABDF1DD4
:104550000A239B4602E02469002CE8D02368002B44
:10456000F9D04B461B68002B01D0A342F3D12A009F
:1045700031002000C0475B460122390020003B701B
:10458000C047E8E7504611F0F3FCD3E70122074BA0
:104590005242A2E740420F001C190020A54400101F
:1045A000D86B0020E06B002095440010FFFFFF7FD8
:1045B000F0B5CE46474680B583B06B460600DD1D9C
:1045C0002870FCF7D1FE00231A4A12184B41002B29
:1045D0002BDB19490800884611F00AFD174B81466C
:1045E0001C68002C14D0164F02E02469002C0FD058
:1045F0002368002BF9D03B68002B01D0A342F4D1F3
:10460000200001222900FFF74DFF2469002CEFD183
:104610004B46002B05D1300003B0C0BCB946B046B4
:10462000F0BD404611F0A4FCF5E70122054B5242D3
:10463000CFE7C04640420F001C190020D86B002075
:10464000E06B0020FFFFFF7F70B5040011F018F849
:1046500000230100050001222000FFF72BFF084B7B
:104660001C68002C06D06368002B05D0984724698D
:10467000002CF8D1280070BD2469002CF3D1F9E793
:10468000D86B00200A4A1368002B05D10CE01A00F1
:104690001B691032002B07D09842F8D1002902D1B3
:1046A00003691360016170470029FCD01060FAE7CC
:1046B000D86B002010B500F025FA10BDF0B5CE463D
:1046C0004746040080B583B0FCF74EFE2600002765
:1046D00036184F41002F30DBB9461A4B1A4D984619
:1046E00043461C68002C03D116E02469002C13D02B
:1046F0002B68002B01D0A342F7D1A368002BF4D084
:10470000012101A898470028EFDD6B46187903B016
:10471000C0BCB946B046F0BD0C4B5A6A4A4507D3F7
:104720009B6AB34201D24A4502D001204042EEE7E3
:1047300001200021FCF722FED2E70126044B76423D
:104740009946CAE7D86B0020E06B00200040054086
:10475000FFFFFF7F7047C0460022014B1A70704771
:104760001C7502204B790020FF2B0BD18B79002B7D
:1047700008D1CB79012B05D1082A03D98A78024BBD
:1047800009301A707047C0461C750220012070471E
:1047900070B5012909D115495379107909781B029F
:1047A00003430020994202D070BD0120FCE75378FA
:1047B000012B08D0022BF7D1002064220021FDF745
:1047C0006FFA0120F0E79478D278050012021443C2
:1047D000D20502D5620A93401D000548FEF76EFE21
:1047E0007F210300214028009847C0461C75022005
:1047F000554200000123037000487047B863011060
:1048000048780B788A7800021843120410439622E5
:10481000CB7810B51B060343D200934200D010BDE5
:104820000348FEF74BFE0021030008009847C046EE
:1048300055420000024B1860024B19607047C04699
:104840005C6700206067002010B5024B1878FBF70A
:1048500059FF10BD1D750220114B70B51A68002A52
:104860001AD0EFF3108172B610680028FCD0BFF3A5
:104870005F8F00220B48596002701B68BFF35F8F87
:104880001A6081F3108800240025074B1878FBF785
:1048900039FF2900200070BDFA240025A400F4E7A8
:1048A000847000201E7502201D75022070B5040062
:1048B00000200E0001F002FB002835D0002001F09E
:1048C00015FB002830D0FCF74FFD0023184A1218C2
:1048D0004B41002B24DB174D280011F089FB0028E9
:1048E00022D0002001F0EAFA00280BD1012000219B
:1048F0000324404200F0CCFC6442280011F038FB55
:10490000200070BD002001F0F1FA0028EED0210057
:104910003200002001F0F6FA041EEED1033CECE771
:104920000122054B5242D6E703246442E8E7C04621
:1049300040420F00A4730020FFFFFF7FF8B5DE4662
:10494000574680B505000C00FCF70EFD0023364AE3
:1049500012184B41002B5ADB344908008A4611F0EB
:1049600047FB002803D1C0BCBB46B246F8BD0020BF
:1049700001F0A4FA00284ED00026002C43DD2C4B79
:104980009B4614E0A919002001F030FB070001202C
:104990000021404200F07CFC002001F0EBFAFCF723
:1049A000E3FC234BF61918605960B4422BDD00205C
:1049B00001F036FBA71B0200B84200DD3A00002AD6
:1049C000E0D101200021404200F062FC002001F013
:1049D000D1FA002001F072FA002814D0002001F072
:1049E0001FFB0028E1D1FCF7BFFC5B460F001A68F3
:1049F0005B68002184460F4812184B419F4202D841
:104A0000D3D19445D1D9504611F0B2FAABE7012287
:104A1000094B5242A0E700200021054B1860596065
:104A2000504611F0A5FA9EE740420F00A473002003
:104A3000A85F002020A10700FFFFFF7F10B5244CD6
:104A400084B00021200011F0BBFA00281CD1214BBA
:104A50001A68002A16D0EFF3108172B61068002889
:104A6000FCD0BFF35F8F01241B48596002781B689C
:104A7000D2B20470BFF35F8F0020186081F31088FA
:104A8000002A0AD004B010BD01200021404200F0ED
:104A9000FFFB200011F06CFAF4E7FCF7CFFA0400FA
:104AA000FCF762FCFA220023920012184B41002B03
:104AB00009DB0121029100210191084920000091A8
:104AC000FCF7C0FADEE70122054B5242F1E7C0468F
:104AD000A4730020847000201E7502205948001025
:104AE000FFFFFF7F054B10B51868002804D0044B6A
:104AF0000022196801F044F810BDC0465C67002030
:104B000060670020D02310B51B0684B01C68FCF73A
:104B100095FAFCF753FBA04202D0002004B010BD70
:104B2000264B1B7801F066FC2548FCF78FF8012026
:104B3000FCF770F8FF23234C234920701840FBF743
:104B400007FE20780121FBF7CBFD0520FBF7E2FDF6
:104B5000002822D1FCF772FA0400FCF705FCFA22C7
:104B60000023920012184B41002B22DB01210291FD
:104B700000210191154920000091FCF763FA0822F9
:104B8000040000211248FFF779FC002CC5DB114816
:104B90000121FFF777FD0120C0E700220E49052023
:104BA000FBF700FEFBF780FD01000948FCF77CF8ED
:104BB000EDE70122094B5242D8E7C0467473011059
:104BC000A47300201D7502203D4A001059480010B2
:104BD00084700020F00F002049480010FFFFFF7F85
:104BE0000048704770640110004870471C64011051
:104BF00070B5040017480378002B21D0002C06D193
:104C0000C1241548154BA4004380048070BD052CB9
:104C10001DD8134B1048A400E558811C002304E064
:104C200001330A800231132B0ED0EA5CDCB2002A79
:104C3000F6D1C0230134E4B264009B001C43E4E7D6
:104C4000112100F017F8D9E7CA24A400DDE70020FD
:104C5000DCE7C04644740220B06B00200904000069
:104C60008464011010B5024800F0D8F810BDC046A9
:104C70004873002030B54B1E012900D1A7E0664AD9
:104C800011780D112C0030349F2900D9A2E0047056
:104C9000012B00D1BEE00F21147821400C003034EC
:104CA000092900DD98E04470022B00D1B2E054786D
:104CB0002511290030319F2C00D990E08170032B01
:104CC00000D1A7E00F2121400C003034092900DD7C
:104CD00087E0C470042B00D19CE094782511290052
:104CE00030319F2C00D97FE00171052B00D191E07C
:104CF0000F2121400C003034092900DD76E0447199
:104D0000062B00D186E0D4782511290030319F2C64
:104D100000D96EE08171072B00D17BE00F2121408B
:104D20000C003034092966DCC471082B00D171E015
:104D300014792511290030319F2C5FD80172092B7D
:104D400068D00F2121400C003034092958DC44720E
:104D50000A2B5FD054792511290030319F2C52D86D
:104D600081720B2B56D00F2121400C0030340929C1
:104D70004BDCC4720C2B4DD09479251129003031B5
:104D80009F2C00D9073101730D2B43D00F212140F7
:104D90000C003034092901DD37310C0044730E2B2F
:104DA00038D0D1790C11220030329F2900D9073236
:104DB00082730F2B2ED00F220A4011003731092A9F
:104DC00001DC30321100C173102B23D010300023CE
:104DD000037030BD07345AE737310C0063E7073101
:104DE0006CE737310C0074E707317DE737310C0091
:104DF00085E707318EE737310C0095E707319DE7EE
:104E000037310C00A3E70731AAE737310C00C47231
:104E10000C2BB1D1C018DAE74873002030B500255B
:104E200089B004000922002101A80095FFF726FBA4
:104E30000922002105A80495FFF720FB4B236A46B1
:104E40006846137004A90D2211F08AF81521082272
:104E500020006944FFF718FB09B030BD10B50121EF
:104E60000520FBF73DFC10BD10B5002200210248D3
:104E700000F05AF910BDC046586C00208022024B49
:104E80005202DA647047C04600201150F0B5C646A1
:104E900000B5060000F022F90C231B4DFF22AB6782
:104EA00005201A49FBF77EFC40239846184C402207
:104EB00000212000FFF7E2FA434601272383212146
:104EC0000023144A6770A260136063545F316184E9
:104ED00041462187053963540F4A10496360E260F7
:104EE000A1620B606362E26211F07AF880239B0595
:104EF0002F64EB6490230A4A3000EA50FFF7BEFFAC
:104F000080BCB846F0BDC046000011501505002019
:104F1000386C0020840010500001105080001050A8
:104F200010D001000B785B0602D14B78052B00D026
:104F300070478A78014B1A60FAE7C04600001150AA
:104F4000F0B5C64600B54B790C791B02887823432F
:104F5000CC787F21A4070140C509A20F4F0014009F
:104F6000324E7A195201B218907001206840507088
:104F700000205B055B0DD0701383D4768046CA0099
:104F8000012D33D02A488446880162448446B444C3
:104F90006046826040461060002933D0254AC9002F
:104FA00090466246414451603F223F339343022C76
:104FB00000D15B0020487A1901685201B218D16013
:104FC0001E4ACB180360514053408022884652014C
:104FD000934228D84346A4061C4380237F197F01AF
:104FE0001B06F6191C4373681C6011E014488446C4
:104FF000880162448446B444604682624046106040
:10500000002909D100236D01761973600D4BF360FF
:10501000012080BCB846F0BD084AC90090466246EF
:1050200041445162C0E7FCF74BFFD3E7386C0020E6
:1050300084001050040010506C70002000001050CC
:10504000800010500001105010B510F0C9FF10BDC5
:1050500010B57F200C0020404000E4091100001929
:105060001A00034B4001C01800F05EF8012010BD8B
:10507000386C00207F22130010B50B400A420BD081
:10508000C909802258004018064940014018120101
:10509000002110F0CDFF10BD02220348C909521AA9
:1050A0008266EEE7386C0020002011507F2210004D
:1050B00010B508400A4200D110BD0023C9094000C4
:1050C000401804494001081800220349C37010F039
:1050D000AFFFF1E7386C0020FFF7FFFF80220D4B98
:1050E000520410B51A600C4B0C491A6010008B6802
:1050F0009843FBD10A4C9C2200212000FFF7BEF907
:105100008022002152010748FFF7B8F9092363679D
:1051100010BDC04600E0004000F0004000C000406C
:10512000000011500000105070B5837E04000D0087
:105130001600002B17D10023E38201332000A68242
:10514000A376256110F064FF002804D0802190230D
:10515000084A8902D150200010F022FF002805D013
:105160000123237770BD10F05BFFE4E7200010F00F
:1051700047FFF7E700201150024B5878431E984133
:10518000C0B2704730650020024B18784007C00F4E
:105190007047C04630650020034B1878FF38431E27
:1051A0009841C0B27047C04628100020F8B5CE46DE
:1051B000474680B52C4E050033780120FF2B03D0E5
:1051C000C0BCB946B046F8BD532200212748FFF7BE
:1051D00055F9274C2000FBF739FD264B1C60264C67
:1051E00020001430FBF750FD200001F0D1FB234BD1
:1051F000234F1C60234B9846002B04D03800FFF748
:10520000F9FA214B1860424600243B78002A23D04B
:105210001E4A90461C4A9146A34212D80FD14346DB
:10522000984701343B78E4B2A342F5D228003570A8
:10523000FFF72CFE2800FFF711FE0120C0E7002039
:10524000BEE74A461268630094461B19DB006344BC
:10525000002BF4D01B68E3E700F0EEFE3B78002063
:10526000002BADD1E2E7C0462810002030650020B9
:10527000E8640020846500200C1000208865002070
:1052800014750220F54700100862002039600010F4
:10529000F0B5DE4657464E464546E0B58BB001F0C8
:1052A000AFF8002800D10FE1C74BC84D9946C84B55
:1052B00007AC9B462E687269EFF3108172B61368D3
:1052C000002BFCD0BFF35F8FB1613000210001F0F3
:1052D000A1F97269B369BFF35F8F0021116083F395
:1052E0001088002800D1EFE06378082BE2D84A4606
:1052F0009B00D3589F466368002BDBD0A06898477B
:10530000D8E77F222179B24E0A405000CB093618E7
:10531000F618300001273030C378BB43C370C37820
:105320000337BB43C370002A00D1F2E0A94AF37CE3
:10533000002A06D0A84A1278934200D260E19B1A54
:10534000DBB2002B00D0BFE0A44E62792078A368C6
:10535000B047AFE75B4601221B78012113435A4651
:10536000137033235846D25C5E468A43C254C25CF3
:1053700004208243F2540133F25C8A43F254F25C1B
:105380008243F254237800209A4600F005FD602203
:1053900023791A40602A0DD0402A00D1BFE0DB06F5
:1053A000DB0E012B00D136E1022B00D1D4E0002B23
:1053B00000D1C3E020780021FFF75CFE8021207837
:1053C000FFF758FE76E7824E3378DB0700D471E7AB
:1053D000834B002B00D16DE700E000BF6AE77C4EF5
:1053E0003378DB0700D465E77E4B002B00D161E703
:1053F00030780007C00F00E000BF5BE7764B754ACE
:105400009846002627781B78002A00D179E0764A52
:1054100092469E425FD319D1744B38009847434659
:1054200001361B78F6B2B342F3D2694E5322002103
:105430003000FFF723F81022FF21F01CFFF71EF8C1
:1054400030002022FF211330FFF718F800F09AFCFB
:10545000674B002B00D12DE700E000BF2AE75E4B31
:105460005C4A9846002627781B78002A1FD05E4A9F
:1054700092469E423AD321D15C4B3800984743462E
:1054800001361B78F6B2B342F3D2514E53220021BB
:105490003000FEF7F3FF1022FF21F01CFEF7EEFFB5
:1054A00030002022FF211330FEF7E8FF07E038002C
:1054B00000F000FE43461B78002BE6D0444E00F07F
:1054C00061FC2379B370F5E60BB0F0BCBB46B24685
:1054D000A946A046F0BD52461268730094469B1937
:1054E000DB006344002BB1D05B6896E7524612683C
:1054F000730094469B19DB006344002BDED05B688D
:10550000BBE7380000F0D6FD43461B78002B9DD149
:105510008BE762792078A36800F052FCCAE6354830
:10552000002800D146E700F037FC0121504608AAC8
:1055300000E000BF002800D0BCE63BE7202A00D1F5
:105540009EE0002A00D035E76379092B00D931E7C6
:10555000294A9B00D3589F467023217A0B4200D0E2
:1055600028E758460F330B405B00CE09C018194F8F
:105570008019C07C002F06D0174F3F78B84200D268
:10558000A0E0C01BC0B2002800D096E0002A00D0E6
:1055900047E11A4F0220627990468243012A00D1E6
:1055A00042E14246002A00D004E75B449E193036AF
:1055B000F37806AA9B07DB0F0232138050460223C2
:1055C00008A900F081FB75E60465011088650020DC
:1055D00030650020F547001014750220AD62001000
:1055E000000000000000000008620020B56000100C
:1055F0000000000000000000286501109065011007
:105600005A00D318B14ADB001268D318002B00D11E
:105610005AE71E6999E6237A0F2B00D9CAE6AC4AED
:105620005B44DB78002A05D0AA4A127893425ED305
:105630009B1ADBB2002B00D0BCE6A748A74E00F0B7
:10564000ABFB01215046F36808AA9847002800D018
:1056500030E66022160023791E401A4200D0A9E6E7
:1056600063790A3B012B00D9A4E600F095FB63792E
:105670000A2B00D120E1504608A900F00DFB19E6E5
:10568000237A0F2B00D995E6914A5B44DB78002AF8
:1056900006D0904A1278934200D2E6E09B1ADBB221
:1056A000002B00D086E68C488C4E00F075FB012163
:1056B0005046F36808AA98473CE70027002A00D123
:1056C00068E777E647003818804FC0003F683F180A
:1056D000002A00D15EE7002F00D16BE6F86800F0E9
:1056E0005BFB01215046FB6808AA984722E7774AEE
:1056F0005E00F3181668DB00F618002E00D159E69C
:10570000F0689CE7A279019273789A4207D0737887
:10571000002B00D046E1019B002B00D0EAE05B4665
:10572000019A504608A95A7000F0B6FAC2E573789B
:1057300006AA023213705046012308A900F0C4FAE9
:10574000B8E5E088030AC0B20F2B00D932E66449FD
:105750009A008A58974608A800F024FB5046A17981
:10576000FFF782FB0222337813433370A2E5E3880C
:10577000012B00D01EE60822337893435A4613705B
:1057800079E70220317806AB9A1C8B068908DB0F7B
:1057900001400B4311E7E388012B00D00AE6082201
:1057A00033781343EAE74F4B002B00D102E600E0C9
:1057B00000BF021E00D1FDE5D37891781B020B4398
:1057C000504608A900F080FAB4E6474B002B00D100
:1057D000F0E500E000BF021E00D1EBE55046137873
:1057E00008A900F071FAA5E62189FFF701FA021E67
:1057F000F4D1DFE5022B00D112E13C4B002B00D1AC
:10580000D8E500E000BF0200002A00D1D2E5D3E7CE
:10581000FFF7E6F91223020008A9504600F054FAF7
:1058200088E62D482D4F5AE7E288002A08D14246E3
:105830005B449E193036F378012A21D09B072ED580
:10584000002F00D136E5F86800F0A6FAFB6808AA38
:10585000012150469847002000F09EFA34235A4612
:10586000D35CDB0700D525E505E7184A5E00F31891
:105870001668DB00F618002E00D19BE5F06814E7EF
:105880009B07DDD51A4B1878FFF710FC0222F3783E
:1058900093434246F370F3789343F370D0E7144B8D
:1058A0001878FFF7E7FB0222F37813430122F37025
:1058B000F3781343F370C3E706AB9A1C50460123F9
:1058C00008A9167000F000FAF4E4C046086200204F
:1058D000F547001014750220C96100109065011091
:1058E00050650110000000000000000000000000F2
:1058F00028100020581EC0B2FFF776F9002800D10A
:1059000058E543780593022B00D053E50121C27975
:105910000700931152110B400A4012015B0113431F
:105920005A4612782F318A4313435A461370C3786C
:1059300082781B021343C31809370393039BBB42AE
:1059400000D8ACE001227B7800920B2B03D1FB78CE
:1059500000933B78FF187B78042B00D02AE50026C3
:10596000039B584ADB1B9BB20293574B04931B7853
:10597000B24263D0B846B34256D800D01AE5534B72
:10598000534F41465046029A9847082803D9029A35
:10599000824200D38AE0049B01361B78F6B2B34200
:1059A000E9D207E55046FFF74FFBB378454A00932D
:1059B000454B002698461B78002A0DD0454FB34230
:1059C00025D820D1444B50469847434601361B7892
:1059D000F6B2B342F3D206E0504600F06BFB43460A
:1059E0001B78002B0FD1532200215846FEF746FDAD
:1059F0005B461022FF21D81CFEF740FD2022FF212C
:105A00003648FEF73BFD5B46009A9A7083E6182302
:105A10003A68734394466344002BF4D05B68D2E742
:105A2000FFF7E2F80200EFE62A4B1F6818237343E2
:105A3000FF18002F00D1BDE4BB68A2E7029B39002C
:105A40001A005046984600F04BFB082800D8B1E4F5
:105A50004246824200D2ADE41D4B9846009B012B8A
:105A600028D000220AE0BB78D318DBB25B44D97897
:105A7000FF2900D09EE40132DE70D2B2009B9A4230
:105A8000F1D18046330002003900144800F03CFD9B
:105A9000049B47441B78B34200D34FE78AE4104B82
:105AA000002B00D13BE600E000BF38E63B00474654
:105AB0009846D3E74246054B92689A42D1D1059B5E
:105AC0000093CEE7F547001014750220E160001046
:105AD0009065011008620020B56000104365002049
