:020000041000EA
:1000000000B5324B212058609868022188439860DF
:10001000D860186158612E4B002199600221596106
:100020000121F02299502B49196001219960352056
:1000300000F044F80222904214D00621196600F024
:1000400034F8196E01211966002018661A6600F04E
:100050002CF8196E196E196E052000F02FF8012189
:100060000842F9D1002199601B49196000215960AB
:100070001A491B48016001219960EB211966A021F2
:10008000196600F012F800219960164914480160C1
:100090000121996001BC002800D000471248134993
:1000A000086003C880F30888084703B5996A0420EC
:1000B0000142FBD001200142F8D103BD02B5186610
:1000C0001866FFF7F2FF186E186E02BD00000240BE
:1000D000000000180000070000035F00212200005C
:1000E000F4000018222000A00001001008ED00E03C
:1000F00000000000000000000000000074B24E7A12
:1001000000200420F7010010C3010010C5010010F9
:10011000C1010010C1010010C1010010C101001097
:10012000C1010010C1010010C1010010C701001081
:10013000C1010010C1010010C9010010CB01001065
:10014000CD010010CD010010CD010010CD01001037
:10015000CD010010CD010010CD010010CD01001027
:10016000CD010010CD010010CD010010CD01001017
:10017000CD010010CD010010CD010010CD01001007
:10018000CD010010CD010010CD010010CD010010F7
:10019000CD010010CD010010CD010010CD010010E7
:1001A000CD010010CD010010CD010010CD010010D7
:1001B000CD010010CD010010CD010010CD010010C7
:1001C00000BE00BE00BE00BE00BE00BEEFF3058054
:1001D000103800BEF2EB8871700C0210980C0210FF
:1001E0003402001090A31AE700201F49086006C8D7
:1001F00081F3088810471D48006800282FD10DA4FE
:100200000ECC002902D000F012F8F9E71849194A7B
:10021000002000E001C19142FCD1174988471749ED
:1002200088471749884700BEFDE701C901C29A42C5
:10023000FBD37047980C0210C0000020B04C002087
:100240008858021000000420000004208858021082
:10025000001004200010042000000000704709482E
:1002600004F04AFB0047000008ED00E0000000D069
:10027000B04C002038AE0220553100108103001030
:10028000893200105756000006005250ABB360533D
:10029000D8EC011006005250861C0302E8EC011055
:1002A000060052505422A29DF8EC01100500525055
:1002B000DE65F46888580210F8B5C0460448054B5E
:1002C00010B5834203D0044B002B00D0984710BDDB
:1002D000B04C0020B04C0020000000000648074948
:1002E000091A8B10C90FC91810B5491003D0044B57
:1002F000002B00D0984710BDB04C0020B04C00201F
:100300000000000010B5074C2378002B09D1FFF73F
:10031000D5FF054B002B02D0044800E000BF0123AD
:10032000237010BDD095002000000000B8E501103A
:10033000054B10B5002B03D00449054800E000BF71
:10034000FFF7CCFF10BDC04600000000D495002090
:10035000B8E5011000B585B003AB0193FA22012383
:100360000549009352000023044809F05FF909F0A1
:10037000F9FA05B000BDC046B8E50110BD03001094
:1003800010B505F0E1FD094805F0E6FDFA20C000D2
:1003900002F01CF8064805F077FC0649064805F00F
:1003A000C7FDFFF7D7FF002010BDC046A01F0020EB
:1003B000C4E50110C8E50110D4E5011010B5234CC7
:1003C0001921A54402A800F013FC0122204902A82B
:1003D00000F0FCFD0AA800F0CFFC082301930533D0
:1003E0000F22002100930AA8013300F0DFFC09234B
:1003F000019301330C22012100930AA8013300F07C
:10040000D5FC012213490AA800F0E0FD16A800F06F
:10041000E5FA0AA916A800F007FB01220E4916A862
:1004200000F0D4FD00F07EFE04001DA901F070F87C
:100430000321200000F0DCFE2368032220009B68DB
:1004400006499847064809F04BFCFBE720FCFFFFF4
:10045000ECE50110F4E50110FCE5011004E60110E3
:10046000102700008020C0007047C046006A10B509
:10047000002804D003689B6A9847023010BD022010
:10048000FCE7C046006A10B5002804D00368DB6AA8
:100490009847013010BD0120FCE7C046074B10B55E
:1004A0001A000400083248330260C3611C3001F0B6
:1004B00041F8200000F0C0FD200010BD58E70110F9
:1004C0000A4B10B51A000400083248330260C361B9
:1004D0001C3001F02FF8200000F0AEFDE2212000DA
:1004E000890005F06FFA200010BDC04658E70110E2
:1004F00070B50400006A0D00002802D003681B6A72
:1005000098470BF011FE020020002900074B7430C1
:100510000DF028FF0AF03AF9D0239B0002002900D1
:10052000E018034B0DF052FF70BDC0460CE6011001
:100530001CE6011070B50400006A0D00002802D00E
:1005400003685B6A9847D0239B002900E0180CF0F1
:1005500095FC70BD70B50400006A0E0082B00028E2
:1005600002D003681B6B9847D12320009B00E5183D
:10057000290000221C3000F0EFFFD4239B00E2187A
:10058000103BE1180023300001930095024B0DF061
:1005900091FB02B070BDC04639150010F0B58B6AF2
:1005A000CC6ADE464E4645465746E0B595B00093C8
:1005B000019481460A684B68A348884605F0B8FC58
:1005C00001F0F2FF002900D101E1FA22002392009C
:1005D00004F02AFAE0234A469B00D050434600220A
:1005E0001C685D6800232000290004F08DFC434650
:1005F0009B6A00229B464346DB6A9A4600230028FA
:1006000000D1A4E05846514604F07EFC002800D0FA
:10061000F0E0534659004F0839008C4A8C4B58463D
:1006200004F011FC06000F0002000B00200029005E
:1006300004F009FC854A864B1290139104F003FCE8
:10064000844A854B0890099104F0F4FB7F4A804B63
:1006500004F017FC32003B0004F013FC7D4A0A90C2
:100660000B91089809997C4B04F0DBFB774A784B97
:1006700004F007FC32003B0004F003FC774A0C90C6
:100680000D910A980B99764B04F0DDFB6F4A704B85
:1006900004F0F7FB714A0E900F910C980D99704B76
:1006A00004F0D1FB694A6A4B04F0EBFB0022109086
:1006B000119100232000290004F044FC00220023B3
:1006C000002800D1A5E05846514604F03BFC002824
:1006D00000D181E01098119904F094FC021C484666
:1006E0000021006A002300F05DFB0E980F9904F0D2
:1006F00089FC4B46021C0121186A012300F052FBC1
:100700001098119943461A685B68049005910E98F9
:100710000F99029003914146886AC96A009001913D
:10072000504805F005FC0C9B0D9C02960397069320
:1007300007940A9B0B9C4C4804930594129B139CB2
:1007400000930194089A099B05F0F2FB38E05846A3
:10075000514604F0D9FB002800D15AE720002900B7
:100760003E4A3F4B04F06FFB384A394B04F089FB9B
:100770000022002304000E000D0004F0CDFB002831
:100780005CD1002701262900200004F03BFC021C5C
:10079000824648463B000021006A00F003FB4B46BE
:1007A0005246186A0121330000F0FCFA200043464B
:1007B00029001A685B68009001912C4805F0B8FB8D
:1007C00015B0F0BCBB46B246A946A046F0BDFA2122
:1007D000890004F0EBF8FDE60E980F9904F012FC86
:1007E0004C460021021C0023206A00F0DBFA10981E
:1007F00011997CE74846012300220021006A00F09D
:10080000D1FA4B460022186A0121002300F0CAFAEF
:10081000D6E75846514604F095FB002800D159E729
:100820000E980F9904F0EEFB021C48460021006A66
:10083000002300F0B7FA1098119958E780231B069F
:10084000F518012700269EE728E60110182D4454CC
:10085000FB211940B81E85EB51B8AE3FA5F279F6E1
:100860009B5DCF3F70E60110B4E6011044E6011035
:10087000036A10B5002B04D0D1239B00C3189A4201
:1008800000D010BDFFF78AFEFBE7C046074B10B54E
:100890001A00040008321C3C48332260E36100F077
:1008A00049FE200000F0C8FB200010BD58E70110F1
:1008B0000A4B10B51A00040008321C3C4833226071
:1008C000E36100F037FE200000F0B6FBE2212000DB
:1008D000890005F077F8200010BDC04658E70110E8
:1008E00010B5040043681C3C002B05D0CA239B00B4
:1008F0009C466044824200D010BD2000FFF74EFEAF
:10090000FAE7C046406810B5002804D00368DB6AE7
:100910009847013010BD0120FCE7C046406810B583
:10092000002804D003689B6A9847023010BD02205B
:10093000FCE7C04670B5040040680D00002802D0F6
:1009400003685B6A9847C9239B002900E0180CF0F4
:1009500095FA70BD70B5040040680D0082B00028A3
:1009600002D003681B6B9847CA239B00E61831002E
:100970002000002200F0F0FDCD239B00E218103B88
:10098000E1180023280001930096024B0DF092F924
:1009900002B070BD3915001070B5040040680D003C
:1009A000002802D003681B6A98470BF0BDFB0200C9
:1009B00020002900074B58300DF0D4FC09F0E6FE6A
:1009C000C9239B0002002900E018034B0DF0FEFC38
:1009D00070BDC0460CE601101CE6011010B5040005
:1009E00000F022FB20001C3000F09EFD0D4B20008B
:1009F0001A00083222604833E022E36100239200AB
:100A000023622367A35000220023A262E3622263D1
:100A10006363A263E36322646364A264E3642265A4
:100A2000636510BD58E701100162704710B50400FE
:100A300078300BF00FFB2000244980300FF08CFE43
:100A4000002834D0200022498C300FF085FE002889
:100A500037D021000022002398310A604B608A6061
:100A6000CB600A614B618A61CB610A624B628A6228
:100A7000CB620A634B635931FF310A604B608A6075
:100A8000CB608021890061180A604B608221890057
:100A900061180A604B608421890061180A604B600C
:100AA000862189008C4664442260636010BD094839
:100AB00005F0EAF8200006498C300FF04DFE0028C2
:100AC000C7D1044805F0E0F8C3E7C04600E70110CD
:100AD00030E7011008E7011070B50400FFF7A6FF2A
:100AE0001F4D2CE0FA220023920003F09DFFE0232B
:100AF0009B00E358C01A1B4B98421CD901F054FDCF
:100B0000002928D0FA220023920003F08DFFE02371
:100B10009B00E050206A00280AD001230022002117
:100B200000F040F9002300220121206A00F03AF988
:100B3000280005F0A9F8FA20400009F0D1F8236A4E
:100B4000002BF8D001F030FD0029CBD1FA2189002B
:100B500003F02CFFCBE7FA21890003F027FFD6E74B
:100B60003CE70110DC0500009620704710B504003A
:100B7000044B0833036000F015FA200000F05CFA23
:100B8000200010BDD4E7011010B50400064B083357
:100B9000036000F007FA200000F04EFA2000202148
:100BA00004F010FF200010BDD4E7011070B5040060
:100BB0000E4805F069F8207F00F066FD0123227FD2
:100BC000D025934001262D066B623200237FFA2048
:100BD0009A4040006A6109F083F83200237FFA20CE
:100BE0009A404000AA6109F07BF8EEE7C4E70110E3
:100BF00070B504000D0000F017FA034B2000083315
:100C00002577236070BDC046D4E701108020C00066
:100C10007047C0467047C0460020704701207047AB
:100C20007047C0460E4B10B51A0048330832040016
:100C30000260C361806A002802D003685B6898473D
:100C4000E06A002802D003685B68984720001C30E7
:100C500000F070FC200000F0EFF9200010BDC0464D
:100C6000FCE7011070B504002425A06A002803D019
:100C7000625D216A00F024F9E06A002803D0625D19
:100C8000216A00F01DF9C82009F02AF8EDE7C046F6
:100C90007047C0467047C0467047C0460020704746
:100CA000012070477047C046104B10B51A004833FA
:100CB000083204000260C361806A002802D0036821
:100CC0005B689847E06A002802D003685B68984731
:100CD00020001C3000F02EFC200000F0ADF92000B8
:100CE000302104F06FFE200010BDC046FCE701106B
:100CF00070B5104B04001A001C3C0500A06A0832B5
:100D000048332260E361002802D003685B6898479B
:100D1000E06A002802D003685B689847280000F06A
:100D200009FC200000F088F92000302104F04AFE80
:100D3000200070BDFCE7011070B50E4B04001A00D6
:100D40001C3C0500A06A083248332260E361002899
:100D500002D003685B689847E06A002802D0036805
:100D60005B689847280000F0E5FB200000F064F97C
:100D7000200070BDFCE7011010B5040000F054F92C
:100D800020001C3000F0D0FB054B20001A00483337
:100D9000E361002308322260A362E36210BDC04613
:100DA000FCE701100262242283547047F0B54F46DD
:100DB000D6464646C0B582B005000AA81E00037894
:100DC0000BA8994603780C0017009A46012905D90B
:100DD00002B0E0BCBA46B146A846F0BD342004F0EB
:100DE000EDFD53468046009332004B46390000F03B
:100DF0000FF843460A34A4006351E9E77047C04640
:100E000010B50400342104F0DDFD200010BDC04603
:100E1000F0B50400002683B00800266108A96661C9
:100E2000A6615B260F782049944608312160FF2196
:100E300066621E4E617232680021A26272680125EC
:100E40000192E2626246E160A18321622163190797
:100E5000490FA2718A005218154992005618E37181
:100E600014492B405B420B40134925718C46316875
:100E700063440B40802149010E4333600F4B607186
:100E80009C46624413680A439D431560D02527722F
:100E900000F0FAFB2D06A0792B6A00F0F5FB20008C
:100EA0002B6A03B0F0BDC04670E8011068E801107D
:100EB0000C0005400100FEFFFFFF000000000540A0
:100EC000F8B500270D1C016104000271391C281CB3
:100ED000160004F031FC00281AD000232363E379C4
:100EE00067611907490F8A0052182449DB078C46AD
:100EF0002349DB170B402349920062448C4611685A
:100F000063440B40802149010A4300201360F8BD6F
:100F1000FE27BF05391C281C04F016FC002800D051
:100F200027611425E77918493B075B0F5D43134B95
:100F300020699C46654404F0D0FB04F031FC80B28B
:100F4000FB0714D5114B00042A685040802252013F
:100F5000034015432B6001231900A2799140D02250
:100F60001206002E05D0916261798B405362054BC9
:100F7000EAE7516261798B409362C0460C000540FC
:100F80000100FEFFFFFF000000FF7F470000FFFFA2
:100F90004068704710B5002802D003689B699847E5
:100FA00010BDC04610B504004068002803D008F00A
:100FB0007DFC0023636010BD406810B5002802D09E
:100FC00009F02EF910BD0020FCE7C046F0B5040082
:100FD00083B008000D00160027001BF055FF0837EE
:100FE000132819D913222900380004F0E1FC00234A
:100FF000E37623682000DB699847231D02000193F4
:10100000390023000096074808F010FB01384342DE
:101010005841C0B203B0F0BD421C2900380004F0B2
:10102000C7FCE6E7950F0010024B0833036000236E
:101030004360704780E80110054B10B50833040089
:1010400003604068002801D008F030FC200010BD8B
:1010500080E801108020C0007047C046084B10B5E2
:101060000833036088235B000400C058002801D0C7
:1010700008F00CF92000FFF7DFFF200010BDC0468C
:1010800080E901100A4B10B50833036088235B0028
:101090000400C058002801D008F0F8F82000FFF73D
:1010A000CBFF8C212000490004F08CFC200010BDF7
:1010B00080E9011070B5184D2C68002C0AD0210071
:1010C0002000002220311C300BF0D8FD236A0133B0
:1010D000236270BD8C20400004F070FC0400FFF718
:1010E000A3FF0E4B8422083323608826002352007E
:1010F000A35476000432A350102100220A20A351E9
:1011000007F04AFFA051002801D02C60D7E704481F
:1011100004F0BAFD2C60D2E73496002080E901107B
:10112000A8E8011070B5144D2C68002C01D02000E7
:1011300070BD8C20400004F041FC0400FFF774FFF8
:101140000E4B842208332360882600235200A354C8
:1011500076000432A350102100220A20A35107F088
:101160001BFFA051002801D02C60E0E7044804F0E8
:101170008BFD2C60DBE7C0463496002080E901102F
:10118000A8E8011000B589B003A80DF093F90F4B42
:1011900003A803930E4B04930E4B05930E4B06933B
:1011A0000DF092F900280BD00C4B002101930C4B51
:1011B000012000930B4A0C4B0DF056FD09B000BD09
:1011C00087210A4804F0B4FEF8E7C046191600105B
:1011D00021160010291600103D160010BD15001034
:1011E000A515001099150010A1150010D0E80110E8
:1011F00070B5842504006D006155080000F044FAC4
:1012000001231900625D9140D02212065162615D96
:101210008B40936170BDC046F0B5D64646464F46FA
:101220000400C0B58EB004AD28000DF069F92300AC
:10123000303307CD07C306CD06C3302325009846BB
:1012400026004435A04443460022002128362800C9
:101250000CF0DAFF2B003A4A3A4930000DF048F81A
:101260000FF004FB020020003100374B1C300DF062
:1012700079F824239946354BA14400932900002393
:101280004846334A0DF0D6F886235B00E0589A466C
:10129000002852D0036831002A009B6898475346C3
:1012A000E05803685B6998475346471CE058036859
:1012B0001B699847811C26002648783604F038FEC2
:1012C00043463A00290030000CF064FC49463000E7
:1012D0000CF030FD86235B00E058002803D0036843
:1012E00031009B6998471C480EF0CCFD002820D1A6
:1012F00088256D006059002805D000220AA907F052
:1013000037FF012808D0154804F0BEFC0EB0E0BC41
:10131000BA46B146A846F0BD0D9B0C9802930B9BB4
:10132000029A039303680399DE690223B047605968
:10133000E3E70B4804F0A8FCDAE702210127BAE74B
:1013400064F90110F8E8011004E90110B51000106B
:1013500000CA9A3B10E901108813000040E901100F
:1013600028E90110F0B5DE464E46454657460400D2
:10137000E0B591B006ADFFF705FF28000DF0C0F80D
:101380002300303307CD07C306CD06C300232362F5
:1013900078339A46343B99461C3B98460C3B9C4616
:1013A000A4446346029324239C46A44463460393C7
:1013B000544BA2449B465346A1448426D025CA469A
:1013C0009946A04476002D06012164200DF066FCAC
:1013D0000123A25D9340002852D16B6107F0AAF966
:1013E0002000FFF719FF4F4607F0A4F90121642000
:1013F0000DF054FC002816D10123A25D3800934063
:10140000414A6B6100230CF0C7FE88235B00E05863
:101410009946002838D107F08DF9012164200DF09C
:101420003DFC0028E8D00123A25DB9469340AB61A2
:1014300007F080F950460AF095FF00210EF038FDC4
:10144000414602980BF0ACFB03980BF037FF862364
:101450005B00E058002804D0036852464146DB6830
:10146000984748460CF0F8FB40460BF02FFA5046E0
:101470000CF014FF584604F007FC07F05BF9A3E7F3
:10148000AB6107F057F99FE70B3BFF3B01930097D8
:1014900000220CA907F06CFE012803D0009F07F082
:1014A00049F9A3E70D9B002204930C9B04991800B3
:1014B00005930BF0E3FB002813D10F9B0E980493C8
:1014C0000D9B049A059303680599DB691F000023AF
:1014D000B847019B013B0193002BDFD04B46E058FE
:1014E000D6E7009B01000948994604F021FD0E98BB
:1014F0000F9A03680D99DF690123B84707F01AF9BD
:1015000098E7C0466CE901108096980054E90110F4
:1015100086235B00C15070477047C046002070476B
:101520007047C0467047C046014B083303607047A0
:10153000A8E901107047C04610B50C68054A236839
:101540001B6A934200D110BD0A0001002000984799
:10155000F9E7C0462515001005C1704770B50C00AD
:1015600001F022F800230B4A06000D0003F05CFA9C
:10157000002320606160074A3000290003F054FA1C
:10158000100053019B1A9A001218D2000020A2608A
:1015900070BDC04640420F0010B505F00FF810BDF9
:1015A0000120704710B51400034B08001B681100A0
:1015B0009847200010BDC046B81F0020F8B5CE46A1
:1015C0004746984680B546460D00140000F0ECFFF3
:1015D000104BF71736184F41994609E04B4621004A
:1015E00028009B689847804600280FD107F0A2F892
:1015F00000F0DAFF8F42F1D801D18642EED8002305
:1016000098464046C0BCB946B046F8BD012008F037
:1016100067FBF6E7B81F002010B506F0F1FE10BD1D
:1016200010B506F099FF10BD10B50C00002801D0D0
:1016300006F092FF200006F0E3FE10BD414370B5B6
:1016400008000D0006F0DCFE04002A00002104F072
:10165000A9F9200070BDC046094A83009446402283
:10166000634410B51C68C0006240C024144080224E
:10167000520113431C60034B9C466044416010BD03
:1016800004C00140004001400123D02283401206E3
:1016900093629361094A8300944640226344196827
:1016A000C0004A40C02111408022520113431960FA
:1016B000034B9C46052360444360704704C00140CF
:1016C00000400140024B18688007C00F7047C046B9
:1016D00000C0064070B5EFF3108C72B60D4D2B684C
:1016E000002BFCD0BFF35F8F0724CB08C618C05C6B
:1016F00001230C40A3401C000440034207D10343D4
:101700003370BFF35F8F2C608CF3108870BD1000B6
:1017100001F0BEFD2C0100D0F8B54746CE46884604
:1017200080B5EFF3108C72B6214D2C68002CFCD0E4
:10173000BFF35F8F9A422CD8D4080727055D06199E
:1017400001241740BC402C421FD0072101278946A5
:1017500009E0D408055D06194C4639001440A14043
:101760000C00294211D001329342F2D201204042B2
:10177000BFF35F8F00220E4B1A608CF31088002895
:101780000FDBC0BCB946B046F8BD2C431000347026
:10179000EEE7BFF35F8F00232B608CF310880120EE
:1017A00040424346002BECD0089801F071FDC04642
:1017B0002C0100D00021044B044ABFF35F8F02C309
:1017C0009342FAD17047C046000100D0800100D09A
:1017D000044A1078431CDBB2172B00D91023137076
:1017E0007047C046081F002000B5054B83B00100BC
:1017F000009318221F230348FFF78EFF03B000BD9C
:10180000D4E90110C89B002001238340002904D0A3
:10181000034A1360034A13607047034A1360FBE7EF
:1018200080E200E000E100E080E100E0012383408D
:10183000014A13607047C04600E200E0084B1030D8
:101840009B688000C358002B07D0064A00209B1AD3
:101850002F229A424041C0B270470020FCE7C046A8
:1018600000ED00E00C1F0020024B10309B68800050
:10187000C058704700ED00E070B50D00EFF3108622
:1018800072B60F4A1368002BFCD0BFF35F8F0D4B6D
:1018900010309B6884001B590B4A934203D09D4231
:1018A00001D001F013FD074B9B681D51BFF35F8F03
:1018B000BFF35F8F0022024B1A6086F3108870BD61
:1018C000240100D000ED00E0CD010010F0B5574636
:1018D0004E46DE464546E0B585B00600029117004B
:1018E000EFF3108B72B6674A1368002BFCD0BFF37E
:1018F0005F8F0025644B5D579A46002D00DAA4E007
:101900006B00624C03935B199B009846A146C1444F
:101910004B4652469B79103613705D4BB2009B6864
:10192000019299580B1B2F2B34D95A4B994200D056
:10193000A4E0039B584A9C46584B6544AD00635352
:10194000434602336519E418554B0121043B1B1B28
:101950001B055B0D13436B80524BEF71AB80FF2374
:10196000AB71029BAB604B460B431900484B019A8D
:101970009B689950BFF35F8FBFF35F8F0022414B8D
:101980001A608BF3108805B0F0BCBB46B246A9467E
:10199000A046F0BD01200A008243D379BB422FD874
:1019A00045464E46130040491B1B5B415943090DF8
:1019B0003A4B63533A4B02356519043B5B1B1B05DD
:1019C000354D5B0D2B4373800426B446E0444444FC
:1019D000131F1B1B4C46A17102991B05A1604946B0
:1019E0005B0D2B43A380314BE77101431360BDE7CF
:1019F0005800C01880002018C679BE422BD90200BA
:101A00000623D356002BF3DA101D82462848804661
:101A100004267642B446E14450464E46361A300516
:101A2000400D824656461C48957106439680039A9F
:101A3000944665441D4AAD00641922604246A37174
:101A4000029BA280E771A36090E701F03FFC0025B4
:101A500053465D5754E7101D824690884005001597
:101A600084464046D444664604302018301AE026A6
:101A70000005400D360230438046C9E701F026FCE0
:101A800057E7C046240100D031AE02200C1F0020D1
:101A900000ED00E0CD01001000E0FFFF00A1FFFF1E
:101AA0003C1F002001BDFFFFAAAA0000014880479B
:101AB00001BD0000F0B5DE4657464E464546E0B54E
:101AC0000C0083B0EFF3108972B6584A1368002BEC
:101AD000FCD0BFF35F8F564B9A68030010339F0012
:101AE000D559544A9046954232D0A54243D0524EE1
:101AF000AA1B2F2A2CD801228240924651464F4AD7
:101B000012681140019151464D4A1160BFF35F8F39
:101B1000EFF305829346002A33D101232A009A432A
:101B200093689C4208D177E04B005B189B00F31848
:101B30009968A1422AD01A00062151560029F3DAE9
:101B4000019B002B19D052463E4B1A603B4B1A604A
:101B5000374B9B68DD51BFF35F8FBFF35F8F002270
:101B6000324B1A6089F3108803B0F0BCBB46B24612
:101B7000A946A046F0BD1500EAE75246304B1A6070
:101B8000E6E79342C9D001F0A1FBC6E7062159560A
:101B9000002921DB4A005018800034188046A068D4
:101BA0009860E079D871062020569871002824DBCF
:101BB000A488F01A6405241544440019E0240005A3
:101BC000400D24022043988052181F4B9200B618F3
:101BD0001A781970B271B3E7594600290FD1FF3155
:101BE00091711A49918018490A789A71184A9B1B79
:101BF0005B415A43120D0A70A2E71648E3E7164A02
:101C00001649D21A083A5002400D014399801449EE
:101C100052080A43DA8093E706215156130000293F
:101C2000B8DA5A46002AEAD14546DCE7240100D05A
:101C300000ED00E0CD0100100C1F002000E100E0ED
:101C400080E100E080E200E031AE022001BDFFFF54
:101C5000AAAA000001BD0000461F002000F0FFFFFF
:101C600000F8FFFF032310B50400074A184094460C
:101C7000C0009C43FC3383406444226881409A4303
:101C800013000B43236010BD00E400E070B5EFF3D8
:101C9000058101240443EFF3108C72B6214A1368C6
:101CA000002BFCD0BFF35F8F1F4B05001F4AED1ABE
:101CB0006D416A43120D1E4D8900AE6852B27658CE
:101CC000A6421CD00621595691421CD012215956C9
:101CD000914222D01E215956914220D02A21595694
:101CE0000324914210D0134B19781A708171BFF3FD
:101CF0005F8F00220B4B1A608CF3108870BDAB68AD
:101D00000D4C5C50EFE700246100091989005B1855
:101D1000FF21997109499980E5E70124F4E702243C
:101D2000F2E7C046240100D00C1F0020AAAA000040
:101D300000ED00E031AE0220CD01001001BDFFFF3B
:101D4000054B064A1360064A136053609360D360E4
:101D500013615361936170478080808000E400E0EC
:101D600004E400E000B5074B83B0010000930022BB
:101D700005230548FFF7D0FC002801DB1F23181AB4
:101D800003B000BDF0E9011036AE0220024B9C46C4
:101D900061448900016070474000003410B50400C0
:101DA000FFF716FD01002000FFF7F0FF01235B4263
:101DB0006360BFF35F8F10BD10B50400FFF708FD2F
:101DC00001002000FFF7E2FF01235B426360002374
:101DD0002372BFF35F8F10BD10B504000120FFF721
:101DE00003FD044B9C46604480002060BFF35F8F7E
:101DF00010BDC04640000034034B9C46614489003E
:101E00000160BFF35F8F70474000003483680B4868
:101E100010B5844661446244090112019A185918A8
:101E200054684B6801209C4201D802D00020C0B207
:101E300010BD12680B689A42F9D8F7E7FFFFFF0F51
:101E4000074810B50268EFF3108172B61368002BD3
:101E5000FCD0BFF35F8F06F071FD0020002110BDA4
:101E6000F4A70020F8B557464E464546DE46E0B595
:101E700099460CAB1C780DAB1B78060090469A4631
:101E80000768002C11D1BC7B002C42D065003B6858
:101E90002D19033D59194B78BB73002B00D1FB73EF
:101EA00000238B704B700B7004E065003B682D19AC
:101EB000033D5919B2682A4B94464246E3181B0168
:101EC00063441A604A465A600A9A9A600B9ADA602A
:101ED00000238B704B700B707B7B9B46002B2BD0B1
:101EE00022005946B8687B6898473A68002816D09F
:101EF0005B4658465B005B445519033BA870D118FC
:101F0000D35C002B00D06B705B460C707B73A345D9
:101F100013D0F0BCBB46B246A946A046F8BD5B460E
:101F20005B005B44033BD3189C705119525D002A3F
:101F300000D05A705B460B707C7342464B46307D36
:101F400000F0BCFB051E06D05346002B03D1210038
:101F5000306800F0D7FD0E9B002BDAD01D70D8E75B
:101F6000FFFFFF0FF0B5DE4657464E4645460023BD
:101F7000E0B58BB00893674B8200D45800239B4692
:101F8000099000F011FB626806000F00EFF3108566
:101F900072B61368002BFCD0BFF35F8F23689C469A
:101FA0005B7B9946002B00D169E0A2685A4B9046B2
:101FB0004B441B01984443461A685B6810001900A3
:101FC000801BB941002900DC63E0099800F076FB32
:101FD00000230022984600230692079300239A4686
:101FE0006368BFF35F8F5A461A6085F310885346C3
:101FF000002B08D10028C4D10BB0F0BCBB46B246C0
:10200000A946A046F0BD089B414618024B4618431E
:10201000D047626806000F00EFF3108572B61368B0
:10202000002BFCD0BFF35F8F002F50DB33003B430E
:1020300002D02369002B61D12368D97B002907D006
:102040004A00521819688C4649466244033A517056
:102050009A7B002A01D14A469A734A46DA734B4664
:10206000E168013BCA5C0132CA545B462361636884
:10207000BFF35F8F5A461A6085F3108881E700230B
:1020800000229846002306920793002300209A46D8
:10209000A6E7002902D1002800D096E7002160467B
:1020A00000F0AEFC43461A685B680692079343460D
:1020B0009B689A464346DB689846E3684B44013B7D
:1020C0001B7808931B0203432361002088E72369E0
:1020D000002BB1D0069A079B921BBB41002B15DB4E
:1020E00059460491012103914946029141460191CB
:1020F000514620000091FFF7B5FEB6E700F054FA14
:1021000032003B0012184B41002BE9DA0122034B4D
:102110005242E5E7ECA40020FFFFFF0FFFFFFF7F27
:1021200010B5144C6368002B04D00A211248FFF745
:102130002DFE10BD2300114A1021206800F07AFB0B
:10214000032000F025FA032000F022FB03200C49B5
:1021500000F06EFAFFF73CFB0A4B9C460323237505
:10216000D0231B061B6860446375074B80006060CA
:10217000DC60DAE7541F0020F4A700200D1E0010D9
:10218000651F001040000034ECA400200048704798
:10219000541F0020F0B54E464546DE465746E0B592
:1021A00085B0019310AB1B7806000393002399467A
:1021B000984600927268EFF3108B72B61368002B8A
:1021C000FCD0BFF35F8F3568AC7B002C3DD067003F
:1021D0002B683F19033FDB195A78AA73002A00D1F4
:1021E000EA73B168474A8C4600980199A218120117
:1021F0006244106051600E9991600F99D16042461F
:102200009A705A701A706B7B9A46002B67D0220026
:102210001900A8686B6898472A68002852D053466E
:1022200050465B005344D719033BB870D118D35CB8
:10223000002B00D07B7053460C706B7354454FD00D
:10224000F3681B19013B187800E000207368BFF3A6
:102250005F8F42461A608BF31088002C4FD04B469C
:10226000002B08D10002204305B0F0BCBB46B246AB
:10227000A946A046F0BD039B002B3ED00E9B00203C
:102280000F999847030004000D000B4335D0002937
:102290000ADA009A019B121BAB4100920193002BBA
:1022A0000ADB039B994685E700F07EF924184D412F
:1022B00000940195002DF4DA0123134C5B42009346
:1022C0000194EEE753465B005344033BD3189C70E4
:1022D000D119D25D002A00D05A7053460B706C732E
:1022E000307D009A019B00F0E9F981460028A7D0D3
:1022F0002100306800F006FCA2E70020B4E70120CE
:102300004042B1E7FFFFFF0FFFFFFF7F407D7047B7
:10231000F0B54746CE46040080B50D0096267642BD
:10232000F71736196F4185B08F4215D812D000F0DB
:102330003BF932003B00121A8B41002B16DC002BBC
:1023400039D02000290000F063F905B0C0BCB946BF
:10235000B046F0BD8642EAD90026002700F024F9F5
:1023600032003B00121A8B41002BE8DD0023029360
:102370000193124B3200009311483B00FFF70AFF14
:102380000028DEDBB846B1460E4F0F4E736A984503
:1023900004D8B26A9145D4D99845D2D13A68EFF3BE
:1023A000108172B61368002BFCD0BFF35F8F38002A
:1023B00006F090FAEAE7002AC3D0D7E7411E0010E2
:1023C000541F0020F4A700200040054070B506000F
:1023D00000F0EAF8FA2204000D000023300000218A
:1023E000920003F043F900196941002902DBFFF76D
:1023F0008FFF70BD012001494042F8E7FFFFFF7FDA
:10240000F0B5EFF30583CE46474680B505000C00D6
:1024100085B0002B12D02C4A0020536A9C4203D86E
:10242000926A0130AA4204D305B0C0BCB946B04696
:10243000F0BDE01A421E9041C0B2F5E7234E029370
:102440000193234B0200009330000B00FFF7A2FE24
:10245000031EE0DD20BF7168EFF3108772B60A68D3
:10246000002AFCD0BFF35F8FDAB294463068427B1B
:1024700062451DD0FF221A405100894601689144EF
:1024800088464946414403398978002913D0F168C8
:102490001B0A88464244013A1278DBB29A420FD0B6
:1024A0007368BFF35F8F00221A6087F31088B2E76A
:1024B000FF221A40EBE732699342F1D13161EFE735
:1024C000614600F01FFBEBE700400540541F002071
:1024D000411E0010F0B5EFF30582D6464F46464642
:1024E0001000C0B51038EFF3108872B6214C236885
:1024F000002BFCD0BFF35F8F0123190081401E4DDC
:102500001F006963AA461D4D29601D4D2E78AC46FB
:102510003500C5402F402B4209D1BFF35F8F2760A4
:1025200088F31088E0BCBA46B146A846F0BD5346D1
:10253000144D5F6A83005D59AF420ED3124A8E4339
:102540009B5862461670BFF35F8F0022226088F3AB
:102550001088002BE6D09847E4E70C4B92009C468D
:10256000624413681360BFF35F8F0023236088F316
:102570001088D7E7280100D0004005403C70054096
:1025800035AE022034AC00208C9A0020D03F0540AC
:1025900010B50100024A0348FFF79CF810BDC04681
:1025A00018EA011017AE0220034B596A0A00986A14
:1025B000596A8A42FAD170470040054070B504005C
:1025C0000D00124A536A1900966A536A8B42FAD177
:1025D0003000190024184D41AB4211D80ED02B0009
:1025E0000A494A6A9A42FCD307D1084A02E0516A72
:1025F000994202D1916AA142F9D370BDA642EED9A7
:10260000012301246442E5175B42E9E700400540ED
:10261000064A536A9942FCD807D1044B02E05A6A31
:10262000914202D19A6A8242F9D370470040054034
:1026300070B504000D00EFF3108672B61A4A1368E5
:10264000002BFCD0BFF35F8F002D1BD02000FFF7C5
:102650000BF9164981420AD02000FFF70DF901213C
:102660002000FFF7D1F80123A340114A1360114B5A
:10267000A400E550BFF35F8F00220B4B1A6086F376
:10268000108870BD0B4BA200D5500122A2400A4910
:1026900020000B7893430B700449FFF70BFA0021DD
:1026A0002000FFF7B1F8E5E7280100D0D52400109D
:1026B000386005408C9A002035AE0220F0B54F46B8
:1026C000D6464646C0B507002C4C616A0D00A66A86
:1026D000616AA942FAD18B4208D805D00120E0BC3A
:1026E000BA46B146A846F0BDB242F7D9EFF3108A18
:1026F00072B6234801680029FCD0BFF35F8F012523
:10270000BD4020491D4C8846097889462943C9B2F5
:102710008C46414660460870391D1B488900656338
:102720000A51B9000B50216A0020294219D0616A70
:102730000800A66A616A8142FAD18B4219D801D198
:10274000B24216D8CC4516D00C4B1F201D625D63DB
:1027500001230740BB400D4A1E38136043464A46DA
:102760001A70BFF35F8F0022054B1A608AF310883E
:10277000B5E70020F5E70120F3E7C046004005403B
:10278000280100D035AE022034AC002080E200E009
:10279000EFF3108C72B60A490B68002BFCD0BFF324
:1027A0005F8F01238340074A0748136202789A43E8
:1027B0000270BFF35F8F00230B608CF310887047AB
:1027C000280100D00040054035AE022070B505005C
:1027D00014001600002915D00C00002A12D08068C1
:1027E0006B689847296800280ED073009B19620017
:1027F000033B1219CB18033A9C7088188A5C002A94
:1028000015D10670200070BD63001B197200033BD8
:102810009219CB18033A9E7088188A5C002A02D15C
:1028200004703400EEE75A7004703400EAE75A701E
:102830000670E7E730B583600023CCB24373013301
:10284000047342608373C4730D000068012C06D9C1
:10285000421C0133DBB2137003329C42F9D1FF21D9
:1028600029404B005918002340180338437030BDED
:10287000F8B5CE46474606000C0080B5002907D0C3
:102880004D0003686D18033D5A195778002F04D185
:102890002000C0BCB946B046F8BD7900C91903395B
:1028A00088464344597889460021597051707368AD
:1028B0003A002100806898473368002814D04246C7
:1028C0009A18947059195B5D002B00D053700F70EB
:1028D000270049463000FFF7CBFF390002003000E7
:1028E000FFF774FF0400D3E7424641465D19AF701D
:1028F0009A185B5C002B00D06B701470E9E7C0463F
:10290000F0B557464546DE464E46E0B50D006B0035
:1029100001685B19DF1E0400C85D83B00192CA190B
:10292000002850D043001B18033BCB185E78B446F8
:10293000002E1AD1019E002E42D0E67B002E04D03C
:1029400073009B19CB18033B5D70A37B002B00D158
:10295000A573E57300282FD10023537003B0F0BC9A
:10296000BB46B246A946A046F0BD72006244033A97
:1029700089184A78904600224A7091465A700100A0
:1029800032002000FFF722FF43468246002B07D08B
:102990005B0021684344033BCB185A78002A16D1C8
:1029A000424651462000FFF711FF2168019BCA19DA
:1029B000002BC2D10028CFD043001B18033BCB18FB
:1029C00000219970C8E7019B002BB6D1C4E75000E5
:1029D000801803380918487883464846487058706C
:1029E00041462000FFF7F2FE594680462000FFF7DF
:1029F0003FFF414602002000FFF7E8FE8046CFE798
:102A0000F0B557464546DE464E46E0B583B00191E7
:102A1000457B04006B0000685B19DF1EC15DC219B5
:102A2000002952D04B005B18033BC3185E78B446B4
:102A3000002E1CD1019E002E44D0E67B002E04D037
:102A400073009B19C318033B5D70A37B002B00D15F
:102A5000A573E573002931D10023280053706173F9
:102A600003B0F0BCBB46B246A946A046F0BD72001A
:102A70006244033A801842789046002242709146A0
:102A80005A7020003200FFF7A1FE43468246002B19
:102A900007D05B0021684344033BCB185A78002AD7
:102AA00017D1424651462000FFF790FE019B0100DE
:102AB0002068C219002BC0D10029CDD04B005B1873
:102AC000033BC31800209870C6E7019B002BB4D1CC
:102AD000C2E75000801803380918487883464846F2
:102AE0004870587041462000FFF770FE59468046F6
:102AF0002000FFF7BDFE414602002000FFF766FE02
:102B00008046CEE770B5040000292CD0437B8B4271
:102B10002ED0056848004018033828188278002A0B
:102B200021D053009B18033BEA5CEE188A4202D185
:102B30001BE0002A08D053009B18033BEB185A787F
:102B40008A42F6D142785A70002301228370437082
:102B50002000FFF7D5FE617B02002000FFF736FE64
:102B60006073012000E0002070BD43783370EBE714
:102B700001221900FFF7C4FE60730120F4E7C0468C
:102B8000F8B5CE464746040080B506200E0000F09A
:102B900023FA051E51D0524B5249E21853425A4172
:102BA0008023DB039C4692054F4B62441A604F4BD7
:102BB0001A6010008B689843FBD1494B8021E318C1
:102BC0005A4253414A4A5B0049009952062000F09C
:102BD00003FA3100C00001F0E9FEC30932D14022FE
:102BE000012190466162A362256BEB0736D4270072
:102BF0008026E36A00232C3776013E4333600620AB
:102C0000256300F0E9F94146800001F0CFFE236B17
:102C100005009846DB073BD46022E36A5A406E23E6
:102C20001340336043462363802310229B013B43C0
:102C30001A60304B23630323A3642800C0BCB94649
:102C4000B046F8BD2C4A93423FD900232B492C4A69
:102C50006162A362256B9046EB07C8D52200C023B2
:102C600030329B011343234A06201A60666AA26A27
:102C7000B601B61800F0B0F9224901F097FEB6028D
:102C80000100300001F092FE0021FFF797FCAEE753
:102C90002200C02330329B011343164A06201A60DB
:102CA000636AA26A9B019946914400F095F94B46EC
:102CB00014499B02994601F079FE0100484601F053
:102CC00075FE0021FFF77AFCA6E77F22990188466E
:102CD00010400130400819008044030082E7C046DC
:102CE0000080FCBF00C0004000E0004000F0004059
:102CF000B8AC002001030000FEFF0000FFFF000051
:102D0000C0FF3F004E0E000030B50C2083B000F035
:102D1000B9F9FEF7D7FC00280ED0994B994A1A60F2
:102D20005A609A60DA601A615A619A61DA611A62CD
:102D3000954A5A6203B030BD944CA06700F0F6F992
:102D40000122934B1A60636C012BFCD10322914B3F
:102D50001A608E4A936B012BFCD1013301218E4AFC
:102D60008E480093043300F03DF905238C4A00930C
:102D700001218C4800F036F98B4B5A68FF2A02D8A3
:102D8000802252005A6080227D4C824B21691201C0
:102D9000854D1A60002907D0606901F007FE431CC9
:102DA0005800C0180338FDD2E0217F4B02201A687A
:102DB0001140802252012A431160196848400321C2
:102DC0000140116004219A681142FCD080228021C8
:102DD00092012A4309011160802252005A60734B0C
:102DE0002361734B5968FF2900D85A600321684A50
:102DF0006F4B116002399A681142FCD0E0201A68CA
:102E00001040802252011A43106018684840032184
:102E100001400220116066498A681042FCD080227D
:102E200092011343802212011A608022614B5200EA
:102E30004A606361604B5968FF2900D85A6080225C
:102E40005E4BE16912015C4D1A60002907D0606990
:102E500001F0ACFD431C5800C0180338FDD2E0223D
:102E600055490B681A4080235B012B431A6080236D
:102E700080229B012B4312011A608022414B520099
:102E80004A60E3614E4B5968FF2900D85A6080229E
:102E90004C4B216A12014A4D1A60002907D0606923
:102EA00001F084FD431C5800C0180338FDD2E02215
:102EB00043490B681A4080235B012B431A6080232F
:102EC00080229B012B4312011A60802380225B0029
:102ED0004B602C4BD20223623B4B5968914200D28B
:102EE0005A608022394B616A1201374D1A600029FD
:102EF00007D0606901F05AFD431C5800C018033820
:102F0000FDD2E02230490B681A4080235B012B433D
:102F10001A60802380229B012B4312011A608023B8
:102F2000DB024B60184B6362294B5A68FF2A02D8B8
:102F3000802252005A608022264BA1691201244D42
:102F40001A60002907D0606901F030FD431C580069
:102F5000C0180338FDD2E0221D490B681A408023B7
:102F60005B012B431A60802380229B012B431201BB
:102F70001A6080235B004B600E4BA361DAE6C0460B
:102F8000DC9B0020006CDC021BB7000000800040CE
:102F90003CB0004030B00040002F68590080024033
:102FA000008C864700C0024030800040001BB70004
:102FB0003C800040405973075480004054B00040AA
:102FC0006080004060B000406C8000406CB0004009
:102FD0004880004048B00040014B8000C058704716
:102FE000DC9B0020F8B5040021481D0017000E00EE
:102FF00001F0DCFC0100380001F0D8FC069B29043C
:103000001B0319432368002B20DB1A4B1A4DE218CF
:1030100053425A4180235B019C461203174B624482
:103020001A60174B1A601700AB689F43FBD1C02290
:10303000231D92011A4321232660A0601360236898
:10304000002BFCDA0823E1601360F8BD3F232268FF
:103050001340B342D9D1A3681B051B0D8342D4D1C1
:10306000EE22E368D20213408B42CED1EDE7C04698
:10307000001BB7000040FDBF00C0004000E0004062
:1030800000F000408023024A9B000343D362704754
:103090000080054010B5140080221B4BD2051A6039
:1030A00000281AD00123194A1843194BDA61194A2A
:1030B00042401A62596298628022134BD2051A600C
:1030C0001549164A1160E022D2041A60002C07D17B
:1030D0008022134B12061A6010BD0D4BD861EBE72E
:1030E00063011B1B9A008023121912015B049A4290
:1030F00000D30C4A0C4B1A60054B5A608022084BD7
:10310000D2051A60E8E7C04600B00540D3C007B05A
:10311000008005402D3FF84FFCFF010008200140D2
:1031200000A00540FFFFFF00B0A40020AA23064A2C
:103130001B0113602F230549D360054B19605368A9
:10314000002BFCDA7047C0460040024000B0FA0095
:10315000006002402C4B2D4A70B51A602C4A2D4B52
:103160002D491A6014008B689C43FBD12B4D2C4ECB
:10317000B54208D2013E761BB60808CD9847230019
:103180000134B342F9D1FFF7BFFD264A214B1A6043
:10319000214A9368DB43DB01DD09002BF9D1402292
:1031A000214B224C224E9A675A671A67DA66B4425C
:1031B00008D223682000002B20D00C34FEF7FCFD41
:1031C000B442F6D31B4E1C4CC022A168300002F062
:1031D000EFFBA660FEF7EEFAFEF7B2FDFEF7A0FFEA
:1031E000164C174EB44208D2013E361BB60808CC26
:1031F00098472B0001359E42F9D170BD0834FEF787
:10320000CDFDB442D5D3DDE700E00040BFCDFBFEED
:10321000FE7F3C0000F0004000C00040844C0020D5
:10322000944C0020FFFFFF0100F00140744C00208F
:10323000844C00200000002000ED00E0944C0020B1
:10324000B04C002000BEFDE7094A030010680028CA
:1032500005D00849C3188B4207D813607047064849
:103260000449C31810608B42F7D901204042F5E7AA
:1032700098A000200000042038AE022000207047F3
:10328000012040427047C04610B5FFF7DBFFC04643
:103290000FB400B5084883B002F0F6FC049B002B85
:1032A00007D005A91800019101F006FB034802F0C0
:1032B000EBFC0120FFF7C6FF3CEA011068E90110B2
:1032C00010B50148FFF7E4FF4CEA011010B50148C2
:1032D000FFF7DEFF5CEA01109A4200D28854704783
:1032E0007047C046F8B557464E464546DE46E0B5FF
:1032F00099460A9B07009A460D9B884693461500FF
:103300000B9E9B0710D10C9B9E420DD29D1B14005F
:103310000E005D4422004B46013431002020B847A6
:10332000A542F7D1B0460B9E002E27D04446751912
:103330005346AA1B013E985D21004B46B847002E1C
:10334000F6D123002C0098460D9B9B070FD55B46BA
:10335000E51A0C9BAB420AD94646984622004B46DA
:10336000310020200135B8470134A845F6D82000A7
:10337000F0BCBB46B246A946A046F8BD2C00E3E728
:10338000F0B54F464646D646C0B584B098460EAB1B
:103390001B78129F994694460D9C109B119EBA076C
:1033A00025D4002E4BD19C4200D3BFE001223A40ED
:1033B00092461F2C00D9B8E00C9A551E302201E02D
:1033C000202C03D001342A55A342F9D85246002AB2
:1033D0000DD0A6420BD9202C44D00C9A551E302279
:1033E00001E0202C3ED001342A55B442F9D1FA062E
:1033F0004DD57A053FD4002C39D10F9B102B00D12D
:1034000079E00F9B022B00D18AE030230C9A012433
:1034100013704B46002B3FD02D230C9A13550134CB
:103420000C9B624600930397434602960194FFF774
:1034300059FF04B0E0BCBA46B146A846F0BD01222F
:1034400015003D40AA463A422FD04A46002A02D1F2
:103450000C323A4200D0013E9C42BAD21F2CABD96A
:10346000202E27D92024FA06DAD57A0503D4A342E0
:103470002DD0A6422BD00F9B102B32D0022B20D068
:10348000202CCDD030220C9B1B191A700134202C1B
:10349000C6D04B46002BBFD17B070DD43B07BFD511
:1034A00020230C9A13550134BAE79C429FD21F2C5B
:1034B00000D881E720249AE72B230C9A1355013476
:1034C000AEE7202CACD00C9B1B1901343AE0631EF4
:1034D000012C92D00F9A102A2AD0022A2FD01C0039
:1034E000D0E7BB060ED4202C9AD00C9B1A190134BD
:1034F00078231370C4E7BB060DD478230C9A0124FB
:103500001370BFE7202C00D18AE758220C9B1B19AF
:103510001A700134B4E758230C9A01241370B1E7F0
:103520000C9A603301241370ACE7202400265EE778
:10353000023CBA06E9D40C9A12191C00D8E70C9A7E
:103540009246534462221A709AE7C04610B500288A
:1035500000D110BD02F04CFBFBE7C0460B0010B5DC
:10356000002802D049681B68984710BDF0B5DE46B8
:1035700057464E464546E0B59BB09B46249B894640
:103580009846259B0B900C924046424619009A465D
:1035900001F0DDFC002800D0D8E001224046514671
:1035A000774B524201F0CEFC002800D0CEE0012241
:1035B00040465146734B524201F0AEFC002800D009
:1035C000C4E0002200234046514601F0A5FC00283B
:1035D00000D0B9E1424653460A9209938023289AC3
:1035E000DB001A400E92289A1A4201D10623269334
:1035F0000A9A099B1600134300D0C7E0289B0025B8
:1036000000261B0500D49BE100230D93269A0D9BF9
:103610009A4200DC9FE1D01A431E26938023289A09
:10362000DB001A430023002728920D93279B0024D8
:10363000BB4200D9DC1B0223289A1A400E92289A1A
:10364000134203D07B427B415B421C400D9B002B0D
:1036500007D00A9809992A00330001F0F4FB0A9078
:103660000991002200234046514601F055FC0028F4
:1036700005D0802000068446099961440991289A62
:10368000414B0B9D13400493269B0A9A0293099B7E
:1036900003940092019349465B4628000C9A00F07F
:1036A0008BF90400002F62D0289B220098061F236C
:1036B000C0179843631C984649465B466530A84747
:1036C0000D9B0025DA179C18DB0F9A465440013FEA
:1036D00001E0202D13D00AAA94461F232000634442
:1036E0000A2101355E1901F061F930313170200095
:1036F0000A2101F05BF926000400092EE9D8052310
:103700000693002304930A330393534605970B9FB4
:10371000029312AB009342465B464946380001953E
:10372000FFF72EFE0E9B0400002B20D00C9BC51A29
:10373000279BAB421BD91E0022005B464946202036
:103740000135B8470134AE42F6D810E0289B424616
:103750000493279B49460393269B0B980293534659
:10376000009201935B460C9A00F026F904002000B9
:103770001BB0F0BCBB46B246A946A046F0BDC04651
:10378000FFFFEF7FFFFFEFFFFFF7FFFF734B099F87
:103790009C467800400D604401F0ECFB704A714B90
:1037A00001F06FFB704A714B01F044FB3B03704A20
:1037B0001B0B1A4304000D00300011006D4B00225A
:1037C00001F02FFB6C4A6D4B01F05BFB02000B001C
:1037D0002000290001F02EFB01F0E4FB0D9001F028
:1037E000C9FB674A674B04000D0001F04AFB002249
:1037F000654B01F01FFB01F0D5FB644A0600644BEA
:103800002000290001F03DFB040030000D000F9660
:1038100001F0B0FB5F4A604B01F033FB02000B008C
:103820002000290001F0FDFA02000B0006000F0045
:1038300001F027FB320004000D003B00300039008E
:1038400001F0F8FA002210901191544B2000290049
:1038500001F0F9FA0022524B01F0ECFA02000B00E1
:103860002000290001F0EFFA00224E4B01F0E2FAAD
:1038700002000B002000290001F0E5FA0D00802174
:10388000040032003B000020C90501F0CAFA020022
:103890000B002000290001F0CDFA02000B00109867
:1038A000119901F0D0FA0022314B01F0C3FA3E4BDE
:1038B0000F9C9C4664440022230501F0E2FA0500B7
:1038C0000E0002000B000A98099901F025FB002860
:1038D0000AD00D9B2800013B31000D930022304B94
:1038E00001F0B1FA05000E00C6270D992B006331D7
:1038F0008F42BF4128997F420437090500D495E6DD
:10390000334300D182E6099C284A2100284B0A98BB
:1039100001F010FB002808D000222100254B0A9856
:1039200001F0FAFA002800D070E6269B002B00D1A7
:103930007CE60E9B5A1E9341269AD31A269375E66F
:10394000002304270D9371E643460A9380231B0648
:103950005344099342E6002326935FE601FCFFFFF0
:10396000FB799F501344D33FB3C8608B288AC63F6E
:103970000000F03F0000F83F61436F63A787D23F2C
:1039800071A379094F930A400000E03F1655B5BB7B
:10399000B16B0240EF39FAFE422EE63F00002C40A8
:1039A0000000244000001840FF0300002D431CEBE2
:1039B000E2361A3F80842E41F0B54E46DE46574629
:1039C0004546E0B597B09946209E219F229B8346AD
:1039D000984607910C923B0032003000390001F00C
:1039E000B6FA002800D0A9E1012230003900CA4B04
:1039F000524201F091FA002800D0E1E001223000AB
:103A00003900C64B524201F09DFA002800D0B7E0C1
:103A1000002230003900C24B01F094FA002800D097
:103A200099E0002230003900BE4B01F075FA002801
:103A300000D090E0002200233000390001F06CFA41
:103A4000002800D0B1E000230D93249B5B0501D436
:103A50000623984608AB9C46172200243023414693
:103A6000624404E0013413550139202C01D00929A6
:103A7000F8D888463000390001F094FA4346DA005D
:103A8000A94B05009B181A685B680892099301F01E
:103A900071FA02000B003000390001F0C2F9089AF7
:103AA000099B01F0EEF90A900B9101F09FFA824612
:103AB00001F05CFA02000B000A980B9901F0B1F9D1
:103AC00000229A4B0A900B9101F03CFA002800D199
:103AD000C0E001239C46E244504601F047FA020050
:103AE0000B000898099901F01DFA002802D0002364
:103AF0009A4601354346002B6AD008AB17269C46F0
:103B000008956644554614E001235B4243440A216C
:103B100028009A4600F04AFF0134303137193970D5
:103B200028000A2100F042FF092D00D8D0E0D0463D
:103B30000500202CE8D10EAB98460323249A1340AD
:103B4000012B00D196E02023249A01930392239A1B
:103B5000434602921EE0249B58460493239B009602
:103B60000197039343460C9A029307994B46FFF73C
:103B7000FDFC17B0F0BCBB46B246A946A046F0BD5E
:103B8000249B5B070ED40322694B24990192039175
:103B900023990291009358464B460C9A0799FFF7D8
:103BA000A1FBE6E70422634BEFE73B003200002075
:103BB000002101F036F9012306000F000D9344E7C0
:103BC000249B0393239B0293042301935A4BE1E725
:103BD000280001F0CFF902000B003000390001F09D
:103BE00020F9524B002206000F0001F095F90EABB0
:103BF000984600280AD10022300039004B4B01F0D2
:103C0000A1F9002802D1EB0700D50135202C94D072
:103C100008AA94461723280063440A2101341E1978
:103C200000F09CFE3031280031700A2100F096FE31
:103C3000051EEBD10323249A1340012B1BD0202C0B
:103C400000D180E70D9B002B35D02D224146631C0F
:103C50000A5579E700220A980B99344B01F05CF978
:103C6000002800D046E75346002B51D101239C4643
:103C7000E2443FE72024239B002BE0D00D9B002B48
:103C800003D1249A0C33134202D0239B013B23938C
:103C9000239BA342D3D908AB9C461722302362440E
:103CA000202C00D14FE72399013413558C42C6D004
:103CB000202CF8D147E7249B5B0724D4249A2300C7
:103CC000120700D440E72022414601330A553BE762
:103CD0005746089D202C00D12DE722003021404678
:103CE000002F09D00132B154202A00D123E7D34359
:103CF0001B191B18002BF5D10EAB98462E234146FD
:103D0000541C8B5482E72B224146631C0A551BE747
:103D1000DB0700D4EEE6A9E7FFFFEFFFFFFFEF7F31
:103D200065CDCD4165CDCDC160EC01100000E03F17
:103D300068EA01106CEA011078EA0110249B0393F1
:103D4000239B029303230193004B23E774EA0110A2
:103D5000F0B5DE464E4657464546E0B59FB01C00DE
:103D6000289B91460993C94AC94B8B4608901A6013
:103D7000002900D118E2002320789A46002800D1BB
:103D80001AE226001D005C460AE02A006F1C4B4622
:103D9000089D2100A8473D0001363078002870D0EA
:103DA0002528F2D110239B46083B9A46043B9846AF
:103DB000023B00219C46721C107816000300203B39
:103DC000DBB2102B03D8B34F9B00FB589F46030078
:103DD000303B092B32D900230A932A2868D00023CC
:103DE00098462E283ED00300683BDBB2122B1CD82D
:103DF000A94A9B00D3589F46012301321943DBE7B0
:103E0000634601321943D7E7434601321943D3E7EA
:103E10005B4601321943CFE7534601321943CBE7E2
:103E200080235B007078194301360300253BDBB229
:103E3000532BAAD8994A9B00D3589F4600270300CA
:103E4000B800C01901364000C018337830381A0065
:103E5000303A0700092AF3D90A901800002398463F
:103E60002E28C0D180237078DB0019430300303B3B
:103E7000721C092B00D8A1E12A2800D1B2E116005A
:103E8000B1E7A346AA462C00D14503D801235B42E3
:103E90004B449A464B46524659460020089DA84737
:103EA00020001FB0F0BCBB46B246A946A046F0BDFC
:103EB000099B40CB0A96002E03DB50780993561CD1
:103EC0008DE72838014370420A9009935078561CB8
:103ED00085E7782800D1DFE1582800D14CE26F282F
:103EE00000D14FE3622801D100F030FC10230A001A
:103EF0009A430B92692801D000F0A9FC0A230C9385
:103F00004B0500D5D0E10B9A802311009B0019408E
:103F10008B461A4200D0A1E2802311005B001940B9
:103F20008A461A4200D0B6E313005B0600D5EDE2E4
:103F3000130009991B0601D400F076FC08C91BB2D6
:103F4000D8171A18424092B209919346DA0F12928A
:103F5000002B09D1802310220B99DB000B409143E9
:103F60000B91002B00D0E4E20B9A6123920600D55E
:103F700041230EA91F228C46DBB262440A3B5F46F6
:103F80001395A34655460C9CB2460D9316000AE0C5
:103F90003033DBB201357355A74200D2EDE2202D5C
:103FA00000D1EAE207002100380000F0FFFCCBB2AC
:103FB0000929EDD90D9A94466344DBB2EAE78023E0
:103FC0009B007078194301362FE77078682800D17C
:103FD000CDE180230136194327E770786C2800D1A2
:103FE000BFE180235B00194301361EE7462800D15C
:103FF0009BE10722099B0491073393430A9A190016
:104000000392424602920CC90898009201930991CA
:104010002A004B462100FFF7CFFC01360500BCE625
:104020002A006F1C4B46089D21002520A847013619
:104030003D00B2E68B0700D4ADE1099B2A009A4609
:104040006B1C9846534601CB21009A46089F4B466D
:10405000C0B2B8470A9B9C466544012B00D886E253
:10406000089B4746B04626004C4699463A00230036
:10407000013731002020C847AF42F7D1A14653464F
:10408000340046460993013687E6C046513D00108C
:10409000ACA4002080EA0110C4EA011010EB01106A
:1040A000099B04CB9B4643460992002B00D1C6E0F6
:1040B00013789C46002B00D1BDE34346013B099A8F
:1040C0000133D0180A9F130001E0834203D05A78CD
:1040D0000133002AF9D1099A0A979B1A0B9380237E
:1040E0000A00DB001A400C92194204D00B9B434596
:1040F00001D943460B9302231A000A400D920B424A
:1041000000D187E16046002800D168E10C9B002BBC
:1041100000D10DE1A844C246099B57465B1B984657
:10412000089BB2462A0026004C46994609E0230027
:104130003100551CC8474346585D002800D126E190
:104140002A009742F3D1A1463D00340056460D9B0C
:10415000002B00D043E15B46013609931DE6099B25
:104160001A0008CA9246002B48D0212211438B46E0
:104170000EA884461F216144099500220F27A446FA
:104180000D0002E0202A0CD00B003C001C40200057
:104190003730092C00D807380132A85419090F2BE1
:1041A000F0D86446099D32E0DC4B20780893002368
:1041B0009A46002800D0E4E5002465E64346060060
:1041C0000A9F9800C0180132400080191678030039
:1041D00030003038303B0928F3D9300098461600BB
:1041E0000A9700E6099B023604CB9046D24340462C
:1041F000D2171040804609933078F4E51022080069
:10420000904311321043834600224905B0D55B46E6
:104210000693082305934346049310230393002336
:10422000029316AB019200932A004B462100089896
:10423000FFF7A6F85346050001360993ADE513785C
:104240009C46002B00D1F7E202235B4237E7202394
:1042500002009A43472A04D180231B0119430223F9
:104260009843452801D1202319430722099B049133
:10427000073393430A9A19000392424602920CC9EB
:1042800008980092019309912A004B462100FFF7FC
:104290006DF90136050080E510230C930C230A000C
:1042A0009A430B924B0503D501230B9A9A430B9229
:1042B000692800D127E6642800D124E60B9A8023E0
:1042C00011009B0019408B461A4200D066E1802302
:1042D00011005B0019408A461A4200D039E21300EF
:1042E0005B0600D53CE113001B0600D4A6E2099B47
:1042F00004CB1204120C934609935B46002B00D0AA
:104300009AE10B9A1033110099430B91520500D496
:1043100092E100239A460B9B06930A9B0593434622
:1043200004930C9B039300230CE12023194360E6C4
:10433000099B0A9A5B1B98464B4691461F00B24662
:104340002600089C2A003B003100A0474346013567
:10435000585D0028F6D14A463400B94656460A92BE
:10436000F5E6C0239B00B078194302365DE5C02313
:10437000B0781943023658E50C230A009A431433E7
:104380001A43103B0B920C934B058DD496E7A14634
:1043900034005646DBE60A9A012A00D853E26B1E27
:1043A0009F18089BB04626004C4699462A002300D9
:1043B000013531002020C847BD42F7D1A146340065
:1043C0004646099B3A0001CB210098467D1C4B468E
:1043D000089FC0B2B847434601360993DDE40B9B02
:1043E0000A9AA8469A4200D8B5E694466544ED1A62
:1043F000089B4746B04626004C4699463A002300A3
:10440000013731002020C847AF42F7D1A146340020
:104410004646A0E60B9A0A99531C914200D814E232
:104420004B199B1A1F00089BB24626004C46994622
:104430002A002300013531002020C847BD42F7D1B2
:104440000A9BA14601330B93099B34001B78564607
:104450009C466046002800D058E67CE60722099B6F
:1044600007339343013294469C4462465F68099245
:104470001A68FB1710931193109811990300534079
:104480000E930B007B400F9394460E9A0F9B121ACB
:104490008B410E920F93FB0F6246129300233A4317
:1044A0009B463DD00B9A6123920600D54123002202
:1044B000DBB20EA90A3B8C4692460D9343461F324F
:1044C00062441395159655460E9E0F9FA246904640
:1044D0000C9C14930CE03032D2B2434601355A554D
:1044E000BB4500D18AE1202D00D18AE106000F00F2
:1044F000220000233000390000F096FAD2B2092AD7
:10450000E9D90D9B9C466244D2B2E6E7FF230999A4
:1045100004C913401A00099117E5C046E1320010A2
:104520000B9A1033110099430B915205BAD5002311
:104530009A460B9B06930A9B0593434604930C9B58
:104540000393129B02935346019316AB2A000093E8
:1045500021004B460898FEF713FF013605001CE4C6
:10456000FF22099B02CB11408B460993C5E65346B7
:10457000454609930136FFF710FC56465C46AA46AD
:10458000139DD6E708230C930B910B99642800D058
:1045900084E60B9B5B0500D586E6B4E40722099B05
:1045A00007339343013294469C44624609921A6849
:1045B0005B6810009B4613005A46134307D10B9AC1
:1045C0001033110099430B91520500D5A1E60B9AC7
:1045D0006123920600D541230022DBB20EA90A3BDB
:1045E0008C4692460D9343461F3262445F461295B5
:1045F000A34655460400B24690460C9E13930DE028
:104600003032D2B2434601355A550023BB4200D165
:1046100000E1202D00D100E104000F003200002352
:104620002000390000F000FAD2B2092AE8D90D9B27
:104630009C466244D2B2E5E70B9A6123920600D50C
:104640004123DBB20EA90A3B1F228C460D932300A7
:1046500062445C461295170055469B46B2460C9E36
:1046600008E03033DBB201357B55B4420ED3202D48
:104670000CD004003100200000F098F9CBB20929D9
:10468000EFD90D9A94466344DBB2ECE756465C469C
:10469000AA46129D3FE6099B1A0008CAD917139231
:1046A0005A184A409246DA0F1292002B08D1802302
:1046B00010220B99DB000B4091430B91002B2BD167
:1046C0000B9A6123920600D541230EAA1F27944618
:1046D000DBB20A3B0D9567445D460993A3465446F9
:1046E000B2460C9E08E03033DBB201357B55B44254
:1046F0000ED3202D0CD004003100200000F056F91C
:10470000CBB20929EFD9099A94466344DBB2ECE7AE
:1047100056465C46AB460D9D0B9B2A0006930A9BB2
:1047200021000593434604930C9B08980393129B26
:10473000013602935B46019316AB00934B46FEF79E
:104740001FFE139B05000993FFF727FB02230C9321
:104750001AE7099B04CB92461293002A08D18023C2
:1047600010220B99DB000B4091430B91002B2BD1B6
:104770000B9A6123920600D541230EAA1F27944667
:10478000DBB20A3B0D9567445D460993A346544648
:10479000B2460C9E08E03033DBB201357B55B442A3
:1047A0000ED3202D0CD004003100200000F0FEF8C4
:1047B000CBB20929EFD9099A94466344DBB2ECE7FE
:1047C00056465C46AB460D9D0B9B2A0006930A9B02
:1047D00021000593434604930C9B08980393002300
:1047E00002935B46019316AB00934B46FEF7C8FD60
:1047F000129B050009930136FFF7CFFAB44200D8A7
:1048000071E6149B54460E960F97AA469846159E3D
:10481000139D8EE6A64200D8FBE6139B56469846AB
:10482000AA465C46129D76E508C9D8171A18424078
:104830000991FFF78AFB00230B9350E4099B04CBFB
:104840009346099359E52F00BBE50B9301E6063B20
:104850000C939AE60CB410B584B006AC08CC0A00F0
:104860000094010004480394FFF772FA04B010BCEE
:1048700008BC02B01847C046D932001000B583B05A
:10488000009313000A0001000248FFF761FA03B029
:1048900000BDC046D932001000B585B0039101219A
:1048A00002900093034813004A4202A9FFF750FA0E
:1048B00005B000BD5D35001010B5094A030014684D
:1048C00084B0002C08D0012200910648524203A96E
:1048D000A047012004B010BD01F0D6F90020F9E78F
:1048E000ACA400204D35001001480421014B1847AD
:1048F000801F002019490010142310B501001888EA
:1049000004331B88984710BD162310B50100188882
:1049100002331B88984710BDF8B54746CE4680B590
:104920000F1E19D0142399460433040000250126D4
:1049300098464B461888434621681B88984701C40F
:10494000431E9841013540420640AF42F1D130004C
:10495000C0BCB946B046F8BD0126F8E7124A936FCD
:104960009B0815D29066D166002905D0FFE7FFE7C6
:10497000FFE7516F106F704704B580210906C21719
:104980005140002800D0C84319F096FD002104BD15
:10499000F0B5146E556E576F166FFFF7E3FF146690
:1049A000556657671667F0BD000000D0114A936F37
:1049B0009B0813D210665166002905D0FFE7FFE778
:1049C000FFE7516F106F704704B5002801D0002039
:1049D000C04319F071FD002104BDC046F0B5146E4E
:1049E000556E576F166FFFF7E5FF146655665767EC
:1049F0001667F0BD000000D094464A4A926F9208B4
:104A0000624601D228E0C046F0B5464E346E756E5F
:104A1000776F366F00F020F89446424A1466556668
:104A2000576716676246F0BD94463E4A926F9208F9
:104A3000624601D254E0C046F0B53A4E346E756E0F
:104A4000776F366F00F04CF89446364A1466556618
:104A5000576716676246F0BD002B24DB11D0002992
:104A60003EDA00B5C943404200D1013100F038F8C8
:104A7000C943404200D10131DB43524200D10133EE
:104A800000BD002AEBD1002801D1002905D000206B
:104A9000C90FC90701D1C043410800B519F0CCFCCA
:104AA0000022002300BD00B500290ADBDB4352428F
:104AB00000D1013300F014F8C943404200D1013164
:104AC00000BDC943404200D10131DB43524200D115
:104AD000013300F005F8DB43524200D1013300BD41
:104AE000002923D1002B18D1002A0CD0BC460D4F31
:104AF00038667A6600210023FFE7FFE7FFE77A6F59
:104B0000386F67467047002801D00748010000B59C
:104B100019F092FC0022002300BD02000B000020CF
:104B200000217047000000D0FFFFFFFF002B00D0E6
:104B3000BFE0130C28D1002AE7D080B4114F3966AA
:104B40007A66FFE7FFE730B4040C7B6F396F1B0414
:104B500023433B667A66FFE7FFE7FFE7C04684B280
:104B60007B6F3D6F1B0423433B667A66FFE7FFE7DD
:104B7000C04600232C042D0C7A6F386F0019694150
:104B8000B0BC7047000000D0F0B594460025140E6C
:104B900001D112020835140F01D112010435940F0E
:104BA00001D192000235D40F01D152000135D40B4E
:104BB0000134254F7C66254C3C660E0C93B2FFE712
:104BC000FFE7FFE73C6F6643360C7703BE4673434F
:104BD000DF0B5B04C01AB941130C7343DB18C91A0D
:104BE000CE086643360CB64493B273431F0F1B01C5
:104BF000C01AB941130C73431F0B1B05C01AB941EE
:104C0000860D8F023E436643360C092D24DB520A83
:104C10007243801A7703460A6643360C16235B1BE1
:104C2000DE40DF40BF1964466643821B7046043590
:104C300006330100D940A840C01900D30131A24277
:104C400006D20023F0BD0000000000D0FFFFFFFFF0
:104C5000121B0130F3D3F1E709277F1BFE406446A6
:104C6000A2B27243801A00D20139220C7243130C93
:104C70001204821A99410B00704604351337010063
:104C8000F940A840801900D30131002B02D1A24283
:104C90000AD2F0BD013000D30131121BFAD2013B20
:104CA000F8D1A24200D2F0BD013000D30131121B75
:104CB000F7E7F0B51C0C00D080E00CB400251C0A0E
:104CC00004D11B02160E3343120208351C0B04D10B
:104CD0001B01160F3343120104359C0B04D19B00BA
:104CE000960F334392000235DC0B02D192185B41E0
:104CF00001351C00971864410134464F7C66464CD0
:104D00003C660E0CFFE7FFE7FFE7C0463C6F6643DB
:104D1000360C7703BE4697B27743C01B00D20139E9
:104D2000C01B00D201399FB27743C91BC91B170CA6
:104D300077437E04FF0B801BB941CE086643360CD7
:104D40000C2D33DBB644120B1F053A431B0B97B2F5
:104D50007743C01B00D201399FB27743C91B170CA0
:104D600077433E043F0C801BB941860D8F023E43C2
:104D7000664329277F1BFE400C3D7746AF40BF1995
:104D800030BCA2B2ABB272437343801A9941220C79
:104D90007243130C1204801A994102000B00013770
:104DA000001BA941F9D2781E0021F0BD0C277F1B02
:104DB000FE4077467F0BAF40FF19E0E700245D1C03
:104DC00007D0144F7D663966FFE7FFE7FFE7FFE78F
:104DD0003C6F95B29EB265436643401BB141150CD2
:104DE0001E0C6543664336042F0C3E432D04401BC6
:104DF000B141994204D202000B0020000021F0BD15
:104E000001D19042F7D3801A994101349942F2D3EB
:104E1000F6E70000000000D0FFFFFFFF48404140E0
:104E2000484018B41B4B5B68FC46019308BD04DF87
:104E3000E350001018B4174B1B68FC46019308BDE3
:104E400000DFED5000109446134A926F920809D289
:104E5000624618B40F4BDB68FC46019308BD0CDFBB
:104E6000A55300100C4AF0B5146E556E576F166FAF
:104E70006246FFF7EEFF084A1466556657671667E5
:104E8000F0BD18B4034B9B68FC46019308BD08DFD6
:104E90004952001090930020000000D0FFB5504010
:104EA0004240504059404B40594000E0FFB5154F3B
:104EB0004C00640D03D0BC4204D10C0314D8002074
:104EC000090D09055C00640D03D0BC4204D11C032C
:104ED0000AD800221B0D1B0501264B4009D44B406C
:104EE00003D58B4200D18242FFBD9942FCD1904252
:104EF000FFBD0B43DB1803431343F5D0C9434918E7
:104F0000FFBD0000FF07000000B5FFF7CFFF01D095
:104F1000002000BD012000BD00B5FFF7C7FF8041A4
:104F200000BDC04600B5FFF7C1FF01D9002000BD9C
:104F3000012000BD00B5FFF7B1FF01D9002000BD81
:104F4000012000BD00B5FFF7A9FF804100BD012091
:104F500040054A00121804D85A00121801D800203F
:104F60007047012070470020704700000021002892
:104F700005D17047C1174840401AFAD0C90713B588
:104F8000064B1B6898470CBC441CA2401005120B32
:104F90000349091B09051943114310BDF0A700205F
:104FA0001F04000010B54C00620D8023D218DB00F6
:104FB000D21A5B057E2A10DD9E3A13DACC1709035C
:104FC000490819435242D140640001341532202A65
:104FD00005DAD0400843604310BD002010BD0846EC
:104FE000604310BDC80FC018013810BD18B4044B81
:104FF0005B6AFC46019308BD24DF55550010000094
:105000009093002018B4044BDB6FFC46019308BD5D
:105010007CDFD5550010000090930020132370B55D
:105020001D78012D15D010DD1C48FFF76DFC1C4CC0
:1050300001008022200000F0BBFC022D06D01948A0
:10504000FFF75AFC184B186070BD154C174BA36442
:10505000F5E7164B124C23606360A360E3602361A5
:105060006361A361E36123626362A362E36223631A
:105070006363A363E36323646364A364E3642365FA
:105080006365A365E36523666366A366E3662367DA
:105090006367A367E367A364D1E7C0465344000096
:1050A000909300204C330000F0A70020B150001076
:1050B00007B5604601880A0A0230DF2AFAD1C9B270
:1050C000820804D3028840880004104300E000688E
:1050D000014A5050039007BD909300200FB403BCC9
:1050E0000CBCF0B50124E407634000E0F0B50C0D02
:1050F000CF0F661E3605891B640503D3C9434042A2
:1051000000D30131640D03D0661CF60A07D0E41BFE
:1051100000207F00791C89078912803C24031D0D23
:10512000DF0F6E1E36059B1B6D0503D3DB4352421A
:1051300000D301336D0D03D06E1CF60A07D0ED1BB2
:1051400000227F007B1C9B079B12803D2D032F1BA1
:10515000661B58D4A446202E46DA20371400BC40E3
:105160001D00BD40F24033412A4380185941CB0F06
:1051700005D0C943C04300226442504151416246B8
:105180004D0D28D10D0D07D100281FD02419404105
:105190004941013A0D0DF9D0640006D3013000D326
:1051A0000131002C01D140084000013A0BD4941C7D
:1051B000E40A04D112051144DB071944F0BDD907F4
:1051C000204B194300E0D9070020F0BD0029DDD1B4
:1051D000002CDBD1F0BD0132C6074008CD072843C3
:1051E0004908002EE1D0D9E73C2E29DA203E40378D
:1051F0001400BC4000D00124F24014431A00BB400C
:105200001C43D317ACE7AC46202F08DA2036040045
:10521000B4400D00B540F84039412843A5E73C2F84
:105220000CDA203F40360400B44000D00124F8409E
:1052300004430800B1400C43C117EAE7100019000D
:10524000002494E70000F07FF0B50C0D661E3605D3
:10525000891BE60A6405640D02D0651CED0A04D0C2
:10526000002001210905803C2403A4461C0D671E73
:105270003F05DB1BE70A6405640D02D0651CED0ADF
:1052800004D0002201231B05803C240377406444A2
:1052900097B484B296B27443070C7E43150C6F43E7
:1052A00080B26843361802D3012000043F1830044E
:1052B000350C00197D41844688B29AB250430C0CDB
:1052C00062431F0C7C438EB27E43921902D30126A7
:1052D0003604A4191604170C3618674101BC81B2B4
:1052E0009AB25143040C62431B0C5C4380B2584396
:1052F000121802D30120000424181004130C4018C3
:1053000063412D185E410020474106BC88B293B22C
:1053100058430C0C6343120C544389B251435B183D
:1053200002D301210904641819041A0C09186241F6
:105330006D1856410020474118BCF902720D114307
:10534000F0026A0D1043ED020A0D03D16D194041C0
:105350004941013B124E9B1B7600B3420ED26D00B9
:1053600007D30130002671416646354301D140081C
:1053700040001B05C918E4072144F0BD0BDA0133D6
:1053800006D1013004D101314F0D01D04908F2E7B7
:10539000E1070020F0BD013631050020EBE70000F9
:1053A000FF030000F0B51C0D671E3F05DB1BE70A7D
:1053B0006405640D02D0661CF60A04D000220123A5
:1053C0001B05803C2403D0252D060026F6432E66BF
:1053D0001E096E66CE0FF619B44649004F0D02D075
:1053E0007E1CF60A03D000200021403F3F033E1BF5
:1053F000B600B444013F7F05C91B49082E6F013632
:1054000076089C02950D25437543ED137543AD1346
:1054100001356D10F603761B0CB4CC02450D2C4300
:10542000A2B2B3B25A43270C7B43350C6F43A4B2EC
:105430006C431B1902D3012424043F191C041D0CC6
:10544000A4187D4124196D41009A91B2ACB2614318
:10545000170C7C432B0C5F4392B25A43A41802D31F
:1054600001221204BF182204230C52187B41019C14
:105470006C431B19520ED9010A434401A01A81B290
:10548000B2B2514303145A43360C734387B2774385
:10549000D617D21900277E4136049B191704160C23
:1054A0007F185E417316ED18F301002680337541B5
:1054B000A90F06D16400690AE8055B0A184309D2FE
:1054C0002FE00422944480337541A90AA8059B0A61
:1054D000184326D3404149412404009A019B0D0002
:1054E0005543641B4343E41A95B286B27543170CC7
:1054F0007E43030C5F4392B25A43B61802D3012293
:105500001204BF183204330C52197B4152429C41A1
:10551000002C02D40022013051414008CA07104338
:10552000490802B06246D7079210084BD218084BC0
:105530009A4203D212058918C919F0BD0020002A29
:1055400001DC3900F0BD01331905F5E7FD0300006A
:10555000FE070000002200B5203200F004F8080029
:1055600000BD000000220B150AD410B5944600F0CF
:105570005FF81414013400DA0021CB17144C2047D3
:105580000020002170476244343A0CD40C2A07DA18
:1055900004009140904052422032D440214310BD3B
:1055A000D843D94310BD203207D40C469440524210
:1055B00020321141D040204310BD0800C9172032CD
:1055C00003D452422032104110BD1800190010BD02
:1055D000875500104A00520D144BD21A13DDFF2AD2
:1055E0001EDAD205CB0FDB071A43C300400F0903B5
:1055F000490A084310435B0001D301D001307047D2
:105600004308FBD2704702D0C80FC00770470A0397
:1056100012130132F8D1420F072AF5D1012200E01E
:10562000FF22C80F00028018C005704780030000E9
:105630000A0DCC0F531E1B05C91A520503D3C943CB
:10564000404200D30131520D03D0531CDB0A07D076
:10565000121B00206400611C89078912803A120322
:10566000014BD21A70470000FF030000514343432F
:10567000C9188C46110C83B24B4310B4040C61431F
:1056800092B280B2504362431C041B0C001910BC40
:1056900059411304120CC018514161447047000075
:1056A0004840414048400E4B5B6818470C4B1B6814
:1056B00018470C4A936F9B0802D2094BDB681847C6
:1056C000F0B5146E556E576F166FFFF7F6FF054A6B
:1056D0001466556657671667F0BD014B9B681847FF
:1056E00090940020000000D007B548404140484059
:1056F00001E0C04607B54200120E03D0FF2A03D1D5
:10570000420218D8C00DC0054A00120E03D0FF2A6D
:1057100003D14A020FD8C90DC9050122414005D461
:10572000414001D5814207BD884207BD0143491868
:1057300001D0C043001807BD00B5FFF7DBFF01D063
:10574000002000BD012000BD00B5FFF7CDFF804166
:1057500000BD491A002807D108467047C10FC90784
:1057600000D54042002817D0F44603B40B4B1B6809
:10577000984706BC81409E384042803107D20B06D4
:1057800007D04900490AC00510430843604701306B
:10579000F8E7490A8902F5E770470000F0A7002002
:1057A00041000A0E80231B067E2A0BDD9E3A0BDA8F
:1057B000C1174002400818435242D040490001310D
:1057C0004843704700207047C00FC0180138704729
:1057D000C0420DD300B540004008002100F012F88F
:1057E000002801D4404200BD8020000600BD00001A
:1057F000034BDB69FC4618471CDFA1580010000072
:1058000090940020014B5B6A1847000090940020A0
:10581000132310B512481C78FFF776F80100012C0D
:105820000AD003DD80220F4800F0C2F80E48FFF7CF
:1058300063F80E4B186010BD0A4C5422200000F093
:10584000B7F80B4B6365A365E36523666366A366E0
:10585000E36623676367A367E3672362E361E5E7C2
:1058600053460000909400204C330000F0A7002025
:105870007558001007B5604601880A0A0230DF2A11
:10588000FAD1C9B2820804D30288408800041043C8
:1058900000E00068014A5050039007BD909400203A
:1058A0000021C2158032803201D0024A1047002008
:1058B00070470000CD2A000070B504000A4E300089
:1058C00018F062FE200016F00DFC0500300018F004
:1058D000ABFD002D05D0054B2C199C4201D82800AA
:1058E00070BD0348FDF7D4FC744C00200000042078
:1058F000B0EC011070B505000C000B4E300018F034
:1059000043FE2800210016F0C7FA0500300018F009
:105910008BFD002D05D0054B2C199C4201D8280089
:1059200070BD0348FDF7B4FC744C00200000042057
:10593000B0EC011070B505000C000B4E300018F0F3
:1059400023FE2800210016F0C3FE0500300018F0E9
:105950006BFD002D05D0054B2C199C4201D8280069
:1059600070BD0348FDF794FC744C00200000042037
:10597000B0EC011070B50400054D280018F004FECD
:10598000200016F0B9FB280018F04EFD70BDC0468F
:10599000744C002001480421014B1847901F00203F
:1059A00019490010014B1B6818470000901F002088
:1059B000014B5B6818470000901F002010B5FFF7EF
:1059C0007BFF10BD10B5FFF7D5FF10BD030010B56C
:1059D000080011001B68984710BDC046F0B5464648
:1059E0004F46D646C0B5437D80460E001700002BBB
:1059F00046D0002A3FDD4B1E9946244B012500244A
:105A000000209A460DE04B461B5D0D3B5A42534128
:105A1000325DDBB20A2A0BD02B00013401359F42E4
:105A20001ADD002CEFD14346325D1B7D0A2AF3D1EB
:105A3000002BF1D1A04204DA4346211A1B6830182A
:105A40009847434650461B68022198470134280076
:105A50002B0001359F42E4DC874204DD4346391ABE
:105A60001B6830189847F619013E33780D3B5A42AF
:105A7000534142461375E0BCBA46B146A846F0BD54
:105A80000368110030009847F5E7C04628ED011083
:105A9000F0B5C6460C000968060000B5802906D09E
:105AA0004B1C23606418267180BCB846F0BD0F4BB8
:105AB0001D68002D16D0231D98460D4F02E02D695C
:105AC000002D0FD02B68002BF9D03B68002B01D0A4
:105AD000AB42F4D1280041462268FFF77FFF2D69D1
